:020000040800F2
:10000000000001207D0B0008D90B0008D90B000867
:10001000D90B0008D90B0008D90B0008000000001C
:10002000000000000000000000000000D90B0008E4
:10003000D90B000800000000D90B00084910000887
:10004000D90B0008D90B0008D90B0008D90B000800
:10005000D90B0008D90B0008D90B0008D90B0008F0
:10006000D90B0008D90B0008D90B0008D90B0008E0
:10007000D90B0008D90B0008D90B0008D90B0008D0
:10008000D90B0008D90B0008D90B0008D90B0008C0
:10009000D90B0008D90B0008D90B0008D90B0008B0
:1000A000D90B0008D90B0008D90B0008D90B0008A0
:1000B00075140008D90B0008D90B0008D90B0008EB
:1000C000D90B0008D90B0008D90B0008D90B000880
:1000D000D90B0008D50C0008E50C0008F50C000849
:1000E000D90B0008D90B0008D90B0008D90B000860
:1000F000D90B0008D90B0008D90B0008D90B000850
:10010000D90B00080000000000000000D90B000817
:10011000D90B0008D90B0008D90B0008D90B00082F
:10012000D90B0008D90B0008D90B0008D90B00081F
:10013000D90B0008D90B00080000000000000000E7
:10014000D90B0008D90B0008D90B000800000000EB
:10015000000000000000000000000000000000009F
:10016000D90B0008D90B0008D90B0008D90B0008DF
:10017000D90B0008D90B0008D90B0008D90B0008CF
:10018000D90B0008D90B0008000000000000000097
:04019000D90B00087F
:1001980010B5054C237833B9044B13B10448AFF3B9
:1001A80000800123237010BD4000002000000000E3
:1001B8006C3E000808B5034B1BB103480349AFF375
:1001C800008008BD000000006C3E000844000020CC
:1001D80081F0004102E000BF83F0004330B54FEAF0
:1001E80041044FEA430594EA050F08BF90EA020F5D
:1001F8001FBF54EA000C55EA020C7FEA645C7FEAF0
:10020800655C00F0E2804FEA5454D4EB5555B8BF12
:100218006D420CDD2C4480EA020281EA030382EA83
:10022800000083EA010180EA020281EA0303362D15
:1002380088BF30BD11F0004F4FEA01314FF4801CE8
:100248004CEA113102D0404261EB410113F0004FFA
:100258004FEA03334CEA133302D0524263EB4303B1
:1002680094EA050F00F0A780A4F10104D5F1200E4F
:100278000DDB02FA0EFC22FA05F2801841F10001AA
:1002880003FA0EF2801843FA05F359410EE0A5F17E
:1002980020050EF1200E012A03FA0EFC28BF4CF0AF
:1002A800020C43FA05F3C01851EBE37101F0004565
:1002B80007D54FF0000EDCF1000C7EEB00006EEB72
:1002C8000101B1F5801F1BD3B1F5001F0CD34908FC
:1002D8005FEA30004FEA3C0C04F101044FEA445253
:1002E80012F5800F80F09A80BCF1004F08BF5FEADA
:1002F800500C50F1000041EB045141EA050130BDBA
:100308005FEA4C0C404141EB010111F4801FA4F15C
:100318000104E9D191F0000F04BF01460020B1FAB1
:1003280081F308BF2033A3F10B03B3F120020CDAE9
:100338000C3208DD02F1140CC2F10C0201FA0CF0C7
:1003480021FA02F10CE002F11402D8BFC2F1200C2C
:1003580001FA02F120FA0CFCDCBF41EA0C019040E2
:10036800E41AA2BF01EB0451294330BD6FEA04042B
:100378001F3C1CDA0C340EDC04F11404C4F1200216
:1003880020FA04F001FA02F340EA030021FA04F328
:1003980045EA030130BDC4F10C04C4F1200220FA7F
:1003A80002F001FA04F340EA0300294630BD21FABD
:1003B80004F0294630BD94F0000F83F4801306BF83
:1003C80081F480110134013D4EE77FEA645C18BF77
:1003D8007FEA655C29D094EA050F08BF90EA020F0E
:1003E80005D054EA000C04BF1946104630BD91EA06
:1003F800030F1EBF0021002030BD5FEA545C05D109
:100408004000494128BF41F0004130BD14F5800447
:100418003CBF01F5801130BD01F0004545F0FE41BB
:1004280041F470014FF0000030BD7FEA645C1ABFF0
:10043800194610467FEA655C1CBF0B46024650EA27
:10044800013406BF52EA033591EA030F41F4002153
:1004580030BD00BF90F0000F04BF0021704730B5D9
:100468004FF4806404F132044FF000054FF00001AE
:1004780050E700BF90F0000F04BF0021704730B56F
:100488004FF4806404F1320410F0004548BF404244
:100498004FF000013EE700BF42004FEAE2014FEA99
:1004A80031014FEA02701FBF12F07F4393F07F4F74
:1004B80081F06051704792F0000F14BF93F07F4FA6
:1004C800704730B54FF4607401F0004521F00041E9
:1004D80020E700BF50EA010208BF704730B54FF06F
:1004E80000050AE050EA010208BF704730B511F074
:1004F800004502D5404261EB41014FF4806404F1AC
:1005080032045FEA915C3FF4DCAE4FF003025FEA2D
:10051800DC0C18BF03325FEADC0C18BF033202EBB5
:10052800DC02C2F1200300FA03FC20FA02F001FA0F
:1005380003FE40EA0E0021FA02F11444C1E600BFAE
:1005480070B54FF0FF0C4CF4E06C1CEA11541DBF61
:100558001CEA135594EA0C0F95EA0C0F00F0DEF82C
:100568002C4481EA030621EA4C5123EA4C5350EA11
:10057800013518BF52EA033541F4801143F4801362
:1005880038D0A0FB02CE4FF00005E1FB02E506F0F3
:100598000042E0FB03E54FF00006E1FB03569CF048
:1005A800000F18BF4EF0010EA4F1FF04B6F5007F4E
:1005B80064F5407404D25FEA4E0E6D4146EB0606C0
:1005C80042EAC62141EA55514FEAC52040EA5E5049
:1005D8004FEACE2EB4F1FD0C88BFBCF5E06F1ED8F3
:1005E800BEF1004F08BF5FEA500E50F1000041EB2A
:1005F800045170BD06F0004646EA010140EA0200D7
:1006080081EA0301B4EB5C04C2BFD4EB0C0541EAF8
:10061800045170BD41F480114FF0000E013C00F30D
:10062800AB8014F1360FDEBF002001F0004170BD31
:10063800C4F10004203C35DA0C341BDC04F114044A
:10064800C4F1200500FA05F320FA04F001FA05F2D6
:1006580040EA020001F0004221F0004110EBD370A3
:1006680021FA04F642EB06015EEA430E08BF20EACF
:10067800D37070BDC4F10C04C4F1200500FA04F372
:1006880020FA05F001FA04F240EA020001F0004104
:1006980010EBD37041F100015EEA430E08BF20EA77
:1006A800D37070BDC4F1200500FA05F24EEA020EBF
:1006B80020FA04F301FA05F243EA020321FA04F0EE
:1006C80001F0004121FA04F220EA020000EBD370A5
:1006D8005EEA430E08BF20EAD37070BD94F0000FA5
:1006E8000FD101F00046400041EB010111F4801FD9
:1006F80008BF013CF7D041EA060195F0000F18BF8A
:10070800704703F00046520043EB030313F4801FC5
:1007180008BF013DF7D043EA0603704794EA0C0F7F
:100728000CEA135518BF95EA0C0F0CD050EA410695
:1007380018BF52EA4306D1D181EA030101F0004112
:100748004FF0000070BD50EA410606BF104619463A
:1007580052EA430619D094EA0C0F02D150EA013646
:1007680013D195EA0C0F05D152EA03361CBF104687
:1007780019460AD181EA030101F0004141F0FE4126
:1007880041F470014FF0000070BD41F0FE4141F4AA
:10079800780170BD70B54FF0FF0C4CF4E06C1CEAAA
:1007A80011541DBF1CEA135594EA0C0F95EA0C0F5F
:1007B80000F0A7F8A4EB050481EA030E52EA03351A
:1007C8004FEA013100F088804FEA03334FF080553B
:1007D80045EA131343EA12634FEA022245EA111568
:1007E80045EA10654FEA00260EF000419D4208BF19
:1007F800964244F1FD0404F5407402D25B084FEAC6
:100808003202B61A65EB03055B084FEA32024FF471
:1008180080104FF4002CB6EB020E75EB030E22BFCE
:10082800B61A754640EA0C005B084FEA3202B6EB8E
:10083800020E75EB030E22BFB61A754640EA5C003D
:100848005B084FEA3202B6EB020E75EB030E22BFCD
:10085800B61A754640EA9C005B084FEA3202B6EBCE
:10086800020E75EB030E22BFB61A754640EADC008D
:1008780055EA060E18D04FEA051545EA16754FEAEF
:1008880006164FEAC30343EA52734FEAC2025FEA0D
:100898001C1CC0D111F4801F0BD141EA00014FF09C
:1008A80000004FF0004CB6E711F4801F04BF01436D
:1008B8000020B4F1FD0C88BFBCF5E06F3FF6AFAE89
:1008C800B5EB030C04BFB6EB020C5FEA500C50F119
:1008D800000041EB045170BD0EF0004E4EEA11319C
:1008E80014EB5C04C2BFD4EB0C0541EA045170BDA3
:1008F80041F480114FF0000E013C90E645EA060EE7
:100908008DE60CEA135594EA0C0F08BF95EA0C0F14
:100918003FF43BAF94EA0C0F0AD150EA01347FF45C
:1009280034AF95EA0C0F7FF425AF104619462CE733
:1009380095EA0C0F06D152EA03353FF4FDAE104696
:10094800194622E750EA410618BF52EA43067FF4E7
:10095800C5AE50EA41047FF40DAF52EA43057FF477
:10096800EBAE12E74FEA4102B2F1E04324BFB3F520
:10097800001CDCF1FE5C0DD901F0004C4FEAC0020E
:100988004CEA5070B2F1004F40EB830008BF20F0F2
:100998000100704711F0804F21D113F13872BCBFAC
:1009A80001F00040704741F480114FEA5252C2F101
:1009B8001802C2F1200C10FA0CF320FA02F018BF4A
:1009C80040F001004FEAC1234FEAD32303FA0CFC9D
:1009D80040EA0C0023FA02F34FEA4303CCE77FEA2C
:1009E800625307D150EA01331EBF4FF0FE4040F476
:1009F8004000704701F0004040F0FE4040F4000025
:100A0800704700BF80B500AF1E4B1E4AD2F8882041
:100A180042F47002C3F888201B4B1B4A126842F04C
:100A280001021A60184A184B5968184B0B4053605A
:100A3800154A154B1B6823F0847323F48033136025
:100A4800114B114A126822F480221A600E4B0E4A8A
:100A5800526822F4FE025A600B4B0B4AD26A22F00B
:100A68000F02DA62084A084B196B094B0B401363F3
:100A7800054B00229A6000F00DF8024B4FF000621F
:100A88009A6080BD00ED00E0001002400CC07FF8C5
:100A9800CCFC00FF80B483B000AF00237B60002350
:100AA8003B60324B314A126842F480321A602F4B55
:100AB8001B6803F400333B607B6801337B603B6851
:100AC800002B03D17B68B3F5A04FF0D1274B1B68EF
:100AD80003F40033002B02D001233B6001E0002324
:100AE8003B603B68012B3CD1214B12221A601F4B03
:100AF8001E4A52685A601D4B1C4A52685A601B4B6A
:100B08001A4A526842F480625A60184B174A52686F
:100B180022F47C125A60154B144A526842F4E812C7
:100B28005A60124B114A126842F080721A6000BF74
:100B38000E4B1B6803F00073002BF9D00B4B0B4ACC
:100B4800526822F003025A60084B084A526842F081
:100B580002025A6000BF054B5B6803F00C03082BC8
:100B6800F9D10C37BD465DF8047B70470010024090
:100B780000200240DFF840D0002100F004B80F4BFD
:100B88005B58435004310E480E4B42189A42FFF40A
:100B9800F6AF0D4A00F003B8002342F8043B0B4BB4
:100BA8009A42FFF4F9AFFFF72DFF03F055F800F074
:100BB80011F8FFF7FEBF000000000120AC3E00085E
:100BC800000000204000002040000020A800002075
:100BD800FFF7FEBF80B582B000AF02F071FF00F0F2
:100BE80023FA02F0B5FB02F09DFB02F0BFFB02F016
:100BF8005DFF02F089FF02F027FF0346FB7102F058
:100C080009FAFEE780B588B000AF786007F10803FD
:100C1800184600F0F7FE7A68234B9A421AD14FF42F
:100C2800E133BB6007F108031F48194600F030FEA6
:100C38001D4B1D4A126842F001021A601A4B1A4AEB
:100C4800126842F008021A6017481849012200F099
:100C580023FF26E07A68164B9A420FD114480121E7
:100C680000F0ECFE07F108031148194600F010FEE9
:100C78000F480E49012200F00FFF12E07A680D4B71
:100C88009A420ED10B48012100F0D8FE07F1080363
:100C98000848194600F0FCFD06480449012200F006
:100CA800FBFE2037BD4680BD00440040050105001D
:100CB800003801400048004080B483B000AF78603D
:100CC8000C37BD465DF8047B704700BF80B500AFA8
:100CD8000148FFF7F1FF80BD0038014080B500AF43
:100CE8000148FFF7E9FF80BD0044004080B500AF30
:100CF8000148FFF7E1FF80BD0048004080B588B09B
:100D080000AF1323BB820023FB8240F2E733BB61B1
:100D18000023BB830023FB8307F114031C481946F7
:100D280000F016FF3B4600221A60043300221A60C6
:100D3800043300221A60043300221A6004330022AC
:100D48001A60043360233B604FF46163BB60012386
:100D5800BB800023BB813B460D48194600F0ACFF21
:100D68000B48082101F092F93B460948194601F061
:100D78002FF80748082101F0A5F90548012100F0DE
:100D88007BFF0348012101F0F1F92037BD4680BD02
:100D9800002C014080B588B000AFC723BB82002378
:100DA800FB8241F61F43BB610023BB830023FB8307
:100DB80007F114032548194600F0CAFE3B460022F5
:100DC8001A60043300221A60043300221A600433C4
:100DD80000221A60043300221A60043360233B6047
:100DE8000023BB600123BB800023BB813B4617481F
:100DF800194600F061FF1548082101F047F93B4604
:100E08001248194600F0E4FF1048082101F05AF989
:100E18003B460E48194601F05BF80C48082101F0E2
:100E28006DF93B460948194601F0D0F807480821F2
:100E380001F080F90548012100F01EFF0348012157
:100E480001F094F92037BD4680BD00BF0004004082
:100E580080B584B000AF0023FB81174B1A68174B8D
:100E6800A3FB0213DB0C9BB2013BFB8140F28F1307
:100E78007B6000233B8000233B8100237B803B4633
:100E88000F48194600F064FEFB890D4819460122F7
:100E980000F0DEFE0A4801210022002301F0DEF9FD
:100EA80007480121012201F07DF90548012100F0E0
:100EB800E3FE1037BD4680BD00000020819F5E160E
:100EC8000008004080B584B000AF0023FB811A4BB6
:100ED8001A681A4BA3FB0213DB0C9BB2013BFB8184
:100EE80040F28F137B6000233B8000233B8100236B
:100EF8007B803B464FF08040194600F029FEFB8975
:100F08004FF080401946012200F0A2FE4FF08040C9
:100F180001210022002301F0A1F94FF080400121B6
:100F2800012201F03FF94FF08040012100F0A4FEBA
:100F38001037BD4680BD00BF00000020819F5E16AF
:100F480080B582B000AF78607A680E4B9A4202D1C1
:100F5800FFF7D4FE13E07A680B4B9A4202D1FFF7F1
:100F680019FF0CE07A68094B9A4202D1FFF770FF2B
:100F780005E07B68B3F1804F01D1FFF7A3FF083785
:100F8800BD4680BD002C0140000400400008004020
:100F980080B483B000AF03463960FB7197F907301E
:100FA800002B0BDA0D49FB7903F00F03043B3A6879
:100FB800D2B21201D2B20B441A7609E0084997F965
:100FC80007303A68D2B21201D2B20B4483F8002338
:100FD8000C37BD465DF8047B704700BF00ED00E0AC
:100FE80000E100E080B582B000AF78607B68013B2B
:100FF800B3F1807F01D301230FE00A4B7A68013AED
:101008005A604FF0FF300F21FFF7C2FF054B002257
:101018009A60044B07221A60002318460837BD4619
:1010280080BD00BF10E000E080B500AF0348FFF7C7
:10103800D9FF6FF0040001F0A5FD80BD4019010043
:1010480080B500AF2E4B1B88013B9AB22C4B1A80FF
:101058002B4B1B8803F003039BB2002B48D14FF0A6
:101068009040202101F058FF0346002B05D04FF097
:101078009040202101F07AFF04E04FF090402021B9
:1010880001F066FF02F0F4FC00206421012202F066
:101098007BF901204FF44871012202F075F9002014
:1010A8009FED180A02F092F901209FED170A02F04D
:1010B8008DF902209FED150A02F088F903209FEDB3
:1010C800140A02F083F902F09FFD4FF090402021AE
:1010D80001F022FF0346002B05D04FF0904020215D
:1010E80001F044FF04E04FF09040202101F030FF70
:1010F800034B1B88002B02D1014B7D221A8080BD37
:1011080004000020000000000000B4420000B4C247
:101118000000344280B500AF4FF40030012101F0E7
:1011280065FC4FF40020012101F060FC4FF0804085
:10113800012101F097FC80BD80B500AF4FF400306D
:10114800012101F053FC80BD80B500AF4FF40030A1
:10115800012101F04BFC4FF48020012101F046FCF5
:1011680080BD00BF80B500AF4FF40030012101F011
:101178003DFC80BD80B500AF4FF40030012101F087
:1011880035FC4FF40030012101F06CFC80BD00BF3C
:1011980080B500AF4FF40020012101F027FC4FF487
:1011A8008040012101F040FC80BD00BF80B500AF48
:1011B8004FF40020012101F019FC4FF48020012197
:1011C80001F050FC80BD00BF80B500AF4FF4002097
:1011D800012101F00BFC4FF48020012101F006FCF5
:1011E8004FF40060012101F01FFC80BD80B500AF05
:1011F8004FF40020012101F0F9FB0220012101F048
:1012080031FC80BD80B500AF4FF48020012101F092
:10121800EDFB4FF40020012101F0E8FB0220012141
:1012280001F020FC80BD00BF80B500AF4FF48020E6
:10123800012101F0DBFB0420012101F013FC4FF434
:101248000030012101F0D2FB0120012101F00AFC4C
:1012580080BD00BF80B582B000AF0346FB71FB794B
:101268000A2B3AD801A252F823F000BFA7120008AF
:10127800AD120008A1120008B9120008C512000832
:10128800BF120008B3120008CB120008D1120008E0
:10129800D7120008DD120008FFF74EFF1EE0FFF727
:1012A80053FF1BE0FFF75EFF18E0FFF733FF15E081
:1012B800FFF760FF12E0FFF779FF0FE0FFF768FF25
:1012C8000CE0FFF781FF09E0FFF790FF06E0FFF76A
:1012D80099FF03E0FFF7A8FF00E000BF0837BD460D
:1012E80080BD00BF80B483B000AF0346FB71084BDC
:1012F80097F907205209F97901F01F01012000FA36
:1013080001F143F822100C37BD465DF8047B7047A5
:1013180000E100E080B584B000AF0346FB712623EE
:101328003B7300237B73FB79BB730123FB7307F1CA
:101338000C03184601F0C6FB2620FFF7D3FF103731
:10134800BD4680BD80B584B000AF0346FB71252340
:101358003B7300237B73FB79BB730123FB7307F19A
:101368000C03184601F0AEFB2520FFF7BBFF103732
:10137800BD4680BD80B584B000AF0346FB7127230E
:101388003B7300237B73FB79BB730123FB7307F16A
:101398000C03184601F096FB2720FFF7A3FF103730
:1013A800BD4680BD80B584B000AF0346FB711E23E7
:1013B8003B7300237B73FB79BB730123FB7307F13A
:1013C8000C03184601F07EFB1037BD4680BD00BFF8
:1013D80080B584B000AF0346FB711C233B73002328
:1013E8007B73FB79BB730123FB7307F10C0318466E
:1013F80001F068FB1037BD4680BD00BF80B582B0E4
:1014080000AF0346FB714FF4E06001F049FBFB7944
:10141800033B072B25D801A252F823F045140008F6
:101428004D140008551400086B1400086B140008CC
:101438006B1400086B1400085D1400080220FFF705
:1014480069FF0FE00320FFF77DFF0BE00420FFF7A3
:1014580091FF07E00020FFF7A5FF0120FFF7B8FF85
:1014680000E000BF0837BD4680BD00BF80B500AFB3
:101478004FF08040012100F0B5FE0346002B04D058
:101488004FF08040012100F0D7FE80BD80B588B0C4
:1014980000AF00233B610023BB600023FB600023F7
:1014A800BB610023FB61094B7B603B1D0848194663
:1014B80001F084FB0648012101F0E4FB044868219F
:1014C80001F0FCFB2037BD4680BD00BF2B1D20006E
:1014D8000078004080B582B000AF01233B71022341
:1014E8007B714FF480533B603B461048194601F02E
:1014F8007BFC4FF400533B603B460C48194601F017
:1015080073FC4FF480633B603B464FF090401946B4
:1015180001F06AFC4FF400633B603B464FF090409B
:10152800194601F061FC0837BD4680BD000400483B
:1015380080B582B000AF01233B7102237B714FF469
:1015480080533B603B464FF09040194601F04CFCFD
:101558000837BD4680BD00BF80B582B000AF01230B
:101568003B7102237B7120233B603B464FF0904048
:10157800194601F039FC0837BD4680BD80B582B0F8
:1015880000AF4FF090400321072201F0FDFC4FF01F
:1015980090400221072201F0F7FC02233B7103234C
:1015A8007B710023BB710023FB7104233B603B4626
:1015B8004FF09040194601F017FC08233B603B466A
:1015C8004FF09040194601F00FFC0837BD4680BD2A
:1015D80080B400AFBD465DF8047B704780B400AFAF
:1015E800BD465DF8047B704780B582B000AF1348F4
:1015F8000921032201F0C8FC4FF090400821032282
:1016080001F0C2FC02233B710123BB710023FB7173
:1016180003237B714FF400733B603B460748194630
:1016280001F0E2FB4FF480733B603B464FF0904083
:10163800194601F0D9FB0837BD4680BD00080048AF
:1016480080B582B000AF23480121022201F09CFC42
:1016580020480021022201F097FC02233B7103235A
:101668007B710023BB710123FB7102233B603B4666
:101678001848194601F0B8FB01233B603B46154862
:10168800194601F0B1FB01233B7102237B714FF432
:1016980080533B603B460F48194601F0A5FB2023C9
:1016A8003B603B460C48194601F09EFB4FF4007323
:1016B8003B603B460848194601F096FB4FF480739F
:1016C8003B603B460448194601F08EFB0837BD468F
:1016D80080BD00BF000800480004004880B582B003
:1016E80000AF11480621022201F04EFC0E480721E6
:1016F800022201F049FC02233B7103237B71002382
:10170800BB710123FB7140233B603B4606481946E9
:1017180001F06AFB80233B603B460348194601F011
:1017280063FB0837BD4680BD0008004880B582B01D
:1017380000AF12480821022201F026FC10480121BE
:10174800022201F021FC02233B7103237B71002359
:10175800BB710123FB7102233B603B4608481946D5
:1017680001F042FB4FF480733B603B460348194647
:1017780001F03AFB0837BD4680BD00BF00080048AD
:101788000004004880B582B000AF1C480621022240
:1017980001F0FAFB19480721022201F0F5FBC023EA
:1017A8003B6002233B7103237B710023BB71002341
:1017B800FB713B461148194601F016FB4FF090406B
:1017C8000021022201F0E0FB4FF0904001210222AB
:1017D80001F0DAFB03233B6002233B7103237B7197
:1017E8000023BB710023FB713B464FF09040194624
:1017F80001F0FAFA0837BD4680BD00BF0004004872
:1018080080B582B000AF0346FB71FB790A2B3AD84A
:1018180001A252F823F000BF4D1800085318000821
:10182800591800085F180008651800086B180008A8
:1018380071180008771800087D1800088318000838
:1018480089180008FFF746FE1EE0FFF771FE1BE04F
:10185800FFF782FE18E0FFF791FE15E0FFF7B8FEEC
:1018680012E0FFF7BBFE0FE0FFF7BEFE0CE0FFF74C
:10187800E7FE09E0FFF732FF06E0FFF757FF03E056
:10188800FFF780FF00E000BF0837BD4680BD00BFFE
:1018980080B59CB000AF786039600023FB660023F8
:1018A800BB6600237B667B681B6823F001027B68AC
:1018B8001A607B685B687B667B6E23F440537B66AB
:1018C8003B689B687A6E13437B667B687A6E5A60C6
:1018D8007B681B687B667B6E23F4B05323F00C0394
:1018E8007B663B685A683B68DB681A433B681B6940
:1018F80013437A6E13437B667B687A6E1A607B6843
:101908009B687B667B6E23F440737B663B685B69F0
:101918007A6E13437B667B687A6E9A6007F10803D8
:10192800184600F08BFD7A68324B9A4202D13B6C24
:10193800BB6616E07A68304B9A4202D17B6CBB6674
:101948000FE07A682D4B9A4202D1BB6CBB6608E067
:101958007A682B4B9A4202D1FB6CBB6601E03B6D67
:10196800BB667B681B6803F40043002B11D0BB6E79
:101978005A003B681B68B2FBF3F3FB66BB6E5B0067
:101988003A681268B3FBF2F102FB01F29B1A7B661C
:101998000EE03B681B68BA6EB2FBF3F3FB663B686C
:1019A8001A68BB6EB3FBF2F102FB01F29B1A7B666D
:1019B8003B681B685A087B6E9A4202D8FB6E01335B
:1019C800FB667B681B6803F40043002B0BD0FB6E9F
:1019D80003F00F035B087B66FA6E4FF6F073134053
:1019E8007A6E1343FB66FB6E9AB27B689A817037F6
:1019F800BD4680BD0038014000440040004800401A
:101A0800004C004080B483B000AF78607B684FF42E
:101A180016521A607B6800225A607B6800229A601E
:101A28007B680022DA607B680C221A617B680022DE
:101A38005A610C37BD465DF8047B704780B483B0AB
:101A480000AF78600B46FB70FB78002B06D07B68F4
:101A58001B6843F001027B681A6005E07B681B681D
:101A680023F001027B681A600C37BD465DF8047BE1
:101A7800704700BF80B483B000AF78600B467B80AE
:101A88007B88C3F308039AB27B681A850C37BD4676
:101A98005DF8047B704700BF80B489B000AFF86080
:101AA800B9601346FB710023BB6100237B610023EF
:101AB8003B610023FB61FB68FB61BB689BB21B0AAF
:101AC8009BB2BB61BB68DBB27B617B69012202FA16
:101AD80003F33B61BB69022B03D1FB690433FB6150
:101AE80005E0BB69032B02D1FB690833FB61FB7975
:101AF800002B06D0FB69FA6911683A690A431A6033
:101B080006E0FB69FA6911683A69D2430A401A602B
:101B18002437BD465DF8047B704700BF80B485B0AC
:101B280000AF786039600023FB737B68DA693B6833
:101B38001340002B02D00123FB7301E00023FB7349
:101B4800FB7B18461437BD465DF8047B704700BF21
:101B580080B485B000AF786039600023FB817B6872
:101B68001B88FB817A68304B9A4213D07A682F4BD6
:101B78009A420FD07B68B3F1804F0BD07A682C4B18
:101B88009A4207D07A682B4B9A4203D07A682A4B3C
:101B98009A4208D1FB8923F07003FB813B685A887D
:101BA800FB891343FB817A68244B9A420CD07A68EC
:101BB800234B9A4208D0FB8923F44073FB813B688E
:101BC8001A89FB891343FB817B68FA891A803B6871
:101BD8005A687B68DA623B681A887B681A857A6873
:101BE800114B9A4213D07A68104B9A420FD07A68F8
:101BF800144B9A420BD07A68134B9A4207D07A68F2
:101C0800124B9A4203D07A680B4B9A4203D13B6835
:101C18005A897B681A867B6801225A611437BD4647
:101C28005DF8047B704700BF002C01400034014080
:101C3800000400400008004000500140001000402F
:101C480000140040004001400044014000480140A9
:101C580080B483B000AF786013460A467A803B8030
:101C68007B687A881A853A887B685A610C37BD4642
:101C78005DF8047B704700BF80B483B000AF786024
:101C88000B46FB70FB78002B08D07B681B889BB247
:101C980043F001039AB27B681A8007E07B681B88CF
:101CA8009BB223F001039AB27B681A800C37BD46B9
:101CB8005DF8047B704700BF80B487B000AF7860E0
:101CC80039600023FB6000237B6100233B617B6854
:101CD8001B6A23F001027B681A627B681B6A7B61BE
:101CE8007B685B683B617B689B69FB60FB6823F4EE
:101CF800803323F07003FB60FB6823F00303FB6071
:101D08003B681B68FA681343FB607B6923F0020396
:101D18007B613B689B897A6913437B613B689B883D
:101D28007A6913437B617A68244B9A420FD07A68A8
:101D3800234B9A420BD07A68224B9A4207D07A6892
:101D4800214B9A4203D07A68204B9A4223D17B696F
:101D580023F008037B613B68DB897A6913437B6165
:101D68007B6923F004037B613B68DB887A69134352
:101D78007B613B6923F480733B613B6923F4007307
:101D88003B613B681B8A3A6913433B613B685B8A4A
:101D98003A6913433B617B683A695A607B68FA6821
:101DA8009A613B689A687B685A637B687A691A62A9
:101DB8001C37BD465DF8047B704700BF002C01400E
:101DC8000034014000400140004401400048014007
:101DD80080B487B000AF786039600023FB600023CF
:101DE8007B6100233B617B681B6A23F010027B68E0
:101DF8001A627B681B6A7B617B685B683B617B68F6
:101E08009B69FB60FB6823F0807323F4E043FB606D
:101E1800FB6823F44073FB603B681B681B02FA688D
:101E28001343FB607B6923F020037B613B689B893C
:101E38001B017A6913437B613B689B881B017A69A4
:101E480013437B617A68204B9A4203D07A681F4B10
:101E58009A4227D17B6923F080037B613B68DB8949
:101E68001B017A6913437B617B6923F040037B6123
:101E78003B68DB881B017A6913437B613B6923F468
:101E880080633B613B6923F400633B613B681B8AC9
:101E98009B003A6913433B613B685B8A9B003A6944
:101EA80013433B617B683A695A607B68FA689A61B8
:101EB8003B689A687B689A637B687A691A621C3700
:101EC800BD465DF8047B7047002C0140003401409A
:101ED80080B487B000AF786039600023FB600023CE
:101EE8007B6100233B617B681B6A23F480727B68FB
:101EF8001A627B681B6A7B617B685B683B617B68F5
:101F0800DB69FB60FB6823F07003FB60FB6823F070
:101F18000303FB603B681B68FA681343FB607B693B
:101F280023F400737B613B689B891B027A69134326
:101F38007B613B689B881B027A6913437B617A68E3
:101F4800204B9A4203D07A681F4B9A4227D17B696B
:101F580023F400637B613B68DB891B027A691343C6
:101F68007B617B6923F480637B613B68DB881B02B0
:101F78007A6913437B613B6923F480533B613B6976
:101F880023F400533B613B681B8A1B013A691343E6
:101F98003B613B685B8A1B013A6913433B617B6881
:101FA8003A695A607B68FA68DA613B689A687B68C4
:101FB800DA637B687A691A621C37BD465DF8047B70
:101FC800704700BF002C01400034014080B487B046
:101FD80000AF7860396000233B610023FB60002379
:101FE8007B617B681B6A23F480527B681A627B687A
:101FF8001B6AFB607B685B687B617B68DB693B61B4
:102008003B6923F4E0433B613B6923F440733B6144
:102018003B681B681B023A6913433B61FB6823F466
:102028000053FB603B689B891B03FA681343FB6002
:102038003B689B881B03FA681343FB607A68114B63
:102048009A4203D07A68104B9A4209D17B6923F4EB
:1020580080437B613B681B8A9B017A6913437B61E0
:102068007B687A695A607B683A69DA613B689A6882
:102078007B681A647B68FA681A621C37BD465DF88B
:10208800047B7047002C01400034014080B485B0C7
:1020980000AF78600B467B800023FB607B689B6900
:1020A800FB60FB6823F00803FB607B88FA68134336
:1020B800FB607B68FA689A611437BD465DF8047B5B
:1020C800704700BF80B485B000AF78600B467B8056
:1020D8000023FB607B689B69FB60FB6823F400635B
:1020E800FB607B881B02FA681343FB607B68FA6815
:1020F8009A611437BD465DF8047B704780B485B09B
:1021080000AF78600B467B800023FB607B68DB694F
:10211800FB60FB6823F00803FB607B88FA681343C5
:10212800FB607B68FA68DA611437BD465DF8047BAA
:10213800704700BF80B485B000AF78600B467B80E5
:102148000023FB607B68DB69FB60FB6823F40063AA
:10215800FB607B881B02FA681343FB607B68FA68A4
:10216800DA611437BD465DF8047B704780B483B0EC
:1021780000AF78600B46FB70FB78002B06D07B68BD
:102188005B6C43F400427B685A6405E07B685B6CD7
:10219800C3F30E027B685A640C37BD465DF8047BB6
:1021A800704700BF80B483B000AF786013460A461A
:1021B8007A807B707B78002B06D07B68DA687B8816
:1021C8001A437B68DA6007E07B68DA687B88DB4360
:1021D8009BB21A407B68DA600C37BD465DF8047B19
:1021E800704700BF80B485B000AF78600B467B8035
:1021F8000023FB730023BB8100237B817B681B6961
:102208009AB27B881340BB817B68DB689AB27B8873
:1022180013407B81BB89002B05D07B89002B02D022
:102228000123FB7301E00023FB73FB7B1846143783
:10223800BD465DF8047B704780B483B000AF78601A
:102248000B467B807B88DB439BB21A467B681A610E
:102258000C37BD465DF8047B704700BF80B487B07B
:1022680000AFF86079813A81FB800023FB8200236C
:10227800BB8200237B82FB689B68FB82FB689B69AF
:10228800BB82FB681B6A7B82FB8A23F00703FB8205
:10229800FA8A7B891343FB82BB8A23F4407323F0B9
:1022A8000303BB82BB8A43F4807343F00103BB8200
:1022B8007B8A23F022037B82FB881B019AB23B892D
:1022C80013439AB27B8A13437B82FA8AFB689A602B
:1022D800BA8AFB689A617A8AFB681A621C37BD461B
:1022E8005DF8047B704700BF80B483B000AF03463D
:1022F800FB71044BFA791A600C37BD465DF8047B14
:10230800704700BF0000424280B483B000AF7860DD
:102318003960094B084A526822F474125A60064B15
:10232800054A516878683A6802430A435A600C378C
:10233800BD465DF8047B70470010024080B483B04E
:1023480000AF0346FB71044BFA791A600C37BD469F
:102358005DF8047B704700BF6000424280B485B0DE
:1023680000AF78600023FB60094B5B68FB60FB688B
:1023780023F00303FB60FA687B681343FB60044B9C
:10238800FA685A601437BD465DF8047B704700BF91
:102398000010024080B485B000AF78600023FB6075
:1023A800094B5B68FB60FB6823F0F003FB60FA688D
:1023B8007B681343FB60044BFA685A601437BD46C8
:1023C8005DF8047B704700BF0010024080B485B000
:1023D80000AF78600023FB60094B5B68FB60FB681B
:1023E80023F4E063FB60FA687B681343FB60044BEB
:1023F800FA685A601437BD465DF8047B704700BF21
:102408000010024080B485B000AF78600023FB6004
:10241800094B5B68FB60FB6823F46053FB607B68D7
:10242800DB00FA681343FB60034BFA685A60143701
:10243800BD465DF8047B70470010024080B48DB043
:1024480000AF78600023BB6200237B6200233B62FD
:102458000023FB610023BB610023FB6200237B6137
:1024680000233B61904B5B6803F00C03BB62BB6AC3
:10247800042B07D0082B09D0002B30D17B688B4A5E
:102488001A6030E07B68894A1A602CE0864B5B68EA
:1024980003F470137B62844B5B6803F480333B6204
:1024A8007B6A9B0C02337B623B6A002B05D17B6AFB
:1024B8007F4A02FB03F3FB620DE07B4BDB6A03F010
:1024C8000F030133FB61794AFB69B2FBF3F37A6AC4
:1024D80002FB03F3FB627B68FA6A1A6003E07B681D
:1024E800724A1A6000BF704B5B6803F0F003BB626E
:1024F800BB6A1B09BB626F4ABB6A13441B78DBB219
:102508003B617B681A683B69DA407B685A60664BB6
:102518005B6803F4E063BB62BB6A1B0ABB62654A83
:10252800BB6A13441B78DBB2BB617B685A68BB6922
:10253800DA407B689A605C4B5B6803F46053BB626B
:10254800BB6ADB0ABB625B4ABB6A13441B78DBB21B
:102558007B617B685A687B69DA407B68DA60524B3A
:10256800DB6A03F4F873BB62BB6A1B09BB62BB6A14
:1025780003F00F02504B33F812309BB2BB61BB6AB9
:1025880003F01003002B09D0BB69002B06D0FA6AB0
:10259800BB69B2FBF3F27B681A6103E07B681A68D7
:1025A8007B681A61404BDB6A03F47853BB62BB6AF1
:1025B8005B0ABB62BB6A03F00F023F4B33F8123071
:1025C8009BB2BB61BB6A03F01003002B09D0BB6947
:1025D800002B06D0FA6ABB69B2FBF3F27B685A613A
:1025E80003E07B681A687B685A612F4B1B6B03F00A
:1025F8001003002B03D17B682C4A9A6103E07B68A7
:102608001A687B689A61284B1B6B03F02003002B28
:1026180003D17B68254ADA6103E07B681A687B6826
:10262800DA61214B1B6B03F04003002B03D17B685D
:102638001E4A1A6203E07B681A687B681A621A4BA2
:102648001B6B03F48073002B0DD07B681A68FB6A40
:102658009A4208D17A693B699A4204D1FB6A5A00C6
:102668007B685A6203E07B68DA687B685A620023F9
:10267800FB60104ABB6A13441B78DBB2FB600A4B51
:102688001B6B03F08073002B18D07B681A68FB6AF9
:102698009A4213D1FA683B699A420FD1FB6A5A00F1
:1026A8007B681A630EE000BF0010024000127A0037
:1026B80000093D0008000020180000207B689A6887
:1026C8007B681A63904B1B6B03F00073002B0DD0D3
:1026D8007B681A68FB6A9A4208D1FA683B699A4291
:1026E80004D1FB6A5A007B685A6303E07B689A68E6
:1026F8007B685A63844B1B6B03F48053002B0DD00B
:102708007B681A68FB6A9A4208D17A693B699A42DF
:1027180004D1FB6A5A007B689A6203E07B68DA6836
:102728007B689A62784B1B6B03F40073002B0DD007
:102738007B681A68FB6A9A4208D17A693B699A42AF
:1027480004D1FB6A5A007B68DA6203E07B68DA68C6
:102758007B68DA626C4B1B6B03F48063002B0DD033
:102768007B681A68FB6A9A4208D17A693B699A427F
:1027780004D1FB6A5A007B68DA6403E07B68DA6894
:102788007B68DA64604B1B6B03F40063002B0DD08D
:102798007B681A68FB6A9A4208D17A693B699A424F
:1027A80004D1FB6A5A007B681A6503E07B68DA6823
:1027B8007B681A65544B1B6B03F40053002B0DD038
:1027C8007B681A68FB6A9A4208D17A693B699A421F
:1027D80004D1FB6A5A007B685A6503E07B68DA68B3
:1027E8007B681A65484B1B6B03F40043002B0DD024
:1027F8007B681A68FB6A9A4208D17A693B699A42EF
:1028080004D1FB6A5A007B689A6503E07B68DA6842
:102818007B689A653C4B1B6B03F00303002B04D1C8
:102828007B68DA687B689A631EE0374B1B6B03F0A2
:102838000303012B04D17B681A687B689A6313E051
:10284800314B1B6B03F00303022B04D17B684FF45D
:1028580000429A6308E02C4B1B6B03F00303032B25
:1028680002D17B68294A9A63274B1B6B03F44033D8
:10287800002B04D17B689A687B68DA6321E0224BDD
:102888001B6B03F44033B3F5803F04D17B681A68AF
:102898007B68DA6315E01C4B1B6B03F44033B3F51C
:1028A800003F04D17B684FF40042DA6309E0164B1D
:1028B8001B6B03F44033B3F5403F02D17B68134AE6
:1028C800DA63114B1B6B03F44023002B04D17B68A4
:1028D8009A687B681A6425E00B4B1B6B03F4402352
:1028E800B3F5802F04D17B681A687B681A6419E0F5
:1028F800054B1B6B03F44023B3F5002F08D17B680D
:102908004FF400421A640DE00010024000127A00F1
:10291800344B1B6B03F44023B3F5402F02D17B6883
:10292800314A1A642F4B1B6B03F44013002B04D15C
:102938007B689A687B685A6421E02A4B1B6B03F416
:102948004013B3F5801F04D17B681A687B685A640A
:1029580015E0244B1B6B03F44013B3F5001F04D19F
:102968007B684FF400425A6409E01E4B1B6B03F46A
:102978004013B3F5401F02D17B681B4A5A64194BB8
:102988001B6B03F44003002B04D17B689A687B68B7
:102998009A6421E0134B1B6B03F44003B3F5800FDB
:1029A80004D17B681A687B689A6415E00D4B1B6B31
:1029B80003F44003B3F5000F04D17B684FF40042E1
:1029C8009A6409E0074B1B6B03F44003B3F5400F0F
:1029D80002D17B68044A9A643437BD465DF8047BAB
:1029E800704700BF0010024000127A0080B483B024
:1029F80000AF78600B46FB70FB78002B06D0094BC4
:102A0800084A51697A680A435A6106E0054B054A43
:102A180051697A68D2430A405A610C37BD465DF85D
:102A2800047B70470010024080B483B000AF786028
:102A38000B46FB70FB78002B06D0094B084A9169BE
:102A48007A680A439A6106E0054B054A91697A68F3
:102A5800D2430A409A610C37BD465DF8047B704743
:102A68000010024080B483B000AF78600B46FB7062
:102A7800FB78002B06D0094B084AD1697A680A43CB
:102A8800DA6106E0054B054AD1697A68D2430A4003
:102A9800DA610C37BD465DF8047B704700100240D0
:102AA80080B483B000AF7860054A7B6843F0BF63A9
:102AB80043F40033D3600C37BD465DF8047B7047A0
:102AC80000ED00E080B487B000AF786000237B6140
:102AD80000233B610F23FB607B68DB78002B38D039
:102AE800264BDB68DB4303F4E0631B0A7B617B69ED
:102AF800C3F104033B617B69FA6822FA03F3FB60C4
:102B08007B685B781A463B6902FA03F37B617B6852
:102B18009B781A46FB6813407A6913437B617B698B
:102B28001B017B6116497B681B787A69D2B20B441A
:102B380083F80023124B7A6812785209D2B2796866
:102B4800097801F01F01012000FA01F143F8221071
:102B58000EE00B4B7A6812785209D2B2796809787C
:102B680001F01F01012000FA01F1203243F8221080
:102B78001C37BD465DF8047B704700BF00ED00E0E0
:102B880000E100E080B483B000AF78607B68042B7C
:102B980006D1094B084A126842F004021A6005E09F
:102BA800054B054A126822F004021A600C37BD462C
:102BB8005DF8047B704700BF10E000E080B485B08A
:102BC80000AF786039600023FB607B681B6823F0E6
:102BD80001027B681A607B681B68FB60FA68284BF7
:102BE8001340FB603B685A683B689B681B021343B1
:102BF800FA681343FB607B68FA681A603B681B68D5
:102C080023F070627B681A617B681B6843F00102DD
:102C18007B681A600023FB607B68FA689A607B68AF
:102C2800FA68DA603B689A693B681B691343FB6082
:102C38007B68FA689A607B689B6843F400427B680B
:102C48009A603B68DB68FB607B681A68FB681A431C
:102C58007B681A607B685B68FB60FB6823F07843DD
:102C680023F40043FB603B685B69FA681343FB602D
:102C78007B68FA685A601437BD465DF8047B704774
:102C8800FFE0CF0080B483B000AF78600B46FB70E4
:102C9800FB78002B06D07B681B6843F001027B6839
:102CA8001A6005E07B681B6823F001027B681A60E4
:102CB8000C37BD465DF8047B704700BF80B485B013
:102CC80000AF78600B467B800023FB607B685B6805
:102CD800FB60FB6823F47F7323F00303FB607B88AE
:102CE800C3F30903FA681343FB607B68FA685A6008
:102CF8001437BD465DF8047B704700BF80B487B0C9
:102D080000AFF8607B600B467B8113467B72002323
:102D18007B61FB685B687B617A690D4B13407B6163
:102D28007B89C3F309027B7A1B0403F47F031A43EC
:102D38007B681A433B6A13437A6913437B61FB68D8
:102D48007A695A601C37BD465DF8047B704700BF3E
:102D5800009800FC80B483B000AF78600B46FB702D
:102D6800FA787B689A620C37BD465DF8047B704739
:102D780080B483B000AF78607B685B6ADBB21846CA
:102D88000C37BD465DF8047B704700BF80B485B042
:102D980000AF786039600023BB600023FB737B6859
:102DA8009B69BB60BA683B681340BB60BB68002B7B
:102DB80002D00123FB7301E00023FB73FB7B184661
:102DC8001437BD465DF8047B704700BF80B483B0FC
:102DD80000AF786039607B683A68DA610C37BD46C5
:102DE8005DF8047B704700BF80B487B000AF78609F
:102DF800396000237B6100233B610023FB600023D3
:102E0800BB6000237B617EE07B69012202FA03F349
:102E18003B613B681A683B691340FB60FA683B6991
:102E28009A426DD13B681B79012B03D03B681B7913
:102E3800022B34D17B689A687B695B00032101FA15
:102E480003F3DB431A407B689A607B689A683B68A7
:102E58005B7919467B695B0001FA03F31A437B68C7
:102E68009A607B689B889AB27B699BB2012101FAC0
:102E780003F39BB2DB439BB213409AB27B689A8000
:102E88007B689B889AB23B689B7919467B699BB2A1
:102E980001FA03F39BB213439AB27B689A807B686A
:102EA8001A687B695B00032101FA03F3DB431A40CC
:102EB8007B681A607B681A683B681B7919467B69CE
:102EC8005B0001FA03F31A437B681A607B68DB68CE
:102ED800BB607B699BB25B00032202FA03F3DB430E
:102EE800BA681340BB603B68DB791A467B695B00B4
:102EF80002FA03F3BA681343BB607B68BA68DA6006
:102F08007B6901337B617B690F2B7FF67DAF1C37B3
:102F1800BD465DF8047B704780B485B000AF78602B
:102F28000B467B800023FB737B689B8A9AB27B8865
:102F380013409BB2002B02D00123FB7301E0002356
:102F4800FB73FB7B18461437BD465DF8047B70475E
:102F580080B483B000AF78600B467B807A887B684A
:102F68009A610C37BD465DF8047B704780B483B026
:102F780000AF78600B467B807B687A881A850C37AF
:102F8800BD465DF8047B704780B485B000AF7860BB
:102F980013460A467A807B700023FB600023BB60DF
:102FA8007A787B8803F007039B0002FA03F3FB603F
:102FB8007B88DB089BB21A467B88DB089BB21946E4
:102FC8007B68083153F821107B8803F007039B00C6
:102FD8000F2000FA03F3DB4319407B68083243F8FB
:102FE80022107B88DB089BB21A467B68083253F8AC
:102FF8002220FB681343BB607B88DB089BB21A4620
:103008007B680832B96843F822101437BD465DF86A
:10301800047B704780B400AF194B4FF000021A6070
:10302800174B4FF000025A60154B164A9A60144B22
:10303800154ADA61124B154A1A62114B4FF0000219
:10304800DA600F4B4FF000021A610D4B4FF000028F
:103058005A610B4B4FF000029A61094B0C4A5A62B5
:10306800074B4FF000029A62054B4FF00002DA62FC
:10307800034B074A1A63BD465DF8047B704700BFDF
:103088005C0000206F12033D9CF9D53BADA3DA3EEE
:103098000000204180B483B000AF87ED010AC7ED7E
:1030A800000A7F4B93ED007A7D4BD3ED026A7C4B8F
:1030B800D3ED017A97ED006A76EE677A66EEA77A25
:1030C80077EE277A764BC3ED007A754B93ED097A44
:1030D800734BD3ED026A724B93ED026A704BD3EDDA
:1030E8000C7A26EE276A6E4BD3ED0A7A36EE676ABB
:1030F8006B4BD3ED0B7A36EE676A694BD3ED077AE3
:1031080076EE277A66EEA77A77EE277A644BC3EDD8
:10311800097A634B93ED0A7A614BD3ED026A604BEF
:10312800D3ED0C7A66EEA77A77EE677A5C4BC3ED3F
:103138000A7A5B4B93ED0B7A594BD3ED026A584BE5
:10314800D3ED0C7A66EEA77A77EE677A544BC3ED27
:103158000B7A534B93ED0C7A514BD3ED026A504BDB
:10316800D3ED077A66EEA77A77EE277A4C4BC3ED54
:103178000C7A4B4BD3ED007A97ED017A77EE677AAC
:10318800474BC3ED037A464B93ED097A444BD3ED95
:10319800087A77EE277A424BC3ED047A404B93EDD9
:1031A800097A3F4BD3ED047AC7EE277A3C4BC3ED3F
:1031B800057A3B4B93ED0B7A394BD3ED047AC7EE86
:1031C800277A374BC3ED067A354B93ED007A344BAB
:1031D800D3ED056A324BD3ED037A66EEA77A77EE24
:1031E800277A2F4BC3ED007A2D4B93ED017A2C4BA8
:1031F800D3ED066A2A4BD3ED037A66EEA77A77EE0B
:10320800277A274BC3ED017A254B93ED0C7A244B93
:10321800D3ED066A224BD3ED0A7A66EEA77A77EEEB
:10322800677A1F4BC3ED0C7A1D4B93ED0B7A1C4B41
:10323800D3ED066A1A4BD3ED097A66EEA77A77EED4
:10324800677A174BC3ED0B7A154B93ED0A7A144B3B
:10325800D3ED056A124BD3ED0A7A66EEA77A77EEBC
:10326800677A0F4BC3ED0A7A0D4B93ED097A0C4B35
:10327800D3ED056A0A4BD3ED097A66EEA77A77EEA5
:10328800677A074BC3ED097A054B1B6807EE903A3E
:10329800B0EE670A0C37BD465DF8047B704700BF87
:1032A8005C00002080B483B000AF0346FB80044B71
:1032B800FA885A630C37BD465DF8047B704700BF37
:1032C8000004004080B483B000AF0346FB80044B89
:1032D800FA889A630C37BD465DF8047B704700BFD7
:1032E8000004004080B483B000AF0346FB80044B69
:1032F800FA88DA630C37BD465DF8047B704700BF77
:103308000004004080B483B000AF0346FB80044B48
:10331800FA881A640C37BD465DF8047B704700BF15
:103328000004004080B500AF0A20FDF793FF0A2093
:10333800FEF764F80548FDF703FE4FF08040FDF7FF
:10334800FFFD0A20FEF75CFA80BD00BF00080040C0
:1033580080B500AF0720FDF77DFF0348FDF7F0FDBE
:103368000720FEF74DFA80BD002C014080B500AF64
:103378000820FDF76FFF0348FDF7E2FD0820FEF780
:103388003FFA80BD0004004080B483B000AF13460C
:103398000246FA710A46BA80BB71BB88B3F57A7FD8
:1033A8000DD8FB79002B02D0012B04D007E0064B87
:1033B800BA885A6303E0044BBA889A6300BF0C3793
:1033C800BD465DF8047B7047002C014080B582B093
:1033D80000AF034687ED000AFB7197ED007ADFED39
:1033E8002E7AB4EEE77AF1EE10FA01D52B4B3B605A
:1033F80097ED007ADFED2A7AB4EEE77AF1EE10FA6B
:1034080001DD284B3B60D7ED007A37EEA77ADFED78
:10341800267A77EE277AC7ED007AFB79032B37D81F
:1034280001A252F823F000BF4134000857340008C5
:103438006D34000883340008D7ED007AFCEEE77A93
:1034480017EE903A9BB21846FFF72CFF21E0D7ED14
:10345800007AFCEEE77A17EE903A9BB21846FFF72F
:1034680031FF16E0D7ED007AFCEEE77A17EE903AD6
:103478009BB21846FFF736FF0BE0D7ED007AFCEE5B
:10348800E77A17EE903A9BB21846FFF73BFF00E049
:1034980000BF0837BD4680BD0000B4C20000B4C2FA
:1034A8000000B4420000B4420000074480B582B076
:1034B80000AF0023FB71012000F04EF80346FB71BA
:1034C800102000F00DF80346FB71082000F026F8E4
:1034D8000346FB71FB7918460837BD4680BD00BF1F
:1034E80080B584B000AF0346FB710023FB73FB7902
:1034F80007EE103AF8EE477A074BC3ED007AFB1D4A
:10350800D0201B211A4600F0FDF90346FB73FB7B14
:1035180018461037BD4680BD9400002080B584B0A1
:1035280000AF0346FB710023FB73FB7907EE103AEB
:10353800F8EE477A074BC3ED017AFB1DD0201C211A
:103548001A4600F0DFF90346FB73FB7B1846103779
:10355800BD4680BD9400002080B584B000AF03460E
:10356800FB710023FB73FB1DD0206B211A4600F072
:10357800C9F90346FB73FB7B18461037BD4680BD6F
:1035880080B586B000AF78600023FB7507F11103A2
:10359800D0203E211A46012300F0FEF80346FB75B1
:1035A80007F11003D0203D211A46012300F0F4F85A
:1035B8000346FB7507F10F03D02040211A4601236B
:1035C80000F0EAF80346FB7507F10E03D0203F210F
:1035D8001A46012300F0E0F80346FB753B7C1B020A
:1035E8009AB27B7C1343BB82BB7B1B029AB2FB7BE8
:1035F80013437B82B7F9143006EE903AB8EEE67AB8
:10360800B7F9123006EE903AF8EEE67AC7EE277A66
:10361800B0EE670A00F046FB10EE103A1846FCF7C9
:103628003BFF02460B46104619464FF00002344B4A
:10363800FCF786FF02460B46104619462EA3D3E92F
:103648000023FDF7A7F802460B4610461946FDF77A
:1036580089F902462B4B1A60B7F91430002B07DAA8
:10366800284BD3ED007AF5EEC07AF1EE10FA0BD4C0
:10367800B7F91430002B0CDD224BD3ED007AF5EEB0
:10368800C07AF1EE10FA04DD1E4B1A687B681A60E6
:103698002CE0B7F91430002B12DD1A4BD3ED007A69
:1036A800F5EEC07AF1EE10FA0AD5164B93ED007AD2
:1036B800DFED157A77EE277A7B68C3ED007A15E09F
:1036C800B7F91430002B11DA0E4BD3ED007AF5EE72
:1036D800C07AF1EE10FA09DD0A4B93ED007ADFEDBE
:1036E8000A7A77EE677A7B68C3ED007AFB7D184625
:1036F8001837BD4680BD00BF182D4454FB21094032
:10370800008066409000002000003443AFF3008042
:1037180080B584B000AF78600023FB7307F10B031A
:10372800D02044211A46012300F036F80346FB73E3
:1037380007F10A03D02043211A46012300F02CF890
:103748000346FB73BB7A1B029AB2FB7A1343BB8115
:10375800B7F90C3006EE903AB8EEE67A0B4B1B88B8
:1037680006EE903AF8EEE67A27EE277ADFED087A49
:1037780087EE277ADFED077A77EE277A7B68C3ED45
:10378800007AFB7B18461037BD4680BD3C00002000
:10379800000000471231D93F80B584B002AF3A60CB
:1037A8000246FA710A46BA71BB80544B4FF4204264
:1037B8001A6008E0514B1B68591E504A1160002BD3
:1037C80001D1032396E04E484FF40041FFF7DEFA9B
:1037D8000346002BEED1FB799BB24FF400520092C6
:1037E8004748194601220023FFF788FA434B4FF454
:1037F80020421A6008E0414B1B68591E3F4A11607D
:10380800002B01D1032375E03D480221FFF7BEFAE2
:103818000346002BEFD0BB88012B03D9BB7963F09B
:103828007F03BB71BB7936481946FFF793FA334BD0
:103838004FF420421A6008E0304B1B68591E2F4A8B
:103848001160002B01D1012354E02D484021FFF7DE
:103858009DFA0346002BEFD0FB799AB2BB88DBB206
:103868004FF410510091264811461A464FF0007344
:10387800FFF744FA21E0214B4FF420421A6008E098
:103888001E4B1B68591E1D4A1160002B01D10223D3
:1038980030E01B480421FFF779FA0346002BEFD0EC
:1038A8001748FFF765FA03461A463B681A703B68E3
:1038B80001333B60BB88013BBB80BB88002BDAD15E
:1038C8000E4B4FF420421A6008E00C4B1B68591E3F
:1038D8000A4A1160002B01D103230BE0084820217C
:1038E800FFF754FA0346002BEFD005482021FFF7D5
:1038F8006DFA002318460837BD4680BD3800002001
:103908000078004080B584B002AF0B463A600246AA
:10391800FA71BB714A4B4FF420421A6008E0484BD9
:103928001B68591E464A1160002B01D1002382E012
:1039380044484FF40041FFF729FA0346002BEED123
:10394800FB799BB24FF4005200923E48194601227F
:103958004FF08073FFF7D2F9394B4FF420421A60C9
:1039680008E0374B1B68591E354A1160002B01D1FE
:10397800002360E033480221FFF708FA0346002BD2
:10398800EFD0BB792F481946FFF7E4F92C4B4FF4D9
:1039980020421A6008E02A4B1B68591E284A116009
:1039A800002B01D1002346E026488021FFF7EEF9DD
:1039B8000346002BEFD0FB799BB2002200922148EE
:1039C800194601224FF00073FFF798F91C4B4FF48A
:1039D80020421A6008E01A4B1B68591E184A1160E9
:1039E800002B01D1002326E016480221FFF7CEF96B
:1039F8000346002BEFD03B681B7812481946FFF7A7
:103A0800A9F90F4B4FF420421A6008E00C4B1B68D1
:103A1800591E0B4A1160002B01D100230BE0094805
:103A28002021FFF7B3F90346002BEFD005482021EA
:103A3800FFF7CCF9002318460837BD4680BD00BF04
:103A4800380000200078004080B582B000AF062022
:103A5800FDF700FCFDF71AFD0620FDF7D1FEFFF784
:103A680025FD0346FB71FB7918460837BD4680BD26
:103A780080B500AF0B48FFF783FD0B48FFF748FE02
:103A8800084B93ED007A074BD3ED017AB0EE470A65
:103A9800F0EE670AFFF7FEFAF0EE407A014BC3ED4D
:103AA800027A80BD9C000020A000002080B500AFF5
:103AB8000220FDF7CFFB0220FDF7A2FE80BD00BF6C
:103AC80080B500AF0F4B0F4AD2F8882042F470023D
:103AD800C3F888200120FEF707FC00204FF480116E
:103AE800FEF712FC0220FEF739FC0120FEF726FC47
:103AF8000020FEF74FFC0020FEF768FC0020FEF7D0
:103B080081FC80BD00ED00E080B500AF0320FDF72B
:103B1800A1FB0348FDF776F80320FDF771FE80BD91
:103B28000044004080B582B000AF0346FB8000BF70
:103B38000F488021FDF7F2FF0346002BF8D0FB88E1
:103B48001B0A9BB20A481946FDF794FF00BF0848B4
:103B58008021FDF7E3FF0346002BF8D0FB88DBB29A
:103B68009BB203481946FDF785FF0837BD4680BD5F
:103B78000044004080B582B000AF786000BF2148A3
:103B88008021FDF7CBFF0346002BF8D07B681B0E86
:103B98009BB21C481946FDF76DFF00BF19488021EC
:103BA800FDF7BCFF0346002BF8D07B681B149BB2C3
:103BB800DBB29BB213481946FDF75CFF00BF114802
:103BC8008021FDF7ABFF0346002BF8D07B681B1262
:103BD8009BB2DBB29BB20B481946FDF74BFF00BF07
:103BE80008488021FDF79AFF0346002BF8D07B6830
:103BF8009BB2DBB29BB203481946FDF73BFF08377F
:103C0800BD4680BD0044004080B500AF4FF0FF3096
:103C1800FFF788FF0E4B93ED007ADFED0E7A67EE23
:103C2800277AFDEEE77A17EE903A1846FFF7A2FFDB
:103C3800074B93ED027ADFED077A67EE277AFDEE00
:103C4800E77A17EE903A1846FFF794FF80BD00BF59
:103C58009C00002000007A4470B50E4B0E4DED1A02
:103C6800AD1000241E46AC4204D056F824209047DC
:103C78000134F8E700F0F6F8084D094BED1AAD10DD
:103C880000241E46AC4204D056F824209047013444
:103C9800F8E770BDA43E0008A43E0008A83E00084E
:103CA800A43E000838B510EE105A25F00044B4F1CF
:103CB800A14FF0EE407A10DBB4F1FF4F02DD30EE99
:103CC800000A38BDDFED507A9FED507A002DCCBF49
:103CD800B0EE670AB0EE470A38BD4D4B9C420FDC88
:103CE800B4F1445F40DADFED4B6A70EE266AB7EE56
:103CF800007AF4EEC76AF1EE10FA00F3828033E03E
:103D080000F0A8F8444B9C4219DCA3F5D0039C4270
:103D18000BDCF0EE007ABFEE007AA0EE277A0023E3
:103D280070EE277AC7EE277A20E0B7EE007A70EEB9
:103D3800477A30EE070A0123C7EE807A16E0374B40
:103D48009C420BDCB7EE087AF7EE007AE0EE077AD1
:103D5800022370EE476AC6EEA77A07E0FFEE007A04
:103D6800C7EE807A032301E04FF0FF3327EEA76AFE
:103D7800DFED2B5ADFED2B6A9FED2B5A26EE067AE4
:103D88005A1CE7EE256ADFED295AE7EE265ADFEDE1
:103D9800286AE7EE256ADFED275AE7EE265ADFEDB7
:103DA800266AE7EE256ADFED255AA7EE255ADFEDEC
:103DB800245AE7EE055A9FED235AA7EE255ADFED60
:103DC800225AE7EE055A27EE257A06EE267A04D11E
:103DD800B0EE670AA7EEC70A38BD1C4A1C499B000B
:103DE8001A440B44D3ED006AD7EE876A002D76EEAD
:103DF800E77AD2ED006A76EEE77A02DAB1EE670A80
:103E080038BDB0EE670A38BDDB0FC93FDB0FC9BF4D
:103E1800FFFFDF3ECAF24971FFFF973FFFFF1B40DC
:103E2800D769853C59DA4B3D6BF16EBD356B883DE2
:103E38006E2EBA3D2549123EABAAAA3E21A215BD57
:103E480095879DBD388EE3BDCDCC4CBE943E000811
:103E5800843E000810EE102A22F0004300EE103ACB
:103E680070470000F8B500BFF8BC08BC9E46704714
:0C3E7800F8B500BFF8BC08BC9E467047BF
:103E84006937AC3168212233B40F14336821A2336B
:103E94003863ED3EDA0F493F5E987B3FDA0FC93F46
:043EA400BD01000854
:043EA8009901000874
:103EAC0000A24A047D00000000000000010203048F
:103EBC0001020304060708090100020004000600C1
:103ECC0008000A000C0010002000400080000001D7
:103EDC00000000000000000000100000E8030000DB
:0400000508000B7D67
:00000001FF
