:020000040800F2
:10000000000001207D0B0008D90B0008D90B000867
:10001000D90B0008D90B0008D90B0008000000001C
:10002000000000000000000000000000D90B0008E4
:10003000D90B000800000000D90B0008A90D00082A
:10004000D90B0008D90B0008D90B0008D90B000800
:10005000D90B0008D90B0008D90B0008D90B0008F0
:10006000D90B0008D90B0008D90B0008D90B0008E0
:10007000D90B0008D90B0008D90B0008D90B0008D0
:10008000D90B0008D90B0008D90B0008D90B0008C0
:10009000D90B0008D90B0008D90B0008D90B0008B0
:1000A000D90B0008D90B0008D90B0008D90B0008A0
:1000B000D90B0008D90B0008D90B0008D90B000890
:1000C000D90B0008D90B0008D90B0008D90B000880
:1000D000D90B0008C90C0008D90C0008E90C00086D
:1000E000D90B0008D90B0008D90B0008D90B000860
:1000F000D90B0008D90B0008D90B0008D90B000850
:10010000D90B00080000000000000000D90B000817
:10011000D90B0008D90B0008D90B0008D90B00082F
:10012000D90B0008D90B0008D90B0008D90B00081F
:10013000D90B0008D90B00080000000000000000E7
:10014000D90B0008D90B0008D90B000800000000EB
:10015000000000000000000000000000000000009F
:10016000D90B0008D90B0008D90B0008D90B0008DF
:10017000D90B0008D90B0008D90B0008D90B0008CF
:10018000D90B0008D90B0008000000000000000097
:04019000D90B00087F
:1001980010B5054C237833B9044B13B10448AFF3B9
:1001A80000800123237010BD3C00002000000000E7
:1001B800842C000808B5034B1BB103480349AFF36F
:1001C800008008BD00000000842C000840000020CA
:1001D80081F0004102E000BF83F0004330B54FEAF0
:1001E80041044FEA430594EA050F08BF90EA020F5D
:1001F8001FBF54EA000C55EA020C7FEA645C7FEAF0
:10020800655C00F0E2804FEA5454D4EB5555B8BF12
:100218006D420CDD2C4480EA020281EA030382EA83
:10022800000083EA010180EA020281EA0303362D15
:1002380088BF30BD11F0004F4FEA01314FF4801CE8
:100248004CEA113102D0404261EB410113F0004FFA
:100258004FEA03334CEA133302D0524263EB4303B1
:1002680094EA050F00F0A780A4F10104D5F1200E4F
:100278000DDB02FA0EFC22FA05F2801841F10001AA
:1002880003FA0EF2801843FA05F359410EE0A5F17E
:1002980020050EF1200E012A03FA0EFC28BF4CF0AF
:1002A800020C43FA05F3C01851EBE37101F0004565
:1002B80007D54FF0000EDCF1000C7EEB00006EEB72
:1002C8000101B1F5801F1BD3B1F5001F0CD34908FC
:1002D8005FEA30004FEA3C0C04F101044FEA445253
:1002E80012F5800F80F09A80BCF1004F08BF5FEADA
:1002F800500C50F1000041EB045141EA050130BDBA
:100308005FEA4C0C404141EB010111F4801FA4F15C
:100318000104E9D191F0000F04BF01460020B1FAB1
:1003280081F308BF2033A3F10B03B3F120020CDAE9
:100338000C3208DD02F1140CC2F10C0201FA0CF0C7
:1003480021FA02F10CE002F11402D8BFC2F1200C2C
:1003580001FA02F120FA0CFCDCBF41EA0C019040E2
:10036800E41AA2BF01EB0451294330BD6FEA04042B
:100378001F3C1CDA0C340EDC04F11404C4F1200216
:1003880020FA04F001FA02F340EA030021FA04F328
:1003980045EA030130BDC4F10C04C4F1200220FA7F
:1003A80002F001FA04F340EA0300294630BD21FABD
:1003B80004F0294630BD94F0000F83F4801306BF83
:1003C80081F480110134013D4EE77FEA645C18BF77
:1003D8007FEA655C29D094EA050F08BF90EA020F0E
:1003E80005D054EA000C04BF1946104630BD91EA06
:1003F800030F1EBF0021002030BD5FEA545C05D109
:100408004000494128BF41F0004130BD14F5800447
:100418003CBF01F5801130BD01F0004545F0FE41BB
:1004280041F470014FF0000030BD7FEA645C1ABFF0
:10043800194610467FEA655C1CBF0B46024650EA27
:10044800013406BF52EA033591EA030F41F4002153
:1004580030BD00BF90F0000F04BF0021704730B5D9
:100468004FF4806404F132044FF000054FF00001AE
:1004780050E700BF90F0000F04BF0021704730B56F
:100488004FF4806404F1320410F0004548BF404244
:100498004FF000013EE700BF42004FEAE2014FEA99
:1004A80031014FEA02701FBF12F07F4393F07F4F74
:1004B80081F06051704792F0000F14BF93F07F4FA6
:1004C800704730B54FF4607401F0004521F00041E9
:1004D80020E700BF50EA010208BF704730B54FF06F
:1004E80000050AE050EA010208BF704730B511F074
:1004F800004502D5404261EB41014FF4806404F1AC
:1005080032045FEA915C3FF4DCAE4FF003025FEA2D
:10051800DC0C18BF03325FEADC0C18BF033202EBB5
:10052800DC02C2F1200300FA03FC20FA02F001FA0F
:1005380003FE40EA0E0021FA02F11444C1E600BFAE
:1005480070B54FF0FF0C4CF4E06C1CEA11541DBF61
:100558001CEA135594EA0C0F95EA0C0F00F0DEF82C
:100568002C4481EA030621EA4C5123EA4C5350EA11
:10057800013518BF52EA033541F4801143F4801362
:1005880038D0A0FB02CE4FF00005E1FB02E506F0F3
:100598000042E0FB03E54FF00006E1FB03569CF048
:1005A800000F18BF4EF0010EA4F1FF04B6F5007F4E
:1005B80064F5407404D25FEA4E0E6D4146EB0606C0
:1005C80042EAC62141EA55514FEAC52040EA5E5049
:1005D8004FEACE2EB4F1FD0C88BFBCF5E06F1ED8F3
:1005E800BEF1004F08BF5FEA500E50F1000041EB2A
:1005F800045170BD06F0004646EA010140EA0200D7
:1006080081EA0301B4EB5C04C2BFD4EB0C0541EAF8
:10061800045170BD41F480114FF0000E013C00F30D
:10062800AB8014F1360FDEBF002001F0004170BD31
:10063800C4F10004203C35DA0C341BDC04F114044A
:10064800C4F1200500FA05F320FA04F001FA05F2D6
:1006580040EA020001F0004221F0004110EBD370A3
:1006680021FA04F642EB06015EEA430E08BF20EACF
:10067800D37070BDC4F10C04C4F1200500FA04F372
:1006880020FA05F001FA04F240EA020001F0004104
:1006980010EBD37041F100015EEA430E08BF20EA77
:1006A800D37070BDC4F1200500FA05F24EEA020EBF
:1006B80020FA04F301FA05F243EA020321FA04F0EE
:1006C80001F0004121FA04F220EA020000EBD370A5
:1006D8005EEA430E08BF20EAD37070BD94F0000FA5
:1006E8000FD101F00046400041EB010111F4801FD9
:1006F80008BF013CF7D041EA060195F0000F18BF8A
:10070800704703F00046520043EB030313F4801FC5
:1007180008BF013DF7D043EA0603704794EA0C0F7F
:100728000CEA135518BF95EA0C0F0CD050EA410695
:1007380018BF52EA4306D1D181EA030101F0004112
:100748004FF0000070BD50EA410606BF104619463A
:1007580052EA430619D094EA0C0F02D150EA013646
:1007680013D195EA0C0F05D152EA03361CBF104687
:1007780019460AD181EA030101F0004141F0FE4126
:1007880041F470014FF0000070BD41F0FE4141F4AA
:10079800780170BD70B54FF0FF0C4CF4E06C1CEAAA
:1007A80011541DBF1CEA135594EA0C0F95EA0C0F5F
:1007B80000F0A7F8A4EB050481EA030E52EA03351A
:1007C8004FEA013100F088804FEA03334FF080553B
:1007D80045EA131343EA12634FEA022245EA111568
:1007E80045EA10654FEA00260EF000419D4208BF19
:1007F800964244F1FD0404F5407402D25B084FEAC6
:100808003202B61A65EB03055B084FEA32024FF471
:1008180080104FF4002CB6EB020E75EB030E22BFCE
:10082800B61A754640EA0C005B084FEA3202B6EB8E
:10083800020E75EB030E22BFB61A754640EA5C003D
:100848005B084FEA3202B6EB020E75EB030E22BFCD
:10085800B61A754640EA9C005B084FEA3202B6EBCE
:10086800020E75EB030E22BFB61A754640EADC008D
:1008780055EA060E18D04FEA051545EA16754FEAEF
:1008880006164FEAC30343EA52734FEAC2025FEA0D
:100898001C1CC0D111F4801F0BD141EA00014FF09C
:1008A80000004FF0004CB6E711F4801F04BF01436D
:1008B8000020B4F1FD0C88BFBCF5E06F3FF6AFAE89
:1008C800B5EB030C04BFB6EB020C5FEA500C50F119
:1008D800000041EB045170BD0EF0004E4EEA11319C
:1008E80014EB5C04C2BFD4EB0C0541EA045170BDA3
:1008F80041F480114FF0000E013C90E645EA060EE7
:100908008DE60CEA135594EA0C0F08BF95EA0C0F14
:100918003FF43BAF94EA0C0F0AD150EA01347FF45C
:1009280034AF95EA0C0F7FF425AF104619462CE733
:1009380095EA0C0F06D152EA03353FF4FDAE104696
:10094800194622E750EA410618BF52EA43067FF4E7
:10095800C5AE50EA41047FF40DAF52EA43057FF477
:10096800EBAE12E74FEA4102B2F1E04324BFB3F520
:10097800001CDCF1FE5C0DD901F0004C4FEAC0020E
:100988004CEA5070B2F1004F40EB830008BF20F0F2
:100998000100704711F0804F21D113F13872BCBFAC
:1009A80001F00040704741F480114FEA5252C2F101
:1009B8001802C2F1200C10FA0CF320FA02F018BF4A
:1009C80040F001004FEAC1234FEAD32303FA0CFC9D
:1009D80040EA0C0023FA02F34FEA4303CCE77FEA2C
:1009E800625307D150EA01331EBF4FF0FE4040F476
:1009F8004000704701F0004040F0FE4040F4000025
:100A0800704700BF80B500AF1E4B1E4AD2F8882041
:100A180042F47002C3F888201B4B1B4A126842F04C
:100A280001021A60184A184B5968184B0B4053605A
:100A3800154A154B1B6823F0847323F48033136025
:100A4800114B114A126822F480221A600E4B0E4A8A
:100A5800526822F4FE025A600B4B0B4AD26A22F00B
:100A68000F02DA62084A084B196B094B0B401363F3
:100A7800054B00229A6000F00DF8024B4FF000621F
:100A88009A6080BD00ED00E0001002400CC07FF8C5
:100A9800CCFC00FF80B483B000AF00237B60002350
:100AA8003B60324B314A126842F480321A602F4B55
:100AB8001B6803F400333B607B6801337B603B6851
:100AC800002B03D17B68B3F5A04FF0D1274B1B68EF
:100AD80003F40033002B02D001233B6001E0002324
:100AE8003B603B68012B3CD1214B12221A601F4B03
:100AF8001E4A52685A601D4B1C4A52685A601B4B6A
:100B08001A4A526842F480625A60184B174A52686F
:100B180022F47C125A60154B144A526842F4E812C7
:100B28005A60124B114A126842F080721A6000BF74
:100B38000E4B1B6803F00073002BF9D00B4B0B4ACC
:100B4800526822F003025A60084B084A526842F081
:100B580002025A6000BF054B5B6803F00C03082BC8
:100B6800F9D10C37BD465DF8047B70470010024090
:100B780000200240DFF840D0002100F004B80F4BFD
:100B88005B58435004310E480E4B42189A42FFF40A
:100B9800F6AF0D4A00F003B8002342F8043B0B4BB4
:100BA8009A42FFF4F9AFFFF72DFF01F061FF00F063
:100BB80011F8FFF7FEBF000000000120C42C000858
:100BC800000000203C0000203C000020980000208D
:100BD800FFF7FEBF80B582B000AF01F07DFE00F0E8
:100BE800D3F801F06FFE01F09BFE01F039FE0346D9
:100BF800FB7101F039FAFEE780B588B000AF786084
:100C080007F10803184600F065FB7A68234B9A42FF
:100C18001AD14FF4E133BB6007F108031F481946A6
:100C280000F09EFA1D4B1D4A126842F001021A603C
:100C38001A4B1A4A126842F008021A6017481849F3
:100C4800012200F091FB26E07A68164B9A420FD1F8
:100C58001448012100F05AFB07F10803114819460E
:100C680000F07EFA0F480E49012200F07DFB12E0E9
:100C78007A680D4B9A420ED10B48012100F046FBD1
:100C880007F108030848194600F06AFA06480449BB
:100C9800012200F069FB2037BD4680BD00440040BA
:100CA80005010500003801400048004080B483B0C9
:100CB80000AF78600C37BD465DF8047B704700BF15
:100CC80080B500AF0148FFF7F1FF80BD0038014053
:100CD80080B500AF0148FFF7E9FF80BD0044004040
:100CE80080B500AF0148FFF7E1FF80BD0048004034
:100CF80080B483B000AF03463960FB7197F90730C1
:100D0800002B0BDA0D49FB7903F00F03043B3A681B
:100D1800D2B21201D2B20B441A7609E0084997F907
:100D280007303A68D2B21201D2B20B4483F80023DA
:100D38000C37BD465DF8047B704700BF00ED00E04E
:100D480000E100E080B582B000AF78607B68013BCD
:100D5800B3F1807F01D301230FE00A4B7A68013A8F
:100D68005A604FF0FF300F21FFF7C2FF054B0022FA
:100D78009A60044B07221A60002318460837BD46BC
:100D880080BD00BF10E000E080B500AF0348FFF76A
:100D9800D9FF6FF0040000F01FFF80BD401901006B
:100DA80080B500AF1F4B1B88013B9AB21D4B1A80C0
:100DB8001C4B1B8803F003039BB2002B29D14FF077
:100DC8009040202101F0D2F80346002B05D04FF0C7
:100DD8009040202101F0F4F804E04FF090402021E9
:100DE80001F0E0F801F050FD01F01AFE4FF09040DC
:100DF800202101F0BBF80346002B05D04FF09040AE
:100E0800202101F0DDF804E04FF09040202101F0AE
:100E1800C9F8044B1B88002B02D1024B7D221A8093
:100E280080BD00BF0000002080B500AF4FF4003047
:100E3800012100F077FE4FF40020012100F072FE3E
:100E48004FF08040012100F0A9FE80BD80B500AFC1
:100E58004FF40030012100F065FE80BD80B500AF81
:100E68004FF40030012100F05DFE4FF48020012195
:100E780000F058FE80BD00BF80B500AF4FF40030D1
:100E8800012100F04FFE80BD80B500AF4FF4003067
:100E9800012100F047FE4FF40030012100F07EFEF2
:100EA80080BD00BF80B500AF4FF40020012100F0E5
:100EB80039FE4FF48040012100F052FE80BD00BF92
:100EC80080B500AF4FF40020012100F02BFE4FF455
:100ED8008020012100F062FE80BD00BF80B582B095
:100EE80000AF0346FB71FB79062B26D801A252F806
:100EF80023F000BF1F0F0008250F0008190F000876
:100F0800310F00083D0F0008370F00082B0F0008AD
:100F1800FFF79CFF12E0FFF7A1FF0FE0FFF7ACFF20
:100F28000CE0FFF781FF09E0FFF7AEFF06E0FFF7EF
:100F3800C7FF03E0FFF7B6FF00E000BF0837BD4674
:100F480080BD00BF80B588B000AF00233B6100239F
:100F5800BB600023FB600023BB610023FB61094BDE
:100F68007B603B1D0848194600F052FE06480121E7
:100F780000F0B2FE0448682100F0CAFE2037BD46E2
:100F880080BD00BF2B1D20000078004080B582B0D6
:100F980000AF01233B7102237B714FF480533B6008
:100FA8003B461048194600F049FF4FF400533B6098
:100FB8003B460C48194600F041FF4FF480633B6004
:100FC8003B464FF09040194600F038FF4FF400635D
:100FD8003B603B464FF09040194600F02FFF083722
:100FE800BD4680BD0004004880B582B000AF012333
:100FF8003B7102237B714FF480533B603B464FF0BB
:101008009040194600F01AFF0837BD4680BD00BF62
:1010180080B582B000AF01233B7102237B7120238E
:101028003B603B464FF09040194600F007FF0837F9
:10103800BD4680BD80B582B000AF4FF0904003211F
:10104800072200F0CBFF4FF090400221072200F06A
:10105800C5FF02233B7103237B710023BB7100236F
:10106800FB7104233B603B464FF09040194600F06B
:10107800E5FE08233B603B464FF09040194600F0E0
:10108800DDFE0837BD4680BD80B400AFBD465DF8C3
:10109800047B704780B400AFBD465DF8047B7047A1
:1010A80080B582B000AF13480921032200F096FFF3
:1010B8004FF090400821032200F090FF02233B717B
:1010C8000123BB710023FB7103237B714FF4007371
:1010D8003B603B460748194600F0B0FE4FF480736A
:1010E8003B603B464FF09040194600F0A7FE08379A
:1010F800BD4680BD0008004880B582B000AF0346F9
:10110800FB71FB79062B26D801A252F823F000BF09
:10111800351100083B11000841110008471100086B
:101128004D1100085311000859110008FFF72EFF50
:1011380012E0FFF759FF0FE0FFF76AFF0CE0FFF737
:1011480079FF09E0FFF7A0FF06E0FFF7A3FF03E040
:10115800FFF7A6FF00E000BF0837BD4680BD00BF0F
:1011680080B59CB000AF786039600023FB6600232F
:10117800BB6600237B667B681B6823F001027B68E3
:101188001A607B685B687B667B6E23F440537B66E2
:101198003B689B687A6E13437B667B687A6E5A60FD
:1011A8007B681B687B667B6E23F4B05323F00C03CB
:1011B8007B663B685A683B68DB681A433B681B6977
:1011C80013437A6E13437B667B687A6E1A607B687A
:1011D8009B687B667B6E23F440737B663B685B6928
:1011E8007A6E13437B667B687A6E9A6007F1080310
:1011F800184600F0BFF97A68324B9A4202D13B6C2C
:10120800BB6616E07A68304B9A4202D17B6CBB66AB
:101218000FE07A682D4B9A4202D1BB6CBB6608E09E
:101228007A682B4B9A4202D1FB6CBB6601E03B6D9E
:10123800BB667B681B6803F40043002B11D0BB6EB0
:101248005A003B681B68B2FBF3F3FB66BB6E5B009E
:101258003A681268B3FBF2F102FB01F29B1A7B6653
:101268000EE03B681B68BA6EB2FBF3F3FB663B68A3
:101278001A68BB6EB3FBF2F102FB01F29B1A7B66A4
:101288003B681B685A087B6E9A4202D8FB6E013392
:10129800FB667B681B6803F40043002B0BD0FB6ED6
:1012A80003F00F035B087B66FA6E4FF6F07313408A
:1012B8007A6E1343FB66FB6E9AB27B689A8170372D
:1012C800BD4680BD00380140004400400048004051
:1012D800004C004080B483B000AF78607B684FF466
:1012E80016521A607B6800225A607B6800229A6056
:1012F8007B680022DA607B680C221A617B68002216
:101308005A610C37BD465DF8047B704780B483B0E2
:1013180000AF78600B46FB70FB78002B06D07B682B
:101328001B6843F001027B681A6005E07B681B6854
:1013380023F001027B681A600C37BD465DF8047B18
:10134800704700BF80B483B000AF78600B467B80E5
:101358007B88C3F308039AB27B681A850C37BD46AD
:101368005DF8047B704700BF80B489B000AFF860B7
:10137800B9601346FB710023BB6100237B61002326
:101388003B610023FB61FB68FB61BB689BB21B0AE6
:101398009BB2BB61BB68DBB27B617B69012202FA4D
:1013A80003F33B61BB69022B03D1FB690433FB6187
:1013B80005E0BB69032B02D1FB690833FB61FB79AC
:1013C800002B06D0FB69FA6911683A690A431A606A
:1013D80006E0FB69FA6911683A69D2430A401A6063
:1013E8002437BD465DF8047B704700BF80B485B0E4
:1013F80000AF786039600023FB737B68DA693B686B
:101408001340002B02D00123FB7301E00023FB7380
:10141800FB7B18461437BD465DF8047B704700BF58
:1014280080B483B000AF0346FB71044BFA791A60AD
:101438000C37BD465DF8047B704700BF0000424290
:1014480080B483B000AF78603960094B084A5268AD
:1014580022F474125A60064B054A516878683A6853
:1014680002430A435A600C37BD465DF8047B704757
:101478000010024080B483B000AF0346FB71044BF8
:10148800FA791A600C37BD465DF8047B704700BFD7
:101498006000424280B485B000AF78600023FB60F2
:1014A800094B5B68FB60FB6823F00303FB60FA6889
:1014B8007B681343FB60044BFA685A601437BD46D7
:1014C8005DF8047B704700BF0010024080B485B00F
:1014D80000AF78600023FB60094B5B68FB60FB682A
:1014E80023F0F003FB60FA687B681343FB60044B4E
:1014F800FA685A601437BD465DF8047B704700BF30
:101508000010024080B485B000AF78600023FB6013
:10151800094B5B68FB60FB6823F4E063FB60FA68D7
:101528007B681343FB60044BFA685A601437BD4666
:101538005DF8047B704700BF0010024080B485B09E
:1015480000AF78600023FB60094B5B68FB60FB68B9
:1015580023F46053FB607B68DB00FA681343FB608D
:10156800034BFA685A601437BD465DF8047B704730
:101578000010024080B48DB000AF78600023BB62D9
:1015880000237B6200233B620023FB610023BB61D5
:101598000023FB6200237B6100233B61904B5B6867
:1015A80003F00C03BB62BB6A042B07D0082B09D0DD
:1015B800002B30D17B688B4A1A6030E07B68894AFF
:1015C8001A602CE0864B5B6803F470137B62844BD3
:1015D8005B6803F480333B627B6A9B0C02337B625B
:1015E8003B6A002B05D17B6A7F4A02FB03F3FB624F
:1015F8000DE07B4BDB6A03F00F030133FB61794A93
:10160800FB69B2FBF3F37A6A02FB03F3FB627B68C4
:10161800FA6A1A6003E07B68724A1A6000BF704B6E
:101628005B6803F0F003BB62BB6A1B09BB626F4ACD
:10163800BB6A13441B78DBB23B617B681A683B6961
:10164800DA407B685A60664B5B6803F4E063BB6210
:10165800BB6A1B0ABB62654ABB6A13441B78DBB2D0
:10166800BB617B685A68BB69DA407B689A605C4BEF
:101678005B6803F46053BB62BB6ADB0ABB625B4A0C
:10168800BB6A13441B78DBB27B617B685A687B6951
:10169800DA407B68DA60524BDB6A03F4F873BB62AA
:1016A800BB6A1B09BB62BB6A03F00F02504B33F8DD
:1016B80012309BB2BB61BB6A03F01003002B09D048
:1016C800BB69002B06D0FA6ABB69B2FBF3F27B68F0
:1016D8001A6103E07B681A687B681A61404BDB6A11
:1016E80003F47853BB62BB6A5B0ABB62BB6A03F054
:1016F8000F023F4B33F812309BB2BB61BB6A03F059
:101708001003002B09D0BB69002B06D0FA6ABB690D
:10171800B2FBF3F27B685A6103E07B681A687B6866
:101728005A612F4B1B6B03F01003002B03D17B680E
:101738002C4A9A6103E07B681A687B689A61284B97
:101748001B6B03F02003002B03D17B68254ADA6169
:1017580003E07B681A687B68DA61214B1B6B03F036
:101768004003002B03D17B681E4A1A6203E07B68A2
:101778001A687B681A621A4B1B6B03F48073002B80
:101788000DD07B681A68FB6A9A4208D17A693B696E
:101798009A4204D1FB6A5A007B685A6203E07B686C
:1017A800DA687B685A620023FB60104ABB6A1344FC
:1017B8001B78DBB2FB600A4B1B6B03F08073002BBA
:1017C80018D07B681A68FB6A9A4213D1FA683B6999
:1017D8009A420FD1FB6A5A007B681A630EE000BF79
:1017E8000010024000127A0000093D0004000020A9
:1017F800140000207B689A687B681A63904B1B6B07
:1018080003F00073002B0DD07B681A68FB6A9A42BC
:1018180008D1FA683B699A4204D1FB6A5A007B688E
:101828005A6303E07B689A687B685A63844B1B6B36
:1018380003F48053002B0DD07B681A68FB6A9A4228
:1018480008D17A693B699A4204D1FB6A5A007B68DD
:101858009A6203E07B68DA687B689A62784B1B6B54
:1018680003F40073002B0DD07B681A68FB6A9A4258
:1018780008D17A693B699A4204D1FB6A5A007B68AD
:10188800DA6203E07B68DA687B68DA626C4B1B6BB0
:1018980003F48063002B0DD07B681A68FB6A9A42B8
:1018A80008D17A693B699A4204D1FB6A5A007B687D
:1018B800DA6403E07B68DA687B68DA64604B1B6B88
:1018C80003F40063002B0DD07B681A68FB6A9A4208
:1018D80008D17A693B699A4204D1FB6A5A007B684D
:1018E8001A6503E07B68DA687B681A65544B1B6BE2
:1018F80003F40053002B0DD07B681A68FB6A9A42E8
:1019080008D17A693B699A4204D1FB6A5A007B681C
:101918005A6503E07B68DA687B681A65484B1B6B7D
:1019280003F40043002B0DD07B681A68FB6A9A42C7
:1019380008D17A693B699A4204D1FB6A5A007B68EC
:101948009A6503E07B68DA687B689A653C4B1B6B99
:1019580003F00303002B04D17B68DA687B689A6381
:101968001EE0374B1B6B03F00303012B04D17B688C
:101978001A687B689A6313E0314B1B6B03F003030F
:10198800022B04D17B684FF400429A6308E02C4B89
:101998001B6B03F00303032B02D17B68294A9A636C
:1019A800274B1B6B03F44033002B04D17B689A68E8
:1019B8007B68DA6321E0224B1B6B03F44033B3F5F9
:1019C800803F04D17B681A687B68DA6315E01C4B9A
:1019D8001B6B03F44033B3F5003F04D17B684FF42D
:1019E8000042DA6309E0164B1B6B03F44033B3F58E
:1019F800403F02D17B68134ADA63114B1B6B03F437
:101A08004023002B04D17B689A687B681A6425E020
:101A18000B4B1B6B03F44023B3F5802F04D17B6879
:101A28001A687B681A6419E0054B1B6B03F44023A2
:101A3800B3F5002F08D17B684FF400421A640DE01B
:101A48000010024000127A00344B1B6B03F4402351
:101A5800B3F5402F02D17B68314A1A642F4B1B6BB8
:101A680003F44013002B04D17B689A687B685A649E
:101A780021E02A4B1B6B03F44013B3F5801F04D1FC
:101A88007B681A687B685A6415E0244B1B6B03F467
:101A98004013B3F5001F04D17B684FF400425A6429
:101AA80009E01E4B1B6B03F44013B3F5401F02D132
:101AB8007B681B4A5A64194B1B6B03F44003002BC9
:101AC80004D17B689A687B689A6421E0134B1B6B8E
:101AD80003F44003B3F5800F04D17B681A687B6870
:101AE8009A6415E00D4B1B6B03F44003B3F5000F2C
:101AF80004D17B684FF400429A6409E0074B1B6BE2
:101B080003F44003B3F5400F02D17B68044A9A649A
:101B18003437BD465DF8047B704700BF00100240B3
:101B280000127A0080B483B000AF78600B46FB7077
:101B3800FB78002B06D0094B084A51697A680A439A
:101B48005A6106E0054B054A51697A68D2430A4052
:101B58005A610C37BD465DF8047B7047001002409F
:101B680080B483B000AF78600B46FB70FB78002B25
:101B780006D0094B084A91697A680A439A6106E0D7
:101B8800054B054A91697A68D2430A409A610C3735
:101B9800BD465DF8047B70470010024080B483B0F6
:101BA80000AF78600B46FB70FB78002B06D0094B22
:101BB800084AD1697A680A43DA6106E0054B054AA2
:101BC800D1697A68D2430A40DA610C37BD465DF8BC
:101BD800047B70470010024080B483B000AF786087
:101BE8007B68042B06D1094B084A126842F00402AC
:101BF8001A6005E0054B054A126822F004021A60D3
:101C08000C37BD465DF8047B704700BF10E000E06C
:101C180080B485B000AF786039600023FB607B68D2
:101C28001B6823F001027B681A607B681B68FB60F5
:101C3800FA68284B1340FB603B685A683B689B680E
:101C48001B021343FA681343FB607B68FA681A6047
:101C58003B681B6823F070627B681A617B681B68AD
:101C680043F001027B681A600023FB607B68FA6816
:101C78009A607B68FA68DA603B689A693B681B6916
:101C88001343FB607B68FA689A607B689B6843F43F
:101C980000427B689A603B68DB68FB607B681A6877
:101CA800FB681A437B681A607B685B68FB60FB68AB
:101CB80023F0784323F40043FB603B685B69FA68D0
:101CC8001343FB607B68FA685A601437BD465DF8B9
:101CD800047B7047FFE0CF0080B483B000AF78602A
:101CE8000B46FB70FB78002B06D07B681B6843F023
:101CF80001027B681A6005E07B681B6823F001021B
:101D08007B681A600C37BD465DF8047B704700BFDE
:101D180080B485B000AF78600B467B800023FB6001
:101D28007B685B68FB60FB6823F47F7323F0030325
:101D3800FB607B88C3F30903FA681343FB607B6885
:101D4800FA685A601437BD465DF8047B704700BFD7
:101D580080B487B000AFF8607B600B467B81134688
:101D68007B7200237B61FB685B687B617A690D4B42
:101D780013407B617B89C3F309027B7A1B0403F45C
:101D88007F031A437B681A433B6A13437A691343F8
:101D98007B61FB687A695A601C37BD465DF8047B35
:101DA800704700BF009800FC80B483B000AF786033
:101DB8000B46FB70FA787B689A620C37BD465DF873
:101DC800047B704780B483B000AF78607B685B6A3F
:101DD800DBB218460C37BD465DF8047B704700BF80
:101DE80080B485B000AF786039600023BB60002301
:101DF800FB737B689B69BB60BA683B681340BB6038
:101E0800BB68002B02D00123FB7301E00023FB73A6
:101E1800FB7B18461437BD465DF8047B704700BF4E
:101E280080B483B000AF786039607B683A68DA6163
:101E38000C37BD465DF8047B704700BF80B487B09F
:101E480000AF7860396000237B6100233B61002389
:101E5800FB600023BB6000237B617EE07B6901227D
:101E680002FA03F33B613B681A683B691340FB6065
:101E7800FA683B699A426DD13B681B79012B03D004
:101E88003B681B79022B34D17B689A687B695B00BD
:101E9800032101FA03F3DB431A407B689A607B68ED
:101EA8009A683B685B7919467B695B0001FA03F322
:101EB8001A437B689A607B689B889AB27B699BB25D
:101EC800012101FA03F39BB2DB439BB213409AB2A0
:101ED8007B689A807B689B889AB23B689B79194695
:101EE8007B699BB201FA03F39BB213439AB27B68F6
:101EF8009A807B681A687B695B00032101FA03F307
:101F0800DB431A407B681A607B681A683B681B7958
:101F180019467B695B0001FA03F31A437B681A6070
:101F28007B68DB68BB607B699BB25B00032202FABB
:101F380003F3DB43BA681340BB603B68DB791A469E
:101F48007B695B0002FA03F3BA681343BB607B68E2
:101F5800BA68DA607B6901337B617B690F2B7FF696
:101F68007DAF1C37BD465DF8047B704780B485B0F3
:101F780000AF78600B467B800023FB737B689B8AED
:101F88009AB27B8813409BB2002B02D00123FB73CB
:101F980001E00023FB73FB7B18461437BD465DF850
:101FA800047B704780B483B000AF78600B467B80B9
:101FB8007A887B689A610C37BD465DF8047B704768
:101FC80080B483B000AF78600B467B807B687A88EA
:101FD8001A850C37BD465DF8047B704780B485B020
:101FE80000AF786013460A467A807B700023FB6056
:101FF8000023BB607A787B8803F007039B0002FA12
:1020080003F3FB607B88DB089BB21A467B88DB08FE
:102018009BB219467B68083153F821107B8803F07E
:1020280007039B000F2000FA03F3DB4319407B688A
:10203800083243F822107B88DB089BB21A467B687B
:10204800083253F82220FB681343BB607B88DB0807
:102058009BB21A467B680832B96843F822101437D5
:10206800BD465DF8047B704780B400AF134B144A3B
:10207800DA60124B134A1A61104B134A5A610F4B1C
:10208800124A9A600D4B4FF000021A600B4B4FF04A
:1020980000025A60094B4FF000029A61074B4FF05B
:1020A8000002DA61054B4FF000021A62034B4FF051
:1020B80000025A62BD465DF8047B70475800002054
:1020C8009CF9D53B3480373AADA3DA3E6F12033D15
:1020D80080B487B000AF87ED010AC7ED000A784BDE
:1020E80093ED007A764BD3ED026A754BD3ED017A06
:1020F80097ED006A76EE677A66EEA77A77EE277A2A
:102108006F4BC3ED007A6E4B93ED067A6C4BD3EDB3
:10211800026A6B4B93ED026A694BD3ED097A26EE9E
:10212800276A674BD3ED077A36EE676A644BD3EDBF
:10213800087A36EE676A624BD3ED037A76EE277A31
:1021480066EEA77A77EE277A5D4BC3ED067A5C4B8D
:1021580093ED077A5A4BD3ED026A594BD3ED097ABE
:1021680066EEA77A77EE677A554BC3ED077A544B3C
:1021780093ED087A524BD3ED026A514BD3ED097AAD
:1021880066EEA77A77EE677A4D4BC3ED087A4C4B2B
:1021980093ED097A4A4BD3ED026A494BD3ED047AA1
:1021A80066EEA77A77EE277A454BC3ED097A444B5A
:1021B800D3ED007A97ED017A77EE677AC7ED057A65
:1021C8003F4B93ED067A3E4BD3ED057A77EE277AAF
:1021D800C7ED047A3A4B93ED067AD7ED047AC7EE49
:1021E800277AC7ED027A364B93ED087AD7ED047A51
:1021F800C7EE277AC7ED037A314B93ED007AD7ED16
:10220800026AD7ED057A66EEA77A77EE277A2C4B25
:10221800C3ED007A2A4B93ED017AD7ED036AD7ED27
:10222800057A66EEA77A77EE277A254BC3ED017A11
:10223800234B93ED097AD7ED036A214BD3ED077A47
:1022480066EEA77A77EE677A1D4BC3ED097A1C4BC9
:1022580093ED087AD7ED036A194BD3ED067A66EE4B
:10226800A77A77EE677A164BC3ED087A144B93ED8D
:10227800077AD7ED026A124BD3ED077A66EEA77A92
:1022880077EE677A0E4BC3ED077A0D4B93ED067A1E
:10229800D7ED026A0A4BD3ED067A66EEA77A77EE97
:1022A800677A074BC3ED067A054B1B6807EE903A31
:1022B800B0EE670A1C37BD465DF8047B704700BF67
:1022C8005800002080B582B000AF0023FB710120C8
:1022D80000F04EF80346FB71102000F00DF803469D
:1022E800FB71082000F026F80346FB71FB791846BD
:1022F8000837BD4680BD00BF80B584B000AF034637
:10230800FB710023FB73FB7907EE103AF8EE477A6E
:10231800074BC3ED007AFB1DD0201B211A4600F0A5
:10232800FDF90346FB73FB7B18461037BD4680BD9D
:102338008400002080B584B000AF0346FB71002301
:10234800FB73FB7907EE103AF8EE477A074BC3EDBB
:10235800017AFB1DD0201C211A4600F0DFF9034644
:10236800FB73FB7B18461037BD4680BD84000020F8
:1023780080B584B000AF0346FB710023FB73FB1DDF
:10238800D0206B211A4600F0C9F90346FB73FB7B8A
:1023980018461037BD4680BD80B586B000AF78605E
:1023A8000023FB7507F11103D0203E211A460123B3
:1023B80000F0FEF80346FB7507F11003D0203D211D
:1023C8001A46012300F0F4F80346FB7507F10F03E2
:1023D800D02040211A46012300F0EAF80346FB7595
:1023E80007F10E03D0203F211A46012300F0E0F840
:1023F8000346FB753B7C1B029AB27B7C1343BB8272
:10240800BB7B1B029AB2FB7B13437B82B7F9143068
:1024180006EE903AB8EEE67AB7F9123006EE903A40
:10242800F8EEE67AC7EE277AB0EE670A00F046FBC8
:1024380010EE103A1846FEF72FF802460B461046E3
:1024480019464FF00002344BFEF77AF802460B4665
:10245800104619462EA3D3E90023FEF79BF902463E
:102468000B4610461946FEF77DFA02462B4B1A60BA
:10247800B7F91430002B07DA284BD3ED007AF5EEC4
:10248800C07AF1EE10FA0BD4B7F91430002B0CDD3A
:10249800224BD3ED007AF5EEC07AF1EE10FA04DDA6
:1024A8001E4B1A687B681A602CE0B7F91430002BB1
:1024B80012DD1A4BD3ED007AF5EEC07AF1EE10FA80
:1024C8000AD5164B93ED007ADFED157A77EE277A69
:1024D8007B68C3ED007A15E0B7F91430002B11DAE8
:1024E8000E4BD3ED007AF5EEC07AF1EE10FA09DD65
:1024F8000A4B93ED007ADFED0A7A77EE677A7B680C
:10250800C3ED007AFB7D18461837BD4680BD00BF75
:10251800182D4454FB2109400080664080000020AB
:1025280000003443AFF3008080B584B000AF78601A
:102538000023FB7307F10B03D02044211A46012323
:1025480000F036F80346FB7307F10A03D020432155
:102558001A46012300F02CF80346FB73BB7A1B02D2
:102568009AB2FB7A1343BB81B7F90C3006EE903A66
:10257800B8EEE67A0B4B1B8806EE903AF8EEE67A50
:1025880027EE277ADFED087A87EE277ADFED077ADC
:1025980077EE277A7B68C3ED007AFB7B1846103705
:1025A800BD4680BD38000020000000471231D93FE9
:1025B80080B584B002AF3A600246FA710A46BA7131
:1025C800BB80544B4FF420421A6008E0514B1B6803
:1025D800591E504A1160002B01D1032396E04E4842
:1025E8004FF40041FFF7FCFB0346002BEED1FB79CB
:1025F8009BB24FF40052009247481946012200232B
:10260800FFF7A6FB434B4FF420421A6008E0414B0A
:102618001B68591E3F4A1160002B01D1032375E046
:102628003D480221FFF7DCFB0346002BEFD0BB88B7
:10263800012B03D9BB7963F07F03BB71BB793648A3
:102648001946FFF7B1FB334B4FF420421A6008E0FC
:10265800304B1B68591E2F4A1160002B01D10123F2
:1026680054E02D484021FFF7BBFB0346002BEFD079
:10267800FB799AB2BB88DBB24FF41051009126481F
:1026880011461A464FF00073FFF762FB21E0214B19
:102698004FF420421A6008E01E4B1B68591E1D4A61
:1026A8001160002B01D1022330E01B480421FFF701
:1026B80097FB0346002BEFD01748FFF783FB034631
:1026C8001A463B681A703B6801333B60BB88013B84
:1026D800BB80BB88002BDAD10E4B4FF420421A6026
:1026E80008E00C4B1B68591E0A4A1160002B01D1E7
:1026F80003230BE008482021FFF772FB0346002B59
:10270800EFD005482021FFF78BFB00231846083738
:10271800BD4680BD340000200078004080B584B0FC
:1027280002AF0B463A600246FA71BB714A4B4FF44E
:1027380020421A6008E0484B1B68591E464A11603F
:10274800002B01D1002382E044484FF40041FFF7F9
:1027580047FB0346002BEED1FB799BB24FF40052A6
:1027680000923E48194601224FF08073FFF7F0FAB5
:10277800394B4FF420421A6008E0374B1B68591E4A
:10278800354A1160002B01D1002360E03348022153
:10279800FFF726FB0346002BEFD0BB792F481946DD
:1027A800FFF702FB2C4B4FF420421A6008E02A4B3B
:1027B8001B68591E284A1160002B01D1002346E0EE
:1027C80026488021FFF70CFB0346002BEFD0FB794E
:1027D8009BB2002200922148194601224FF0007353
:1027E800FFF7B6FA1C4B4FF420421A6008E01A4B68
:1027F8001B68591E184A1160002B01D1002326E0DE
:1028080016480221FFF7ECFA0346002BEFD03B688D
:102818001B7812481946FFF7C7FA0F4B4FF42042AE
:102828001A6008E00C4B1B68591E0B4A1160002BFC
:1028380001D100230BE009482021FFF7D1FA034614
:10284800002BEFD005482021FFF7EAFA00231846AD
:102858000837BD4680BD00BF340000200078004026
:1028680080B582B000AF0620FEF738FBFEF76AFBA2
:102878000620FEF741FCFFF725FD0346FB71FB79B7
:1028880018460837BD4680BD80B500AF0B48FFF736
:1028980083FD0B48FFF748FE084B93ED007A074B82
:1028A800D3ED017AB0EE470AF0EE670AFFF710FCA5
:1028B800F0EE407A014BC3ED027A80BD8C00002017
:1028C8009000002080B500AF0220FEF707FB022031
:1028D800FEF712FC80BD00BF80B500AF0F4B0F4A5A
:1028E800D2F8882042F47002C3F888200120FEF74D
:1028F80097FD00204FF48011FEF7A2FD0220FEF79D
:10290800C9FD0120FEF7B6FD0020FEF7DFFD00201F
:10291800FEF7F8FD0020FEF711FE80BD00ED00E097
:1029280080B500AF0320FEF7D9FA0348FEF764F933
:102938000320FEF7E1FB80BD0044004080B582B073
:1029480000AF0346FB8000BF0F488021FEF74EFD15
:102958000346002BF8D0FB881B0A9BB20A4819468D
:10296800FEF7F0FC00BF08488021FEF73FFD034654
:10297800002BF8D0FB88DBB29BB203481946FEF760
:10298800E1FC0837BD4680BD0044004080B582B0F8
:1029980000AF786000BF21488021FEF727FD03467D
:1029A800002BF8D07B681B0E9BB21C481946FEF71B
:1029B800C9FC00BF19488021FEF718FD0346002B0B
:1029C800F8D07B681B149BB2DBB29BB21348194644
:1029D800FEF7B8FC00BF11488021FEF707FD03464B
:1029E800002BF8D07B681B129BB2DBB29BB20B4862
:1029F8001946FEF7A7FC00BF08488021FEF7F6FC41
:102A08000346002BF8D07B689BB2DBB29BB203482D
:102A18001946FEF797FC0837BD4680BD00440040C4
:102A280080B500AF4FF0FF30FFF788FF0E4B93EDF6
:102A3800007ADFED0E7A67EE277AFDEEE77A17EE79
:102A4800903A1846FFF7A2FF074B93ED027ADFEDA5
:102A5800077A67EE277AFDEEE77A17EE903A18467E
:102A6800FFF794FF80BD00BF8C00002000007A446F
:102A780070B50E4B0E4DED1AAD1000241E46AC423B
:102A880004D056F8242090470134F8E700F0F6F80F
:102A9800084D094BED1AAD1000241E46AC4204D077
:102AA80056F8242090470134F8E770BDBC2C000884
:102AB800BC2C0008C02C0008BC2C000838B510EE4F
:102AC800105A25F00044B4F1A14FF0EE407A10DB23
:102AD800B4F1FF4F02DD30EE000A38BDDFED507A69
:102AE8009FED507A002DCCBFB0EE670AB0EE470AD2
:102AF80038BD4D4B9C420FDCB4F1445F40DADFED4A
:102B08004B6A70EE266AB7EE007AF4EEC76AF1EE09
:102B180010FA00F3828033E000F0A8F8444B9C429E
:102B280019DCA3F5D0039C420BDCF0EE007ABFEE73
:102B3800007AA0EE277A002370EE277AC7EE277A6C
:102B480020E0B7EE007A70EE477A30EE070A0123EC
:102B5800C7EE807A16E0374B9C420BDCB7EE087A5A
:102B6800F7EE007AE0EE077A022370EE476AC6EEC7
:102B7800A77A07E0FFEE007AC7EE807A032301E028
:102B88004FF0FF3327EEA76ADFED2B5ADFED2B6AF4
:102B98009FED2B5A26EE067A5A1CE7EE256ADFEDE2
:102BA800295AE7EE265ADFED286AE7EE256ADFEDB7
:102BB800275AE7EE265ADFED266AE7EE256ADFEDAB
:102BC800255AA7EE255ADFED245AE7EE055A9FED60
:102BD800235AA7EE255ADFED225AE7EE055A27EECB
:102BE800257A06EE267A04D1B0EE670AA7EEC70A60
:102BF80038BD1C4A1C499B001A440B44D3ED006A9B
:102C0800D7EE876A002D76EEE77AD2ED006A76EE87
:102C1800E77A02DAB1EE670A38BDB0EE670A38BD66
:102C2800DB0FC93FDB0FC9BFFFFFDF3ECAF24971A7
:102C3800FFFF973FFFFF1B40D769853C59DA4B3DA3
:102C48006BF16EBD356B883D6E2EBA3D2549123E3F
:102C5800ABAAAA3E21A215BD95879DBD388EE3BDBE
:102C6800CDCC4CBEAC2C00089C2C000810EE102AD1
:102C780022F0004300EE103A70470000F8B500BF9C
:102C8800F8BC08BC9E467047F8B500BFF8BC08BC45
:042C98009E4670479D
:102C9C006937AC3168212233B40F14336821A23365
:102CAC003863ED3EDA0F493F5E987B3FDA0FC93F40
:042CBC00BD0100084E
:042CC000990100086E
:102CC4007D0000000000000001020304010203046F
:102CD40006070809010002000400060008000A00B3
:102CE4000C001000200040008000000100000000E3
:0C2CF4000000000000100000E8030000D9
:0400000508000B7D67
:00000001FF
