:020000040800F2
:10000000000001207D0B0008D90B0008D90B000867
:10001000D90B0008D90B0008D90B0008000000001C
:10002000000000000000000000000000D90B0008E4
:10003000D90B000800000000D90B0008891E000839
:10004000D90B0008D90B0008D90B0008D90B000800
:10005000D90B0008D90B0008D90B0008D90B0008F0
:10006000D90B0008D90B0008D90B0008D90B0008E0
:10007000D90B0008D90B0008D90B0008D90B0008D0
:10008000D90B0008D90B0008D90B0008D90B0008C0
:10009000D90B0008D90B0008D90B0008D90B0008B0
:1000A000D90B0008D90B0008D90B0008D90B0008A0
:1000B000D90B0008D90B0008AD1D0008D90B0008AA
:1000C000D90B0008D90B0008D90B0008D90B000880
:1000D000D90B0008F11A0008FD1A00081D1B0008C2
:1000E000D90B0008D90B0008D90B0008D90B000860
:1000F000D90B0008D90B0008D90B0008D90B000850
:10010000D90B00080000000000000000D90B000817
:10011000D90B0008D90B0008D90B0008D90B00082F
:10012000D90B0008D90B0008D90B0008D90B00081F
:10013000D90B0008D90B00080000000000000000E7
:10014000D90B0008D90B0008D90B000800000000EB
:10015000000000000000000000000000000000009F
:10016000D90B0008D90B0008D90B0008D90B0008DF
:10017000D90B0008D90B0008D90B0008D90B0008CF
:10018000D90B0008D90B0008000000000000000097
:04019000D90B00087F
:1001980010B5054C237833B9044B13B10448AFF3B9
:1001A80000800123237010BD3C00002000000000E7
:1001B8000C60000808B5034B1BB103480349AFF3B3
:1001C800008008BD000000000C600008400000200E
:1001D80081F0004102E000BF83F0004330B54FEAF0
:1001E80041044FEA430594EA050F08BF90EA020F5D
:1001F8001FBF54EA000C55EA020C7FEA645C7FEAF0
:10020800655C00F0E2804FEA5454D4EB5555B8BF12
:100218006D420CDD2C4480EA020281EA030382EA83
:10022800000083EA010180EA020281EA0303362D15
:1002380088BF30BD11F0004F4FEA01314FF4801CE8
:100248004CEA113102D0404261EB410113F0004FFA
:100258004FEA03334CEA133302D0524263EB4303B1
:1002680094EA050F00F0A780A4F10104D5F1200E4F
:100278000DDB02FA0EFC22FA05F2801841F10001AA
:1002880003FA0EF2801843FA05F359410EE0A5F17E
:1002980020050EF1200E012A03FA0EFC28BF4CF0AF
:1002A800020C43FA05F3C01851EBE37101F0004565
:1002B80007D54FF0000EDCF1000C7EEB00006EEB72
:1002C8000101B1F5801F1BD3B1F5001F0CD34908FC
:1002D8005FEA30004FEA3C0C04F101044FEA445253
:1002E80012F5800F80F09A80BCF1004F08BF5FEADA
:1002F800500C50F1000041EB045141EA050130BDBA
:100308005FEA4C0C404141EB010111F4801FA4F15C
:100318000104E9D191F0000F04BF01460020B1FAB1
:1003280081F308BF2033A3F10B03B3F120020CDAE9
:100338000C3208DD02F1140CC2F10C0201FA0CF0C7
:1003480021FA02F10CE002F11402D8BFC2F1200C2C
:1003580001FA02F120FA0CFCDCBF41EA0C019040E2
:10036800E41AA2BF01EB0451294330BD6FEA04042B
:100378001F3C1CDA0C340EDC04F11404C4F1200216
:1003880020FA04F001FA02F340EA030021FA04F328
:1003980045EA030130BDC4F10C04C4F1200220FA7F
:1003A80002F001FA04F340EA0300294630BD21FABD
:1003B80004F0294630BD94F0000F83F4801306BF83
:1003C80081F480110134013D4EE77FEA645C18BF77
:1003D8007FEA655C29D094EA050F08BF90EA020F0E
:1003E80005D054EA000C04BF1946104630BD91EA06
:1003F800030F1EBF0021002030BD5FEA545C05D109
:100408004000494128BF41F0004130BD14F5800447
:100418003CBF01F5801130BD01F0004545F0FE41BB
:1004280041F470014FF0000030BD7FEA645C1ABFF0
:10043800194610467FEA655C1CBF0B46024650EA27
:10044800013406BF52EA033591EA030F41F4002153
:1004580030BD00BF90F0000F04BF0021704730B5D9
:100468004FF4806404F132044FF000054FF00001AE
:1004780050E700BF90F0000F04BF0021704730B56F
:100488004FF4806404F1320410F0004548BF404244
:100498004FF000013EE700BF42004FEAE2014FEA99
:1004A80031014FEA02701FBF12F07F4393F07F4F74
:1004B80081F06051704792F0000F14BF93F07F4FA6
:1004C800704730B54FF4607401F0004521F00041E9
:1004D80020E700BF50EA010208BF704730B54FF06F
:1004E80000050AE050EA010208BF704730B511F074
:1004F800004502D5404261EB41014FF4806404F1AC
:1005080032045FEA915C3FF4DCAE4FF003025FEA2D
:10051800DC0C18BF03325FEADC0C18BF033202EBB5
:10052800DC02C2F1200300FA03FC20FA02F001FA0F
:1005380003FE40EA0E0021FA02F11444C1E600BFAE
:1005480070B54FF0FF0C4CF4E06C1CEA11541DBF61
:100558001CEA135594EA0C0F95EA0C0F00F0DEF82C
:100568002C4481EA030621EA4C5123EA4C5350EA11
:10057800013518BF52EA033541F4801143F4801362
:1005880038D0A0FB02CE4FF00005E1FB02E506F0F3
:100598000042E0FB03E54FF00006E1FB03569CF048
:1005A800000F18BF4EF0010EA4F1FF04B6F5007F4E
:1005B80064F5407404D25FEA4E0E6D4146EB0606C0
:1005C80042EAC62141EA55514FEAC52040EA5E5049
:1005D8004FEACE2EB4F1FD0C88BFBCF5E06F1ED8F3
:1005E800BEF1004F08BF5FEA500E50F1000041EB2A
:1005F800045170BD06F0004646EA010140EA0200D7
:1006080081EA0301B4EB5C04C2BFD4EB0C0541EAF8
:10061800045170BD41F480114FF0000E013C00F30D
:10062800AB8014F1360FDEBF002001F0004170BD31
:10063800C4F10004203C35DA0C341BDC04F114044A
:10064800C4F1200500FA05F320FA04F001FA05F2D6
:1006580040EA020001F0004221F0004110EBD370A3
:1006680021FA04F642EB06015EEA430E08BF20EACF
:10067800D37070BDC4F10C04C4F1200500FA04F372
:1006880020FA05F001FA04F240EA020001F0004104
:1006980010EBD37041F100015EEA430E08BF20EA77
:1006A800D37070BDC4F1200500FA05F24EEA020EBF
:1006B80020FA04F301FA05F243EA020321FA04F0EE
:1006C80001F0004121FA04F220EA020000EBD370A5
:1006D8005EEA430E08BF20EAD37070BD94F0000FA5
:1006E8000FD101F00046400041EB010111F4801FD9
:1006F80008BF013CF7D041EA060195F0000F18BF8A
:10070800704703F00046520043EB030313F4801FC5
:1007180008BF013DF7D043EA0603704794EA0C0F7F
:100728000CEA135518BF95EA0C0F0CD050EA410695
:1007380018BF52EA4306D1D181EA030101F0004112
:100748004FF0000070BD50EA410606BF104619463A
:1007580052EA430619D094EA0C0F02D150EA013646
:1007680013D195EA0C0F05D152EA03361CBF104687
:1007780019460AD181EA030101F0004141F0FE4126
:1007880041F470014FF0000070BD41F0FE4141F4AA
:10079800780170BD70B54FF0FF0C4CF4E06C1CEAAA
:1007A80011541DBF1CEA135594EA0C0F95EA0C0F5F
:1007B80000F0A7F8A4EB050481EA030E52EA03351A
:1007C8004FEA013100F088804FEA03334FF080553B
:1007D80045EA131343EA12634FEA022245EA111568
:1007E80045EA10654FEA00260EF000419D4208BF19
:1007F800964244F1FD0404F5407402D25B084FEAC6
:100808003202B61A65EB03055B084FEA32024FF471
:1008180080104FF4002CB6EB020E75EB030E22BFCE
:10082800B61A754640EA0C005B084FEA3202B6EB8E
:10083800020E75EB030E22BFB61A754640EA5C003D
:100848005B084FEA3202B6EB020E75EB030E22BFCD
:10085800B61A754640EA9C005B084FEA3202B6EBCE
:10086800020E75EB030E22BFB61A754640EADC008D
:1008780055EA060E18D04FEA051545EA16754FEAEF
:1008880006164FEAC30343EA52734FEAC2025FEA0D
:100898001C1CC0D111F4801F0BD141EA00014FF09C
:1008A80000004FF0004CB6E711F4801F04BF01436D
:1008B8000020B4F1FD0C88BFBCF5E06F3FF6AFAE89
:1008C800B5EB030C04BFB6EB020C5FEA500C50F119
:1008D800000041EB045170BD0EF0004E4EEA11319C
:1008E80014EB5C04C2BFD4EB0C0541EA045170BDA3
:1008F80041F480114FF0000E013C90E645EA060EE7
:100908008DE60CEA135594EA0C0F08BF95EA0C0F14
:100918003FF43BAF94EA0C0F0AD150EA01347FF45C
:1009280034AF95EA0C0F7FF425AF104619462CE733
:1009380095EA0C0F06D152EA03353FF4FDAE104696
:10094800194622E750EA410618BF52EA43067FF4E7
:10095800C5AE50EA41047FF40DAF52EA43057FF477
:10096800EBAE12E74FEA4102B2F1E04324BFB3F520
:10097800001CDCF1FE5C0DD901F0004C4FEAC0020E
:100988004CEA5070B2F1004F40EB830008BF20F0F2
:100998000100704711F0804F21D113F13872BCBFAC
:1009A80001F00040704741F480114FEA5252C2F101
:1009B8001802C2F1200C10FA0CF320FA02F018BF4A
:1009C80040F001004FEAC1234FEAD32303FA0CFC9D
:1009D80040EA0C0023FA02F34FEA4303CCE77FEA2C
:1009E800625307D150EA01331EBF4FF0FE4040F476
:1009F8004000704701F0004040F0FE4040F4000025
:100A0800704700BF80B500AF1E4B1E4AD2F8882041
:100A180042F47002C3F888201B4B1B4A126842F04C
:100A280001021A60184A184B5968184B0B4053605A
:100A3800154A154B1B6823F0847323F48033136025
:100A4800114B114A126822F480221A600E4B0E4A8A
:100A5800526822F4FE025A600B4B0B4AD26A22F00B
:100A68000F02DA62084A084B196B094B0B401363F3
:100A7800054B00229A6000F00DF8024B4FF000621F
:100A88009A6080BD00ED00E0001002400CC07FF8C5
:100A9800CCFC00FF80B483B000AF00237B60002350
:100AA8003B60324B314A126842F480321A602F4B55
:100AB8001B6803F400333B607B6801337B603B6851
:100AC800002B03D17B68B3F5A04FF0D1274B1B68EF
:100AD80003F40033002B02D001233B6001E0002324
:100AE8003B603B68012B3CD1214B12221A601F4B03
:100AF8001E4A52685A601D4B1C4A52685A601B4B6A
:100B08001A4A526842F480625A60184B174A52686F
:100B180022F47C125A60154B144A526842F4E812C7
:100B28005A60124B114A126842F080721A6000BF74
:100B38000E4B1B6803F00073002BF9D00B4B0B4ACC
:100B4800526822F003025A60084B084A526842F081
:100B580002025A6000BF054B5B6803F00C03082BC8
:100B6800F9D10C37BD465DF8047B70470010024090
:100B780000200240DFF840D0002100F004B80F4BFD
:100B88005B58435004310E480E4B42189A42FFF40A
:100B9800F6AF0D4A00F003B8002342F8043B0B4BB4
:100BA8009A42FFF4F9AFFFF72DFF05F025F900F0A1
:100BB80011F8FFF7FEBF0000000001205460000894
:100BC800000000203C0000203C0000200004002021
:100BD800FFF7FEBF80B582B000AF0023FB8003E0C3
:100BE80000BFFB880133FB80FB88B3F57A4FF7D34E
:100BF80004F088FE01F032F904F02EFA04F06AFFDE
:100C080004F0DAF904F040FA04F072FE05F086F810
:100C180004F032FE0C4B1B6800209FED0C0A98472D
:100C28000B4B1B6800209FED090A9847084B1B686F
:100C380001209FED060A9847054B1B6803209FED8E
:100C4800030A9847FEE700BF0C03002000000000DD
:100C5800D402002080B586B000AF87ED010A0346B4
:100C6800FB70FF233B72FF237B72FB78BB72002370
:100C7800FB7200233B7300237B730023BB730123A8
:100C8800FB733B1D1B683B6107F1080303333A699B
:100C98001A600023FB750EE00C4BD3F89820FB7DFF
:100CA800591CF97507F108010B441B78DBB25BB2DC
:100CB800074819469047FB7D072BEDD9034BD3F81E
:100CC800A03098471837BD4680BD00BF28020020D5
:100CD8006802002080B582B000AF604BDB6898479F
:100CE8005E4B93ED027ADFED5E7AB4EEE77AF1EED1
:100CF80010FA40F18680594B93ED027ADFED597A6C
:100D0800B4EEE77AF1EE10FA7BDD574BDB6A534A13
:100D1800D2ED027A5448B0EE670A9847524B1B6AE4
:100D28007B60524B9B683A1D10469847D7ED017A75
:100D3800F5EEC07AF1EE10FA19DD97ED017ADFEDE4
:100D48004C7AB4EEE77AF1EE10FA10D597ED017A05
:100D5800F2EE047A87EE277AD7ED016AF2EE047A8A
:100D6800C6EEA77A67EE277AC7ED017A21E0D7EDBC
:100D7800017AF5EEC07AF1EE10FA1AD597ED017AFC
:100D8800DFED3C7AB4EEE77AF1EE10FA11DD97ED7B
:100D9800017AF2EE047AC7EE277AB1EE677AD7EDD8
:100DA800016AF2EE047AC6EEA77A67EE277AC7EDF3
:100DB800017A97ED017ADFED307AB4EEE77AF1EE59
:100DC80010FA02DD2D4B7B600AE097ED017ADFED2A
:100DD8002C7AB4EEE77AF1EE10FA01D5294B7B6054
:100DE800294B1B68D7ED017A0020B0EE670A9847B7
:100DF800254B1B68D7ED017A0120B0EE670A9847AA
:100E08000BE0214B1B6800209FED200A98471E4BE2
:100E18001B6801209FED1D0A9847104B93ED027A3D
:100E2800DFED1B7AB4EEE77AF1EE10FA12DD0B4B28
:100E380093ED027ADFED177AB4EEE77AF1EE10FA65
:100E480008D5154B1B68054AD2ED027A0320B0EE8F
:100E5800670A98470837BD4680BD00BFB003002029
:100E680000003442000034C260030020D802002091
:100E78000000C8420000C8C200007A4400007A445A
:100E880000007AC400007AC40C03002000000000AF
:100E980000000CC200002042D402002080B500AF40
:100EA8009B4B1B785A1CD1B2994A1170542B00F2F3
:100EB800268101A252F823F0151000082710000817
:100EC800391000084B1000085D1000086F1000086A
:100ED8008110000893100008A5100008E31000080E
:100EE800F51000080711000807110008071100088D
:100EF800071100080711000807110008071100086A
:100F08000711000807110008071100080711000859
:100F18000711000807110008071100080711000849
:100F28000711000807110008071100080711000839
:100F38000711000807110008071100080711000829
:100F48000711000807110008071100080711000819
:100F58000711000807110008071100080711000809
:100F680007110008071100080711000807110008F9
:100F780007110008071100080711000807110008E9
:100F880007110008071100080711000807110008D9
:100F980007110008071100080711000807110008C9
:100FA80007110008071100080711000807110008B9
:100FB80007110008071100080711000807110008A9
:100FC8000711000807110008071100080711000899
:100FD8000711000807110008071100080711000889
:100FE8000711000807110008071100080711000879
:100FF8000711000807110008071100080711000869
:1010080007110008D1100008BF100008414BD3EDAC
:10101800027AB0EE670A0220FFF71CFE70E03E4B32
:10102800D3ED007AB0EE670A0620FFF713FE67E0FB
:101038003A4BD3ED047AB0EE670A0F20FFF70AFEA9
:101048005EE0354BD3ED027AB0EE670A0820FFF771
:1010580001FE55E0324BD3ED017AB0EE670A042069
:10106800FFF7F8FD4CE02D4BD3ED007AB0EE670AA0
:101078000920FFF7EFFD43E0284BD3ED017AB0EEEE
:10108800670A1220FFF7E6FD3AE0244BD3ED027A17
:10109800B0EE670A0B20FFF7DDFD31E01F4B93ED43
:1010A800087ADFED207A77EE677AB0EE670A0C20CF
:1010B800FFF7D0FD24E0194BD3ED087AB0EE670AAC
:1010C8000D20FFF7C7FD1BE0134BD3ED087AB0EEF8
:1010D800670A0E20FFF7BEFD12E00F4BD3ED017A31
:1010E800B0EE670A0720FFF7B5FD09E00A4BD3ED1C
:1010F800047AB0EE670A1420FFF7ACFD00E000BFE9
:10110800034B1B780A2B02D9014B00221A7080BDB1
:1011180058000020B00300206003002010030020C6
:10112800EC0200206666663F80B52DED028B82B02A
:1011380000AF1F484FF4805102F074FE0346002BA5
:1011480005D01B484FF4805102F096FE04E0184881
:101158004FF4805102F082FE164B1B6915489847E0
:10116800B0EE408A144B1B6913489847F0EE407A5A
:1011780038EE277AF0EE007AC7EE277AC7ED017AC3
:101188000E4BDB6A0D4897ED010A98470C4B1B6B19
:101198000A4A92ED087ADFED0B7A77EE677A08480B
:1011A800B0EE670A98470837BD46BDEC028B80BD94
:1011B80000040048D8030020EC020020100300209F
:1011C800600300206666663F80B500AF0C484FF4A8
:1011D800005102F027FE0346002B05D008484FF4C3
:1011E800005102F049FE04E005484FF4005102F0B6
:1011F80035FE00F047FA034B1B690248984780BD4B
:1012080000040048D802002080B500AF9FED020A14
:10121800FF2000F00BF880BD0000000080B400AF94
:1012280001231846BD465DF8047B704780B586B03B
:1012380000AF87ED010A0346FB70FF233B72FF23D3
:101248007B72FB78BB720023FB7200233B73002385
:101258007B730023BB730123FB733B1D1B683B613E
:1012680007F1080303333A691A600023FB750EE09F
:101278000C4BD3F89820FB7D591CF97507F1080130
:101288000B441B78DBB25BB2074819469047FB7DDD
:10129800072BEDD9034BD3F8A03098471837BD4634
:1012A80080BD00BF280200206802002080B485B0FD
:1012B80000AF78607B681B68FB6007F10C031B6854
:1012C80007EE903AB0EE670A1437BD465DF8047B26
:1012D800704700BF80B500AF054B1B699847F0EE1B
:1012E800407AB0EE670A0020FFF7A0FF80BD00BF7C
:1012F800B003002080B500AF054B5B699847F0EE5E
:10130800407AB0EE670A0120FFF790FF80BD00BF6A
:10131800B003002080B500AF044BD3ED027AB0EEE5
:10132800670A0220FFF782FF80BD00BFB0030020DC
:1013380080B500AF044BD3ED007AB0EE670A032006
:10134800FFF774FF80BD00BFB003002080B500AF79
:10135800054B9B6904489847F0EE407AB0EE670A5F
:101368000420FFF763FF80BDD803002080B500AFDD
:10137800054B9B6904489847F0EE407AB0EE670A3F
:101388000520FFF753FF80BDEC02002080B500AFB9
:10139800054B5B6C04489847F0EE407AB0EE670A5C
:1013A8000620FFF743FF80BD6003002080B500AF33
:1013B800054B9B6C04489847F0EE407AB0EE670AFC
:1013C8000720FFF733FF80BD6003002080B500AF22
:1013D800054BDB6C04489847F0EE407AB0EE670A9C
:1013E8000820FFF723FF80BD6003002080B500AF11
:1013F800054B5B6C04489847F0EE407AB0EE670AFC
:101408000920FFF713FF80BD1003002080B500AF4F
:10141800054B9B6C04489847F0EE407AB0EE670A9B
:101428001220FFF703FF80BD1003002080B500AF36
:10143800054BDB6C04489847F0EE407AB0EE670A3B
:101448000B20FFF7F3FE80BD1003002080B500AF2E
:10145800054B5B6B04489847F0EE407AB0EE670A9C
:101468000C20FFF7E3FE80BD1003002090B583B089
:1014780000AF7860064B9C697868FFF717FFF0EEBD
:10148800407AB0EE670AA0470C37BD4690BD00BF52
:10149800B003002080B500AF014BDB69984780BDE1
:1014A800B003002090B583B000AF7860064B1C6A8B
:1014B8007868FFF7FBFEF0EE407AB0EE670AA047C7
:1014C8000C37BD4690BD00BFB003002080B500AF0B
:1014D800014B5B6A984780BDB003002090B583B08C
:1014E80000AF7860064B9C6B7868FFF7DFFEF0EE84
:1014F800407A0348B0EE670AA0470C37BD4690BD56
:101508006003002090B583B000AF7860064BDC6BB9
:101518007868FFF7CBFEF0EE407A0348B0EE670A32
:10152800A0470C37BD4690BD6003002090B583B03E
:1015380000AF7860064B1C6C7868FFF7B7FEF0EEDA
:10154800407A0348B0EE670AA0470C37BD4690BD05
:101558006003002090B583B000AF7860064B9C6BA9
:101568007868FFF7A3FEF0EE407A0348B0EE670A0A
:10157800A0470C37BD4690BD1003002090B583B03E
:1015880000AF7860064BDC6B7868FFF78FFEF0EEF3
:10159800407A0348B0EE670AA0470C37BD4690BDB5
:1015A8001003002090B583B000AF7860064B1C6C28
:1015B8007868FFF77BFEF0EE407A0348B0EE670AE2
:1015C800A0470C37BD4690BD1003002090B583B0EE
:1015D80000AF7860064B1C6B7868FFF767FEF0EE8B
:1015E800407A0348B0EE670AA0470C37BD4690BD65
:1015F8001003002090B583B000AF78600C4B1C68D6
:101608007868FFF753FEF0EE407A0020B0EE670AE4
:10161800A047074B1C687868FFF748FEF0EE407A51
:101628000120B0EE670AA0470C37BD4690BD00BF49
:10163800D402002090B583B000AF7860064B1C68D8
:101648007868FFF733FEF0EE407A0220B0EE670AC2
:10165800A0470C37BD4690BDD402002090B583B09A
:1016680000AF7860064B1C687868FFF71FFEF0EE45
:10167800407A0320B0EE670AA0470C37BD4690BDFC
:10168800D402002080B584B000AFFFF7BDFDC2E1F1
:101698000023BB7300237B73D94BD3F89C3007F12D
:1016A8000D02D848114698470346BB737B7BFF2B36
:1016B80002D0BB7B062BEFD87B7BFF2B40F0AB81A6
:1016C80000237B73CE4BD3F89C3007F10D02CD4835
:1016D800114698470346BB737B7BFF2B40F09B81E9
:1016E800BB7B052B40F297810023FB730BE0C44BB7
:1016F800D3F89C30FA7B391D0A44C24811469847F2
:10170800FB7B0133FB73FB7B052BF0D9FFF786FDD1
:1017180003461A467B7A9A4240F07D814FF090400A
:101728004FF4006102F07EFB0346002B06D04FF019
:1017380090404FF4006102F09FFB05E04FF09040AD
:101748004FF4006102F08AFB3B79712B00F2628151
:1017580001A252F823F000BF291900082F19000828
:10176800351900083B1900084119000847190008F5
:101778004D19000853190008591900085F19000885
:101788001D1A00086B190008711900081D1A0008B5
:101798001D1A00081D1A00081D1A00081D1A000845
:1017A800651900081D1A00081D1A00081D1A0008EE
:1017B8001D1A00081D1A00081D1A00081D1A000825
:1017C8001D1A00081D1A00081D1A00081D1A000815
:1017D8001D1A00081D1A00081D1A00081D1A000805
:1017E8001D1A00081D1A00081D1A00081D1A0008F5
:1017F8001D1A00081D1A00081D1A00081D1A0008E5
:101808001D1A00081D1A00081D1A00081D1A0008D4
:101818001D1A00081D1A00081D1A00081D1A0008C4
:101828001D1A00081D1A00081D1A00081D1A0008B4
:101838001D1A00081D1A00081D1A00081D1A0008A4
:101848001D1A00081D1A00081D1A00081D1A000894
:101858001D1A00081D1A00081D1A00081D1A000884
:101868001D1A00081D1A00081D1A00081D1A000874
:101878001D1A00081D1A00081D1A00081D1A000864
:101888001D1A00081D1A00081D1A00081D1A000854
:101898001D1A00081D1A00081D1A00081D1A000844
:1018A8001D1A00081D1A00081D1A00081D1A000834
:1018B8001D1A00081D1A00081D1A00081D1A000824
:1018C8001D1A00081D1A00081D1A00081D1A000814
:1018D8001D1A00081D1A00081D1A00081D1A000804
:1018E8001D1A00081D1A0008771900087D1900083C
:1018F800891900088F1900089B190008A719000802
:10190800B3190008BF190008CB190008D719000837
:10191800E3190008EF190008FB190008111A00085C
:10192800FFF7D8FC77E0FFF7E5FC74E0FFF7F2FC7F
:1019380071E0FFF7FDFC6EE0FFF708FD6BE0FFF7D5
:1019480015FD68E0FFF722FD65E0FFF72FFD62E077
:10195800FFF73CFD5FE0FFF749FD5CE0FFF756FD50
:1019680059E0FFF763FD56E0FFF770FD53E0FFF71E
:1019780091FD50E03B1D01331846FFF777FD4AE023
:10198800FFF7A4FD47E03B1D01331846FFF78AFD2A
:1019980041E03B1D01331846FFF7A0FD3BE03B1D2E
:1019A80001331846FFF7AEFD35E03B1D01331846FD
:1019B800FFF7BCFD2FE03B1D01331846FFF7CAFDBA
:1019C80029E03B1D01331846FFF7D8FD23E03B1DF6
:1019D80001331846FFF7E6FD1DE03B1D01331846AD
:1019E800FFF7F4FD17E03B1D01331846FFF702FE31
:1019F80011E03B1D01331846FFF71CFE0BE000BF4A
:101A080028020020B40200203B1D01331846FFF7CE
:101A180025FE00E000BF064BD3F8A43005489847E0
:101A28000346002B7FF434AE1037BD4680BD00BF9F
:101A380028020020B402002080B588B000AF78608A
:101A480007F10803184600F00DFF7A68224B9A4206
:101A580018D14FF41643BB6007F108031E48194616
:101A680000F046FE1C481D49012200F045FF1A4BB4
:101A7800194A926842F480529A601748012100F08E
:101A88000DFF26E07A68164B9A420FD114480121BF
:101A980000F004FF07F108031148194600F028FE7A
:101AA8000F480E49012200F027FF12E07A680D4B1B
:101AB8009A420ED10B48012100F0F0FE07F108030D
:101AC8000848194600F014FE06480449012200F0AF
:101AD80013FF2037BD4680BD0044004005010500C6
:101AE800003801400048004080B400AFBD465DF8B2
:101AF800047B704780B500AF0448054900F058FFE3
:101B08000346002B01D004F04DF980BD004400408D
:101B18000501050080B400AFBD465DF8047B704741
:101B280080B588B000AF1323BB820023FB8240F24C
:101B3800E733BB610023BB830023FB8307F1140356
:101B48001C48194600F084FF3B4600221A60043303
:101B580000221A60043300221A60043300221A603B
:101B6800043300221A60043360233B604FF461633E
:101B7800BB600123BB800023BB813B460D4819464F
:101B880001F01AF80B48082101F000FA3B46094811
:101B9800194601F09DF80748082101F013FA054895
:101BA800012100F0E9FF0348012101F05FFA203725
:101BB800BD4680BD002C014080B588B000AFC7236A
:101BC800BB820023FB8241F61F43BB610023BB831A
:101BD8000023FB8307F114032548194600F038FF5A
:101BE8003B4600221A60043300221A6004330022A4
:101BF8001A60043300221A60043300221A60043386
:101C080060233B600023BB600123BB800023BB81B2
:101C18003B461748194600F0CFFF1548082101F048
:101C2800B5F93B461248194601F052F81048082108
:101C380001F0C8F93B460E48194601F0C9F80C48AE
:101C4800082101F0DBF93B460948194601F03EF945
:101C58000748082101F0EEF90548012100F08CFF42
:101C68000348012101F002FA2037BD4680BD00BFBC
:101C78000004004080B584B000AF0023FB8100233E
:101C8800FB8140F6B8337B6000233B8000233B8117
:101C980000237B803B460B48194600F0D9FEFB89A0
:101CA80008481946012200F053FF06480321002284
:101CB800022301F033FA0348012100F05DFF1037D9
:101CC800BD4680BD0008004080B584B000AF002349
:101CD800FB810023FB8140F6B8337B6000233B8007
:101CE80000233B8100237B803B464FF08040194610
:101CF80000F0AEFEFB894FF080401946012200F04B
:101D080027FF4FF0804003210022002301F006FA4C
:101D18004FF08040012100F02FFF1037BD4680BDF5
:101D280080B582B000AF78607A680E4B9A4202D1D3
:101D3800FFF7F6FE13E07A680B4B9A4202D1FFF7E1
:101D48003BFF0CE07A68094B9A4202D1FFF792FFF9
:101D580005E07B68B3F1804F01D1FFF7B5FF083785
:101D6800BD4680BD002C0140000400400008004032
:101D780080B483B000AF78607B685B6A18460C3724
:101D8800BD465DF8047B704780B483B000AF7860CF
:101D980039607B683A685A620C37BD465DF8047B47
:101DA800704700BF80B500AF0548012101F07AF9FE
:101DB8000346002B03D00248012101F09DF980BDA4
:101DC8000008004080B483B000AF03463960FB715F
:101DD80097F90730002B0BDA0D49FB7903F00F0355
:101DE800043B3A68D2B21201D2B20B441A7609E027
:101DF800084997F907303A68D2B21201D2B20B44B7
:101E080083F800230C37BD465DF8047B704700BF9C
:101E180000ED00E000E100E080B582B000AF78603E
:101E28007B68013BB3F1807F01D301230FE00A4BAC
:101E38007A68013A5A604FF0FF300F21FFF7C2FF6E
:101E4800054B00229A60044B07221A6000231846AB
:101E58000837BD4680BD00BF10E000E080B500AF88
:101E68000648FFF7D9FF6FF0040001F011FE4FF0AC
:101E7800FF300021FFF7A6FF80BD00BF4019010019
:101E880080B500AF154B1B88013B9AB2134B1A80E3
:101E9800FEF720FF114B1B8803F001039BB2002BB8
:101EA80001D1FEF7FBFF0D4B1B8803F003039BB228
:101EB800002B01D1FFF738F9084B1B8803F00F03FB
:101EC8009BB2002B01D1FFF77FF9044B1B88002B35
:101ED80003D1024B4FF4C0721A8080BD000000206D
:101EE80080B500AF4FF40030012101F005FD4FF43B
:101EF8000020012101F000FD4FF08040012101F098
:101F080037FD80BD80B500AF4FF40030012101F0EE
:101F1800F3FC80BD80B500AF4FF40030012101F023
:101F2800EBFC4FF48020012101F0E6FC80BD00BFEE
:101F380080B500AF4FF40030012101F0DDFC80BD19
:101F480080B500AF4FF40030012101F0D5FC4FF40B
:101F58000030012101F00CFD80BD00BF80B500AF4D
:101F68004FF40020012101F0C7FC4FF4804001210B
:101F780001F0E0FC80BD00BF80B500AF4FF4002049
:101F8800012101F0B9FC4FF48020012101F0F0FC9F
:101F980080BD00BF80B500AF4FF40020012101F0E3
:101FA800ABFC4FF48020012101F0A6FC4FF4006047
:101FB800012101F0BFFC80BD80B500AF4FF40020C7
:101FC800012101F099FC0220012101F0D1FC80BD22
:101FD80080B500AF4FF48020012101F08DFC4FF453
:101FE8000020012101F088FC0220012101F0C0FC41
:101FF80080BD00BF80B500AF4FF48020012101F003
:102008007BFC0420012101F0B3FC4FF400300121D6
:1020180001F072FC0120012101F0AAFC80BD00BF83
:1020280080B500AF064801F041FC4FF48020012143
:1020380001F062FC4FF00050012101F05DFC80BD11
:10204800002A001080B500AF064801F02FFC4FF4BD
:102058008020012101F050FC4FF00050012101F0D7
:102068004BFC80BD002A001080B582B000AF03464B
:10207800FB71FB790C2B44D801A252F823F000BF66
:10208800C3200008C9200008BD200008D52000088A
:10209800E1200008DB200008CF200008E720000826
:1020A800ED200008F3200008F9200008FF200008B0
:1020B80005210008FFF726FF24E0FFF72BFF21E0AA
:1020C800FFF736FF1EE0FFF70BFF1BE0FFF738FFB7
:1020D80018E0FFF751FF15E0FFF740FF12E0FFF7A8
:1020E80059FF0FE0FFF768FF0CE0FFF771FF09E009
:1020F800FFF780FF06E0FFF793FF03E0FFF7A2FF7B
:1021080000E000BF0837BD4680BD00BF80B483B083
:1021180000AF0346FB71084B97F907205209F9797C
:1021280001F01F01012000FA01F143F822100C37D9
:10213800BD465DF8047B704700E100E080B584B0DF
:1021480000AF0346FB7126233B7300237B73FB79A7
:10215800BB730123FB7307F10C03184601F038FC2D
:102168002620FFF7D3FF1037BD4680BD80B582B06B
:1021780000AF0346FB714FF4E06001F017FCFB79F8
:10218800032B00D003E00120FFF7D8FF00BF08377A
:10219800BD4680BD80B588B000AF00233B610023F9
:1021A800BB600023FB600023BB610023FB61094B7C
:1021B8007B603B1D0848194601F086FC0648012152
:1021C80001F0E6FC0448682101F0FEFC2037BD461A
:1021D80080BD00BF2B1D20000078004080B582B074
:1021E80000AF01233B7102237B714FF480533B60A6
:1021F8003B461048194601F07DFD4FF400533B6003
:102208003B460C48194601F075FD4FF480633B606E
:102218003B464FF09040194601F06CFD4FF40063C7
:102228003B603B464FF09040194601F063FD08378C
:10223800BD4680BD0004004880B582B000AF0123D0
:102248003B7102237B714FF480533B603B464FF058
:102258009040194601F04EFD0837BD4680BD00BFCD
:1022680080B582B000AF01233B7102237B7120232C
:102278003B603B464FF09040194601F03BFD083764
:10228800BD4680BD80B582B000AF4FF090400321BD
:10229800072201F0FFFD4FF090400221072201F0D4
:1022A800F9FD02233B7103237B710023BB710123DA
:1022B800FB7104233B603B464FF09040194601F008
:1022C80019FD08233B603B464FF09040194601F04A
:1022D80011FD0837BD4680BD80B400AFBD465DF82E
:1022E800047B704780B400AFBD465DF8047B70473F
:1022F80080B582B000AF13480921032201F0CAFD5E
:102308004FF090400821032201F0C4FD02233B71E5
:102318000123BB710023FB7103237B714FF400730E
:102328003B603B460748194601F0E4FC4FF48073D4
:102338003B603B464FF09040194601F0DBFC083704
:10234800BD4680BD0008004880B582B000AF234874
:102358000021022201F09EFD20480121022201F005
:1023680099FD02233B7103237B710023BB71012379
:10237800FB7101233B603B461848194601F0BAFC43
:1023880002233B603B461548194601F0B3FC012384
:102398003B7102237B714FF480533B603B460F48EF
:1023A800194601F0A7FC20233B603B460C48194620
:1023B80001F0A0FC4FF400733B603B460848194607
:1023C80001F098FC4FF480733B603B460448194683
:1023D80001F090FC0837BD4680BD00BF00080048EA
:1023E8000004004880B582B000AF114806210222DF
:1023F80001F050FD0E480721022201F04BFD022397
:102408003B7103237B710023BB710123FB714023C4
:102418003B603B460648194601F06CFC80233B6054
:102428003B460348194601F065FC0837BD4680BDA8
:102438000008004880B582B000AF12480821022287
:1024480001F028FD10480121022201F023FD02239A
:102458003B7103237B710023BB710123FB710223B2
:102468003B603B460848194601F044FC4FF4807332
:102478003B603B460348194601F03CFC0837BD4623
:1024880080BD00BF000800480004004880B582B045
:1024980000AF1C480621022201F0FCFC1948072164
:1024A800022201F0F7FCC0233B6002233B710323A7
:1024B8007B710023BB710023FB713B461148194611
:1024C80001F018FC4FF090400021012201F0E2FCDD
:1024D8004FF090400121012201F0DCFC03233B6016
:1024E80002233B7103237B710023BB710023FB7123
:1024F8003B464FF09040194601F0FCFB0837BD46BB
:1025080080BD00BF0004004880B582B000AF4FF422
:1025180080433B6003233B710023FB713B46034828
:10252800194601F0E7FB0837BD4680BD00040048A6
:1025380080B582B000AF4FF400433B6003233B718A
:102548000023FB713B460348194601F0D3FB0837CB
:10255800BD4680BD0004004880B582B000AF034688
:10256800FB71FB790C2B44D801A252F823F000BF71
:10257800AD250008B3250008B9250008BF250008C7
:10258800C5250008CB250008D1250008D725000857
:10259800DD250008E3250008E9250008EF250008E7
:1025A800F5250008FFF71AFE24E0FFF745FE21E0B5
:1025B800FFF756FE1EE0FFF765FE1BE0FFF78CFEF7
:1025C80018E0FFF78FFE15E0FFF792FE12E0FFF725
:1025D800BBFE0FE0FFF706FF0CE0FFF72BFF09E05B
:1025E800FFF754FF06E0FFF78FFF03E0FFF7A0FFB8
:1025F80000E000BF0837BD4680BD00BF80B592B07F
:1026080000AF0346FB71394B3B6407F120031846C2
:1026180001F0C6FC386C012101F08AFD00237B64BF
:1026280002E07B6C01337B647B6CB3F5347FF8D3B9
:10263800386C002101F050FD386C01F03DFD00BF01
:10264800386C01F05FFD0346002BF9D10023FB60D5
:1026580000233B6100237B610023BB6100233B77A0
:1026680007F10C03386C194601F0BCFC4FF4005319
:102678003B6200237B620023BB620023FB620023D2
:102688003B6300237B630023BB63012387F83C3053
:1026980007F12003386C194601F042FCFB790B2B3B
:1026A80002D00C2B07D00DE0386C04210122032343
:1026B80001F060FD07E0386C05210122032301F0D9
:1026C80059FD00E0FEE7386C012101F0D9FC00BF9C
:1026D800386C012101F05EFE0346002BF8D0386CFF
:1026E80001F03AFE4837BD4680BD00BF00050050E6
:1026F80080B59CB000AF786039600023FB6600238A
:10270800BB6600237B667B681B6823F001027B683D
:102718001A607B685B687B667B6E23F440537B663C
:102728003B689B687A6E13437B667B687A6E5A6057
:102738007B681B687B667B6E23F4B05323F00C0325
:102748007B663B685A683B68DB681A433B681B69D1
:1027580013437A6E13437B667B687A6E1A607B68D4
:102768009B687B667B6E23F440737B663B685B6982
:102778007A6E13437B667B687A6E9A6007F108036A
:10278800184600F0BBFD7A68324B9A4202D13B6C86
:10279800BB6616E07A68304B9A4202D17B6CBB6606
:1027A8000FE07A682D4B9A4202D1BB6CBB6608E0F9
:1027B8007A682B4B9A4202D1FB6CBB6601E03B6DF9
:1027C800BB667B681B6803F40043002B11D0BB6E0B
:1027D8005A003B681B68B2FBF3F3FB66BB6E5B00F9
:1027E8003A681268B3FBF2F102FB01F29B1A7B66AE
:1027F8000EE03B681B68BA6EB2FBF3F3FB663B68FE
:102808001A68BB6EB3FBF2F102FB01F29B1A7B66FE
:102818003B681B685A087B6E9A4202D8FB6E0133EC
:10282800FB667B681B6803F40043002B0BD0FB6E30
:1028380003F00F035B087B66FA6E4FF6F0731340E4
:102848007A6E1343FB66FB6E9AB27B689A81703787
:10285800BD4680BD003801400044004000480040AB
:10286800004C004080B483B000AF78607B684FF4C0
:1028780016521A607B6800225A607B6800229A60B0
:102888007B680022DA607B680C221A617B68002270
:102898005A610C37BD465DF8047B704780B483B03D
:1028A80000AF78600B46FB70FB78002B06D07B6886
:1028B8001B6843F001027B681A6005E07B681B68AF
:1028C80023F001027B681A600C37BD465DF8047B73
:1028D800704700BF80B483B000AF78600B467B8040
:1028E8007B88C3F308039AB27B681A850C37BD4608
:1028F8005DF8047B704700BF80B489B000AFF86012
:10290800B9601346FB710023BB6100237B61002380
:102918003B610023FB61FB68FB61BB689BB21B0A40
:102928009BB2BB61BB68DBB27B617B69012202FAA7
:1029380003F33B61BB69022B03D1FB690433FB61E1
:1029480005E0BB69032B02D1FB690833FB61FB7906
:10295800002B06D0FB69FA6911683A690A431A60C4
:1029680006E0FB69FA6911683A69D2430A401A60BD
:102978002437BD465DF8047B704700BF80B485B03E
:1029880000AF786039600023FB737B68DA693B68C5
:102998001340002B02D00123FB7301E00023FB73DB
:1029A800FB7B18461437BD465DF8047B704700BFB3
:1029B80080B487B000AF786039600023FB600023E3
:1029C8007B610023BB600023FB743B689BB21B0A3E
:1029D8009BB2BB603B68DBB27B617B69012202FA78
:1029E80003F37B61BB68012B05D17B681B687A699F
:1029F80013407B610DE0BB68022B05D17B685B68E7
:102A08007A6913407B6104E07B689B687A691340AC
:102A18007B613B681B0CFB60FB68012202FA03F335
:102A2800FB607B68DB69FA681340FB607B69002BFD
:102A380005D0FB68002B02D00123FB7401E00023C2
:102A4800FB74FB7C18461C37BD465DF8047B704759
:102A580080B485B000AF786039600023FB817B6863
:102A68001B88FB817A68304B9A4213D07A682F4BC7
:102A78009A420FD07B68B3F1804F0BD07A682C4B09
:102A88009A4207D07A682B4B9A4203D07A682A4B2D
:102A98009A4208D1FB8923F07003FB813B685A886E
:102AA800FB891343FB817A68244B9A420CD07A68DD
:102AB800234B9A4208D0FB8923F44073FB813B687F
:102AC8001A89FB891343FB817B68FA891A803B6862
:102AD8005A687B68DA623B681A887B681A857A6864
:102AE800114B9A4213D07A68104B9A420FD07A68E9
:102AF800144B9A420BD07A68134B9A4207D07A68E3
:102B0800124B9A4203D07A680B4B9A4203D13B6826
:102B18005A897B681A867B6801225A611437BD4638
:102B28005DF8047B704700BF002C01400034014071
:102B38000004004000080040005001400010004020
:102B4800001400400040014000440140004801409A
:102B580080B483B000AF786013460A467A803B8021
:102B68007B687A881A853A887B685A610C37BD4633
:102B78005DF8047B704700BF80B483B000AF786015
:102B88000B46FB70FB78002B08D07B681B889BB238
:102B980043F001039AB27B681A8007E07B681B88C0
:102BA8009BB223F001039AB27B681A800C37BD46AA
:102BB8005DF8047B704700BF80B487B000AF7860D1
:102BC80039600023FB6000237B6100233B617B6845
:102BD8001B6A23F001027B681A627B681B6A7B61AF
:102BE8007B685B683B617B689B69FB60FB6823F4DF
:102BF800803323F07003FB60FB6823F00303FB6062
:102C08003B681B68FA681343FB607B6923F0020387
:102C18007B613B689B897A6913437B613B689B882E
:102C28007A6913437B617A68244B9A420FD07A6899
:102C3800234B9A420BD07A68224B9A4207D07A6883
:102C4800214B9A4203D07A68204B9A4223D17B6960
:102C580023F008037B613B68DB897A6913437B6156
:102C68007B6923F004037B613B68DB887A69134343
:102C78007B613B6923F480733B613B6923F40073F8
:102C88003B613B681B8A3A6913433B613B685B8A3B
:102C98003A6913433B617B683A695A607B68FA6812
:102CA8009A613B689A687B685A637B687A691A629A
:102CB8001C37BD465DF8047B704700BF002C0140FF
:102CC80000340140004001400044014000480140F8
:102CD80080B487B000AF786039600023FB600023C0
:102CE8007B6100233B617B681B6A23F010027B68D1
:102CF8001A627B681B6A7B617B685B683B617B68E7
:102D08009B69FB60FB6823F0807323F4E043FB605E
:102D1800FB6823F44073FB603B681B681B02FA687E
:102D28001343FB607B6923F020037B613B689B892D
:102D38001B017A6913437B613B689B881B017A6995
:102D480013437B617A68204B9A4203D07A681F4B01
:102D58009A4227D17B6923F080037B613B68DB893A
:102D68001B017A6913437B617B6923F040037B6114
:102D78003B68DB881B017A6913437B613B6923F459
:102D880080633B613B6923F400633B613B681B8ABA
:102D98009B003A6913433B613B685B8A9B003A6935
:102DA80013433B617B683A695A607B68FA689A61A9
:102DB8003B689A687B689A637B687A691A621C37F1
:102DC800BD465DF8047B7047002C0140003401408B
:102DD80080B487B000AF786039600023FB600023BF
:102DE8007B6100233B617B681B6A23F480727B68EC
:102DF8001A627B681B6A7B617B685B683B617B68E6
:102E0800DB69FB60FB6823F07003FB60FB6823F061
:102E18000303FB603B681B68FA681343FB607B692C
:102E280023F400737B613B689B891B027A69134317
:102E38007B613B689B881B027A6913437B617A68D4
:102E4800204B9A4203D07A681F4B9A4227D17B695C
:102E580023F400637B613B68DB891B027A691343B7
:102E68007B617B6923F480637B613B68DB881B02A1
:102E78007A6913437B613B6923F480533B613B6967
:102E880023F400533B613B681B8A1B013A691343D7
:102E98003B613B685B8A1B013A6913433B617B6872
:102EA8003A695A607B68FA68DA613B689A687B68B5
:102EB800DA637B687A691A621C37BD465DF8047B61
:102EC800704700BF002C01400034014080B487B037
:102ED80000AF7860396000233B610023FB6000236A
:102EE8007B617B681B6A23F480527B681A627B686B
:102EF8001B6AFB607B685B687B617B68DB693B61A5
:102F08003B6923F4E0433B613B6923F440733B6135
:102F18003B681B681B023A6913433B61FB6823F457
:102F28000053FB603B689B891B03FA681343FB60F3
:102F38003B689B881B03FA681343FB607A68114B54
:102F48009A4203D07A68104B9A4209D17B6923F4DC
:102F580080437B613B681B8A9B017A6913437B61D1
:102F68007B687A695A607B683A69DA613B689A6873
:102F78007B681A647B68FA681A621C37BD465DF87C
:102F8800047B7047002C01400034014080B485B0B8
:102F980000AF78600B467B800023FB607B689B69F1
:102FA800FB60FB6823F00803FB607B88FA68134327
:102FB800FB607B68FA689A611437BD465DF8047B4C
:102FC800704700BF80B485B000AF78600B467B8047
:102FD8000023FB607B689B69FB60FB6823F400634C
:102FE800FB607B881B02FA681343FB607B68FA6806
:102FF8009A611437BD465DF8047B704780B485B08C
:1030080000AF78600B467B800023FB607B68DB6940
:10301800FB60FB6823F00803FB607B88FA681343B6
:10302800FB607B68FA68DA611437BD465DF8047B9B
:10303800704700BF80B485B000AF78600B467B80D6
:103048000023FB607B68DB69FB60FB6823F400639B
:10305800FB607B881B02FA681343FB607B68FA6895
:10306800DA611437BD465DF8047B704780B483B0DD
:1030780000AF78600B46FB70FB78002B06D07B68AE
:103088005B6C43F400427B685A6405E07B685B6CC8
:10309800C3F30E027B685A640C37BD465DF8047BA7
:1030A800704700BF80B485B000AF78600B467B8066
:1030B8000023FB730023BB8100237B817B681B6992
:1030C8009AB27B881340BB817B68DB689AB27B88A5
:1030D80013407B81BB89002B05D07B89002B02D054
:1030E8000123FB7301E00023FB73FB7B18461437B5
:1030F800BD465DF8047B704780B483B000AF78604C
:103108000B467B807B88DB439BB21A467B681A613F
:103118000C37BD465DF8047B704700BF80B487B0AC
:1031280000AFF86079813A81FB800023FB8200239D
:10313800BB8200237B82FB689B68FB82FB689B69E0
:10314800BB82FB681B6A7B82FB8A23F00703FB8236
:10315800FA8A7B891343FB82BB8A23F4407323F0EA
:103168000303BB82BB8A43F4807343F00103BB8231
:103178007B8A23F022037B82FB881B019AB23B895E
:1031880013439AB27B8A13437B82FA8AFB689A605C
:10319800BA8AFB689A617A8AFB681A621C37BD464C
:1031A8005DF8047B704700BF80B483B000AF03466E
:1031B800FB71044BFA791A600C37BD465DF8047B45
:1031C800704700BF0000424280B483B000AF78600F
:1031D8003960094B084A526822F474125A60064B47
:1031E800054A516878683A6802430A435A600C37BE
:1031F800BD465DF8047B70470010024080B483B080
:1032080000AF0346FB71044BFA791A600C37BD46D0
:103218005DF8047B704700BF6000424280B485B00F
:1032280000AF78600023FB60094B5B68FB60FB68BC
:1032380023F00303FB60FA687B681343FB60044BCD
:10324800FA685A601437BD465DF8047B704700BFC2
:103258000010024080B485B000AF78600023FB60A6
:10326800094B5B68FB60FB6823F0F003FB60FA68BE
:103278007B681343FB60044BFA685A601437BD46F9
:103288005DF8047B704700BF0010024080B485B031
:1032980000AF78600023FB60094B5B68FB60FB684C
:1032A80023F4E063FB60FA687B681343FB60044B1C
:1032B800FA685A601437BD465DF8047B704700BF52
:1032C8000010024080B485B000AF78600023FB6036
:1032D800094B5B68FB60FB6823F46053FB607B6809
:1032E800DB00FA681343FB60034BFA685A60143733
:1032F800BD465DF8047B70470010024080B48DB075
:1033080000AF78600023BB6200237B6200233B622E
:103318000023FB610023BB610023FB6200237B6168
:1033280000233B61904B5B6803F00C03BB62BB6AF4
:10333800042B07D0082B09D0002B30D17B688B4A8F
:103348001A6030E07B68894A1A602CE0864B5B681B
:1033580003F470137B62844B5B6803F480333B6235
:103368007B6A9B0C02337B623B6A002B05D17B6A2C
:103378007F4A02FB03F3FB620DE07B4BDB6A03F041
:103388000F030133FB61794AFB69B2FBF3F37A6AF5
:1033980002FB03F3FB627B68FA6A1A6003E07B684E
:1033A800724A1A6000BF704B5B6803F0F003BB629F
:1033B800BB6A1B09BB626F4ABB6A13441B78DBB24A
:1033C8003B617B681A683B69DA407B685A60664BE8
:1033D8005B6803F4E063BB62BB6A1B0ABB62654AB5
:1033E800BB6A13441B78DBB2BB617B685A68BB6954
:1033F800DA407B689A605C4B5B6803F46053BB629D
:10340800BB6ADB0ABB625B4ABB6A13441B78DBB24C
:103418007B617B685A687B69DA407B68DA60524B6B
:10342800DB6A03F4F873BB62BB6A1B09BB62BB6A45
:1034380003F00F02504B33F812309BB2BB61BB6AEA
:1034480003F01003002B09D0BB69002B06D0FA6AE1
:10345800BB69B2FBF3F27B681A6103E07B681A6808
:103468007B681A61404BDB6A03F47853BB62BB6A22
:103478005B0ABB62BB6A03F00F023F4B33F81230A2
:103488009BB2BB61BB6A03F01003002B09D0BB6978
:10349800002B06D0FA6ABB69B2FBF3F27B685A616B
:1034A80003E07B681A687B685A612F4B1B6B03F03B
:1034B8001003002B03D17B682C4A9A6103E07B68D8
:1034C8001A687B689A61284B1B6B03F02003002B5A
:1034D80003D17B68254ADA6103E07B681A687B6858
:1034E800DA61214B1B6B03F04003002B03D17B688F
:1034F8001E4A1A6203E07B681A687B681A621A4BD4
:103508001B6B03F48073002B0DD07B681A68FB6A71
:103518009A4208D17A693B699A4204D1FB6A5A00F7
:103528007B685A6203E07B68DA687B685A6200232A
:10353800FB60104ABB6A13441B78DBB2FB600A4B82
:103548001B6B03F08073002B18D07B681A68FB6A2A
:103558009A4213D1FA683B699A420FD1FB6A5A0022
:103568007B681A630EE000BF0010024000127A0068
:1035780000093D0004000020140000207B689A68C0
:103588007B681A63904B1B6B03F00073002B0DD004
:103598007B681A68FB6A9A4208D1FA683B699A42C2
:1035A80004D1FB6A5A007B685A6303E07B689A6817
:1035B8007B685A63844B1B6B03F48053002B0DD03C
:1035C8007B681A68FB6A9A4208D17A693B699A4211
:1035D80004D1FB6A5A007B689A6203E07B68DA6868
:1035E8007B689A62784B1B6B03F40073002B0DD039
:1035F8007B681A68FB6A9A4208D17A693B699A42E1
:1036080004D1FB6A5A007B68DA6203E07B68DA68F7
:103618007B68DA626C4B1B6B03F48063002B0DD064
:103628007B681A68FB6A9A4208D17A693B699A42B0
:1036380004D1FB6A5A007B68DA6403E07B68DA68C5
:103648007B68DA64604B1B6B03F40063002B0DD0BE
:103658007B681A68FB6A9A4208D17A693B699A4280
:1036680004D1FB6A5A007B681A6503E07B68DA6854
:103678007B681A65544B1B6B03F40053002B0DD069
:103688007B681A68FB6A9A4208D17A693B699A4250
:1036980004D1FB6A5A007B685A6503E07B68DA68E4
:1036A8007B681A65484B1B6B03F40043002B0DD055
:1036B8007B681A68FB6A9A4208D17A693B699A4220
:1036C80004D1FB6A5A007B689A6503E07B68DA6874
:1036D8007B689A653C4B1B6B03F00303002B04D1FA
:1036E8007B68DA687B689A631EE0374B1B6B03F0D4
:1036F8000303012B04D17B681A687B689A6313E083
:10370800314B1B6B03F00303022B04D17B684FF48E
:1037180000429A6308E02C4B1B6B03F00303032B56
:1037280002D17B68294A9A63274B1B6B03F4403309
:10373800002B04D17B689A687B68DA6321E0224B0E
:103748001B6B03F44033B3F5803F04D17B681A68E0
:103758007B68DA6315E01C4B1B6B03F44033B3F54D
:10376800003F04D17B684FF40042DA6309E0164B4E
:103778001B6B03F44033B3F5403F02D17B68134A17
:10378800DA63114B1B6B03F44023002B04D17B68D5
:103798009A687B681A6425E00B4B1B6B03F4402383
:1037A800B3F5802F04D17B681A687B681A6419E026
:1037B800054B1B6B03F44023B3F5002F08D17B683E
:1037C8004FF400421A640DE00010024000127A0023
:1037D800344B1B6B03F44023B3F5402F02D17B68B5
:1037E800314A1A642F4B1B6B03F44013002B04D18E
:1037F8007B689A687B685A6421E02A4B1B6B03F448
:103808004013B3F5801F04D17B681A687B685A643B
:1038180015E0244B1B6B03F44013B3F5001F04D1D0
:103828007B684FF400425A6409E01E4B1B6B03F49B
:103838004013B3F5401F02D17B681B4A5A64194BE9
:103848001B6B03F44003002B04D17B689A687B68E8
:103858009A6421E0134B1B6B03F44003B3F5800F0C
:1038680004D17B681A687B689A6415E00D4B1B6B62
:1038780003F44003B3F5000F04D17B684FF4004212
:103888009A6409E0074B1B6B03F44003B3F5400F40
:1038980002D17B68044A9A643437BD465DF8047BDC
:1038A800704700BF0010024000127A0080B485B053
:1038B80000AF78600023FB607B681B0FFB60FB6830
:1038C800002B06D00B4B0B4AD26A22F47852DA62EC
:1038D80005E0084B074AD26A22F4F872DA62054B0F
:1038E800044AD16A7A680A43DA621437BD465DF839
:1038F800047B70470010024080B483B000AF78604A
:103908000B46FB70FB78002B06D0094B084A51691F
:103918007A680A435A6106E0054B054A51697A6894
:10392800D2430A405A610C37BD465DF8047B7047A4
:103938000010024080B483B000AF78600B46FB7083
:10394800FB78002B06D0094B084A91697A680A432C
:103958009A6106E0054B054A91697A68D2430A40A4
:103968009A610C37BD465DF8047B70470010024031
:1039780080B483B000AF78600B46FB70FB78002BF7
:1039880006D0094B084AD1697A680A43DA6106E029
:10399800054B054AD1697A68D2430A40DA610C3787
:1039A800BD465DF8047B70470010024080B483B0C8
:1039B80000AF7860054A7B6843F0BF6343F4003387
:1039C800D3600C37BD465DF8047B704700ED00E01E
:1039D80080B487B000AF786000237B6100233B612F
:1039E8000F23FB607B68DB78002B38D0264BDB6825
:1039F800DB4303F4E0631B0A7B617B69C3F10403C7
:103A08003B617B69FA6822FA03F3FB607B685B78A9
:103A18001A463B6902FA03F37B617B689B781A4676
:103A2800FB6813407A6913437B617B691B017B61E7
:103A380016497B681B787A69D2B20B4483F8002355
:103A4800124B7A6812785209D2B27968097801F073
:103A58001F01012000FA01F143F822100EE00B4B80
:103A68007A6812785209D2B27968097801F01F0190
:103A7800012000FA01F1203243F822101C37BD461C
:103A88005DF8047B704700BF00ED00E000E100E056
:103A980080B483B000AF78607B68042B06D1094BF3
:103AA800084A126842F004021A6005E0054B054A0C
:103AB800126822F004021A600C37BD465DF8047BD8
:103AC800704700BF10E000E080B485B000AF7860B8
:103AD80039600023FB607B681B6823F001027B6868
:103AE8001A607B681B68FB60FA68284B1340FB6010
:103AF8003B685A683B689B681B021343FA68134388
:103B0800FB607B68FA681A603B681B6823F0706288
:103B18007B681A617B681B6843F001027B681A6046
:103B28000023FB607B68FA689A607B68FA68DA6051
:103B38003B689A693B681B691343FB607B68FA68BA
:103B48009A607B689B6843F400427B689A603B6894
:103B5800DB68FB607B681A68FB681A437B681A603D
:103B68007B685B68FB60FB6823F0784323F40043C1
:103B7800FB603B685B69FA681343FB607B68FA6823
:103B88005A601437BD465DF8047B7047FFE0CF00EC
:103B980080B483B000AF78600B46FB70FB78002BD5
:103BA80006D07B681B6843F001027B681A6005E059
:103BB8007B681B6823F001027B681A600C37BD46DE
:103BC8005DF8047B704700BF80B485B000AF7860B3
:103BD8000B467B800023FB607B685B68FB60FB68AF
:103BE80023F47F7323F00303FB607B88C3F309038B
:103BF800FA681343FB607B68FA685A601437BD465D
:103C08005DF8047B704700BF80B487B000AFF860F0
:103C18007B600B467B8113467B7200237B61FB68CC
:103C28005B687B617A690D4B13407B617B89C3F3C9
:103C380009027B7A1B0403F47F031A437B681A4347
:103C48003B6A13437A6913437B61FB687A695A605C
:103C58001C37BD465DF8047B704700BF009800FC28
:103C680080B483B000AF78600B46FB70FA787B684D
:103C78009A620C37BD465DF8047B704780B483B008
:103C880000AF78607B685B6ADBB218460C37BD46CC
:103C98005DF8047B704700BF80B485B000AF7860E2
:103CA80039600023BB600023FB737B689B69BB60A2
:103CB800BA683B681340BB60BB68002B02D0012385
:103CC800FB7301E00023FB73FB7B18461437BD46EA
:103CD8005DF8047B704700BF80B483B000AF7860A4
:103CE80039607B683A68DA610C37BD465DF8047B59
:103CF800704700BF80B487B000AF78603960002398
:103D08007B6100233B610023FB600023BB60002331
:103D18007B617EE07B69012202FA03F33B613B6829
:103D28001A683B691340FB60FA683B699A426DD197
:103D38003B681B79012B03D03B681B79022B34D1DC
:103D48007B689A687B695B00032101FA03F3DB4314
:103D58001A407B689A607B689A683B685B79194669
:103D68007B695B0001FA03F31A437B689A607B68FE
:103D78009B889AB27B699BB2012101FA03F39BB23B
:103D8800DB439BB213409AB27B689A807B689B881E
:103D98009AB23B689B7919467B699BB201FA03F397
:103DA8009BB213439AB27B689A807B681A687B69D6
:103DB8005B00032101FA03F3DB431A407B681A60B6
:103DC8007B681A683B681B7919467B695B0001FAB6
:103DD80003F31A437B681A607B68DB68BB607B6906
:103DE8009BB25B00032202FA03F3DB43BA68134079
:103DF800BB603B68DB791A467B695B0002FA03F318
:103E0800BA681343BB607B68BA68DA607B690133C0
:103E18007B617B690F2B7FF67DAF1C37BD465DF854
:103E2800047B704780B485B000AF78600B467B8018
:103E38000023FB737B689B8A9AB27B8813409BB2F2
:103E4800002B02D00123FB7301E00023FB73FB7BF3
:103E580018461437BD465DF8047B704780B483B0BC
:103E680000AF78600B467B807A887B689A610C3754
:103E7800BD465DF8047B704780B483B000AF7860BE
:103E88000B467B807B687A881A850C37BD465DF8BF
:103E9800047B704780B485B000AF786013460A464B
:103EA8007A807B700023FB600023BB607A787B8874
:103EB80003F007039B0002FA03F3FB607B88DB082F
:103EC8009BB21A467B88DB089BB219467B6808318F
:103ED80053F821107B8803F007039B000F2000FA9A
:103EE80003F3DB4319407B68083243F822107B88D0
:103EF800DB089BB21A467B68083253F82220FB681D
:103F08001343BB607B88DB089BB21A467B68083288
:103F1800B96843F822101437BD465DF8047B704732
:103F280080B485B000AF786039600023FB607B689F
:103F3800DB68FB60FA68194B1340FB603B681A6842
:103F48003B685B681A433B689B681A433B68DB68BD
:103F58001A433B681B691A433B685B691A433B6811
:103F68009B691343FA681343FB607B68FA68DA605D
:103F78007B681B6BFB60FB6823F00F03FB603B68EF
:103F88001B7F013BFA681343FB607B68FA681A637E
:103F98001437BD465DF8047B704700BF07C0FFFDBE
:103FA80080B483B000AF78607B6800221A607B68B9
:103FB80000225A607B6800229A607B680022DA60DF
:103FC8007B6800221A617B6800225A617B680022A4
:103FD8009A617B6801221A770C37BD465DF8047B2D
:103FE800704700BF80B485B000AF786039600023A7
:103FF800FB607B68B3F1A04F03D07A681C4B9A42F0
:1040080007D11C4B9B68FB60FA681B4B1340FB6095
:1040180006E01A4B9B68FB60FA68174B1340FB607D
:104028003B681A683B685B681A433B689B681A439D
:104038003B68DB681B031A433B681B7C1B0213436A
:10404800FA681343FB607B68B3F1A04F03D07A682A
:10405800074B9A4203D1074BFA689A6002E0074B74
:10406800FA689A601437BD465DF8047B704700BF54
:104078000001005000030050E010FCFF0007005052
:1040880080B483B000AF78600B46FB70FB78002BE0
:1040980006D07B689B6843F001027B689A6005E064
:1040A8007B689B6843F002027B689A600C37BD46C8
:1040B8005DF8047B704700BF80B483B000AF7860C0
:1040C8007B689B6843F000427B689A600C37BD466A
:1040D8005DF8047B704700BF80B483B000AF7860A0
:1040E80039607B689B6823F080427B689A607B68B4
:1040F8009A683B681A437B689A600C37BD465DF83E
:10410800047B704780B485B000AF78600023FB73F0
:104118007B689B68002B02DA0123FB7301E0002314
:10412800FB73FB7B18461437BD465DF8047B70476C
:1041380080B483B000AF78600B46FB707B689B68E7
:1041480023F040527B689A60FB78002B06D07B688E
:104158009B6843F080527B689A6005E07B689B68A7
:1041680043F000527B689A600C37BD465DF8047BCB
:10417800704700BF80B485B000AF7860F970BA703E
:104188007B700023FB600023BB60BB78042B21D825
:104198007B681B6BFB60BA7813465B0013445B00BB
:1041A8001F2202FA03F3BB60BB68DB43FA681340C3
:1041B800FB60F978BA7813465B0013445B0001FA98
:1041C80003F3BB60FA68BB681343FB607B68FA685B
:1041D8001A6374E0BB78092B23D87B685B6BFB60A0
:1041E800BB785A1F13465B0013445B001F2202FA78
:1041F80003F3BB60BB68DB43FA681340FB60F978E4
:10420800BB785A1F13465B0013445B0001FA03F3A3
:10421800BB60FA68BB681343FB607B68FA685A6343
:104228004DE0BB780E2B25D87B689B6BFB60BB7879
:10423800A3F10A0213465B0013445B001F2202FA33
:1042480003F3BB60BB68DB43FA681340FB60F97893
:10425800BB78A3F10A0213465B0013445B0001FA22
:1042680003F3BB60FA68BB681343FB607B68FA68BA
:104278009A6324E07B68DB6BFB60BB78A3F10F02D9
:1042880013465B0013445B001F2202FA03F3BB6072
:10429800BB68DB43FA681340FB60F978BB78A3F18D
:1042A8000F0213465B0013445B0001FA03F3BB6083
:1042B800FA68BB681343FB607B68FA68DA63FB78CB
:1042C800092B23D97B689B69FB60FB78A3F10A0261
:1042D80013465B001344072202FA03F3BB607B68B2
:1042E8009A69BB68DB431A407B689A617B68996965
:1042F8007878FB78A3F10A0213465B00134400FAAE
:1043080003F341EA03027B689A611FE07B685B69FB
:10431800FB60FB785A1E13465B001344382202FAEE
:1043280003F3BB607B685A69BB68DB431A407B6850
:104338005A617B6859697878FA7813465B001344A8
:1043480000FA03F341EA03027B685A611437BD4659
:104358005DF8047B704700BF80B483B000AF78601D
:104368007B689B6843F004027B689A600C37BD4603
:104378005DF8047B704700BF80B483B000AF7860FD
:104388007B681B6C9BB218460C37BD465DF8047BF6
:10439800704700BF80B485B000AF786039600023F3
:1043A800FB737B681A683B681340002B02D001231B
:1043B800FB7301E00023FB73FB7B18461437BD46F3
:1043C8005DF8047B704700BF80B485B000AF7860AB
:1043D80087ED000A7B6893ED0A7AD7ED007A77EECD
:1043E800677A7B68C3ED037A7B6893ED047A7B6810
:1043F800D3ED037A77EE277A7B68C3ED047A7B687E
:1044080093ED047A7B68D3ED057AB4EEE77AF1EEA2
:1044180010FA04DD7B685A697B681A6114E07B68CE
:1044280093ED047A7B68D3ED057AF1EE677AB4EE02
:10443800E77AF1EE10FA07D57B68D3ED057AF1EE4D
:10444800677A7B68C3ED047A7B684FF000021A62D2
:104458007B68D3ED007AF5EE407AF1EE10FA0AD0D7
:104468007B6893ED007A7B68D3ED037A67EE277A51
:104478007B68C3ED087A7B68D3ED017AF5EE407A64
:10448800F1EE10FA0FD07B6893ED087A7B68D3EDD4
:10449800016A7B68D3ED047A66EEA77A77EE277A0D
:1044A8007B68C3ED087A7B68D3ED027AF5EE407A33
:1044B800F1EE10FA39D07B6893ED037A7B68D3ED7F
:1044C800067A77EE677AC7ED037A7B6893ED077A09
:1044D800D7ED037AB4EEE77AF1EE10FA03D57B68EC
:1044E800DB69FB6012E07B68D3ED077AB1EE677A8F
:1044F800D7ED037AB4EEE77AF1EE10FA06DD7B68C1
:10450800D3ED077AF1EE677AC7ED037A7B6893ED0E
:10451800087A7B68D3ED026AD7ED037A66EEA77A4C
:1045280077EE277A7B68C3ED087A7B6893ED087A83
:104538007B68D3ED097AB4EEE77AF1EE10FA04DD80
:104548007B685A6A7B681A6214E07B6893ED087A84
:104558007B68D3ED097AF1EE677AB4EEE77AF1EE8B
:1045680010FA07D57B68D3ED097AF1EE677A7B6894
:10457800C3ED087A7B68DA687B689A611437BD46B0
:104588005DF8047B704700BF80B483B000AF7860EB
:1045980087ED000A7B683A689A620C37BD465DF879
:1045A800047B704780B483B000AF78607B689B6AF7
:1045B80007EE903AB0EE670A0C37BD465DF8047B0B
:1045C800704700BF80B483B000AF786087ED000A01
:1045D8007B683A681A600C37BD465DF8047B704703
:1045E80080B483B000AF786087ED000A7B683A68D2
:1045F8005A600C37BD465DF8047B704780B483B0C1
:1046080000AF786087ED000A7B683A689A600C37DB
:10461800BD465DF8047B704780B483B000AF786016
:104628007B681B6807EE903AB0EE670A0C37BD4608
:104638005DF8047B704700BF80B483B000AF78603A
:104648007B685B6807EE903AB0EE670A0C37BD46A8
:104658005DF8047B704700BF80B483B000AF78601A
:104668007B689B6807EE903AB0EE670A0C37BD4648
:104678005DF8047B704700BF80B483B000AF7860FA
:104688007B684FF07E521A607B684FF000025A60D8
:104698007B684FF000029A607B684FF00002DA6096
:1046A8007B684FF000021A617B684FF000029A6144
:1046B8007B684FF000021A627B684FF000029A6232
:1046C8007B680F4ADA627B680E4A1A637B680E4A77
:1046D8005A637B680D4A5A647B680D4A9A647B6802
:1046E8000C4ADA647B680C4A9A637B680B4ADA6383
:1046F8007B680B4A1A640C37BD465DF8047B70472B
:10470800D143000891450008AD450008214600083E
:104718004146000861460008CD450008E945000803
:104728000546000880B400AF194B4FF000021A602C
:10473800174B4FF000025A60164B1A68144B9A60D8
:10474800134B154ADA61124B144A1A62104B4FF098
:104758000002DA600E4B4FF000021A610C4B4FF06A
:1047680000025A610A4B4FF000029A61084B0C4A4A
:104778005A62074B4FF000029A62054B4FF0000255
:10478800DA62034B064A1A63BD465DF8047B70473C
:104798005C0000202460000838BEF63BADA3DA3E7A
:1047A8000000204180B483B000AF87ED010AC7ED57
:1047B800000A7F4B93ED007A7D4BD3ED026A7C4B68
:1047C800D3ED017A97ED006A76EE677A66EEA77AFE
:1047D80077EE277A764BC3ED007A754B93ED097A1D
:1047E800734BD3ED026A724B93ED026A704BD3EDB3
:1047F8000C7A26EE276A6E4BD3ED0A7A36EE676A94
:104808006B4BD3ED0B7A36EE676A694BD3ED077ABB
:1048180076EE277A66EEA77A77EE277A644BC3EDB1
:10482800097A634B93ED0A7A614BD3ED026A604BC8
:10483800D3ED0C7A66EEA77A77EE677A5C4BC3ED18
:104848000A7A5B4B93ED0B7A594BD3ED026A584BBE
:10485800D3ED0C7A66EEA77A77EE677A544BC3ED00
:104868000B7A534B93ED0C7A514BD3ED026A504BB4
:10487800D3ED077A66EEA77A77EE277A4C4BC3ED2D
:104888000C7A4B4BD3ED007A97ED017A77EE677A85
:10489800474BC3ED037A464B93ED097A444BD3ED6E
:1048A800087A77EE277A424BC3ED047A404B93EDB2
:1048B800097A3F4BD3ED047AC7EE277A3C4BC3ED18
:1048C800057A3B4B93ED0B7A394BD3ED047AC7EE5F
:1048D800277A374BC3ED067A354B93ED007A344B84
:1048E800D3ED056A324BD3ED037A66EEA77A77EEFD
:1048F800277A2F4BC3ED007A2D4B93ED017A2C4B81
:10490800D3ED066A2A4BD3ED037A66EEA77A77EEE3
:10491800277A274BC3ED017A254B93ED0C7A244B6C
:10492800D3ED066A224BD3ED0A7A66EEA77A77EEC4
:10493800677A1F4BC3ED0C7A1D4B93ED0B7A1C4B1A
:10494800D3ED066A1A4BD3ED097A66EEA77A77EEAD
:10495800677A174BC3ED0B7A154B93ED0A7A144B14
:10496800D3ED056A124BD3ED0A7A66EEA77A77EE95
:10497800677A0F4BC3ED0A7A0D4B93ED097A0C4B0E
:10498800D3ED056A0A4BD3ED097A66EEA77A77EE7E
:10499800677A074BC3ED097A054B1B6807EE903A17
:1049A800B0EE670A0C37BD465DF8047B704700BF60
:1049B8005C00002080B483B000AF87ED010A044B8F
:1049C8007A68DA610C37BD465DF8047B704700BF32
:1049D8005C00002080B483B000AF87ED010A044B6F
:1049E8007A681A620C37BD465DF8047B704700BFD1
:1049F8005C00002080B400AF034B044A1A62BD4635
:104A08005DF8047B704700BF5C000020ADA3DA3E70
:104A180080B400AF034B044ADA61BD465DF8047BFD
:104A2800704700BF5C00002038BEF63B80B400AF82
:104A3800044BDB6907EE903AB0EE670ABD465DF8B5
:104A4800047B70475C00002080B400AF044B1B6AF5
:104A580007EE903AB0EE670ABD465DF8047B7047F2
:104A68005C00002080B485B000AFF860B960FA71CE
:104A7800BB80FB68BA681A60FB68FA791A71FB6830
:104A88000022DA80FB6800221A81FB68BA885A8102
:104A98001437BD465DF8047B704700BF80B584B00D
:104AA80000AF786039600023FB8146E07B68DB88D3
:104AB8001A467B681B891344BB607B685B891A466E
:104AC800BB689A4209D97B681A68BB681344FA899B
:104AD80039680A4412781A7010E07B6819687B6894
:104AE8005B891A46BB68B3FBF2F002FB00F29B1A23
:104AF8000B44FA8939680A4412781A70786800F009
:104B080073F80346002B06D17B681B8901339AB2E0
:104B18007B681A810EE07B68DB8801339AB27B6878
:104B2800DA807B68DA887B685B899A4202D37B6883
:104B38000022DA80FB890133FB817B681B79FA89C3
:104B48009A42B3D31037BD4680BD00BF80B584B04C
:104B580000AF78603960786800F034F80346002BBD
:104B680029D10023FB8121E0FB893A6813447A6844
:104B780011687A68D2880A4412781A707B681B898F
:104B8800013B9AB27B681A817B68DB8801339AB251
:104B98007B68DA807B68DA887B685B899A4202D313
:104BA8007B680022DA80FB890133FB817B681B79F3
:104BB800FA899A42D8D37B681B8918461037BD46B4
:104BC80080BD00BF80B483B000AF78607B681B896C
:104BD800002B14BF00230123DBB218460C37BD4657
:104BE8005DF8047B704700BF80B483B000AF786085
:104BF8007B681A897B685B899A4234BF002301234A
:104C0800DBB218460C37BD465DF8047B704700BF21
:104C180080B584B000AF034687ED000AFB7197EDBD
:104C2800007ADFED407AB4EEE77AF1EE10FA75D843
:104C380097ED007ADFED3C7AB4EEE77AF1EE10FA00
:104C48006CDBD7ED007AF5EEC07AF1EE10FAD4BF3E
:104C580000230123DBB2FB73FB79002B02D0012B6D
:104C68002DD05BE0FB7B002B09D130484FF48051FD
:104C7800FFF7F4F82E482021FFF7FEF808E02B484C
:104C88004FF48051FFF7F8F829482021FFF7E6F89C
:104C9800284AFB7B002B07D0D7ED007AFCEEE77A99
:104CA80017EE903A9BB208E0D7ED007AF1EE677AFA
:104CB800FCEEE77A17EE903A9BB293632EE0FB7B0B
:104CC800002B0AD11A484FF40071FFF7D5F818489D
:104CD8004FF48071FFF7C2F809E015484FF40071EE
:104CE800FFF7BCF812484FF48071FFF7C5F8114A76
:104CF800FB7B002B07D0D7ED007AFCEEE77A17EEA6
:104D0800903A9BB208E0D7ED007AF1EE677AFCEEB4
:104D1800E77A17EE903A9BB2536300BF1037BD464F
:104D280080BD00BF00007A4400007AC40008004833
:104D380000040048002C014080B582B000AF034653
:104D480087ED000AFB7197ED007ADFED3D7AB4EE4E
:104D5800E77AF1EE10FA01D53A4B3B6097ED007A0D
:104D6800DFED397AB4EEE77AF1EE10FA01DD374B70
:104D78003B60FB79032B5FD801A252F823F000BFF8
:104D8800994D0008BB4D0008E14D00080F4E000882
:104D9800D7ED007A37EEA77ADFED2D7A77EE277A0E
:104DA800FCEEE77A17EE903A9BB2184600F052F8FC
:104DB80043E0D7ED007AF1EE677A37EEA77ADFEDB8
:104DC800247A77EE277AFCEEE77A17EE903A9BB2D0
:104DD800184600F04FF830E097ED007AF2EE047ACA
:104DE80037EE277AF1EE007A27EE277ADFED187A88
:104DF80077EE277AFCEEE77A17EE903A9BB21846E0
:104E080000F048F819E0D7ED007AB1EE677AF1EED4
:104E1800007A27EE277ADFED0E7A37EE277AF3EE5F
:104E28000E7A77EE277AFCEEE77A17EE903A9BB285
:104E3800184600F03FF800E000BF0837BD4680BDC7
:104E4800000034C3000034C300003443000034437E
:104E58000000074480B483B000AF0346FB80044BD6
:104E6800FA885A630C37BD465DF8047B704700BF6B
:104E78000004004080B483B000AF0346FB80044BBD
:104E8800FA889A630C37BD465DF8047B704700BF0B
:104E98000004004080B483B000AF0346FB80044B9D
:104EA800FA88DA630C37BD465DF8047B704700BFAB
:104EB8000004004080B483B000AF0346FB80044B7D
:104EC800FA881A640C37BD465DF8047B704700BF4A
:104ED8000004004000000000B0B584B000AF786066
:104EE8007B68DB681846FCF743FF03469BB2A3F2D6
:104EF800DC539BB2FB81B7F90E3007EE903AB8EE5F
:104F0800E77ADFED237A27EE277A7B68D3ED007AFC
:104F1800C7EE277A7B68C3ED017A7B689B681846E1
:104F2800FBF7BAFA04460D46B7F90E301846FBF7F8
:104F3800A1FA02460B461046194613A3D3E90023EB
:104F4800FBF7FEFA02460B4620462946FBF746F9D0
:104F580002460B4610461946FBF704FD02467B68DD
:104F68009A607B68DB68184640F2DC51FCF70CFF5E
:104F78007B685B6807EE903AB0EE670A1037BD466B
:104F8800B0BD00BFAFF3008014B77AB85472953F34
:104F9800CDCC4C3DAFF3008080B483B000AF7860D7
:104FA8007B685B6807EE903AB0EE670A0C37BD463F
:104FB8005DF8047B704700BF80B500AF0A20FDF79D
:104FC80053F81E48FCF7ACFE4FF08040FCF7A8FEF3
:104FD8000A20FDF7C1FA1A4B1A681A4B1A60194BC6
:104FE800164ADA60174B4FF000025A60154B4FF023
:104FF80000029A60134B144A1A61124B134A9A61C1
:10500800104B134ADA610E4B1A68124B1A60114B97
:105018004FF08042DA600F4B4FF000025A600D4BA0
:105028004FF000029A600B4B074A1A61094B074A76
:105038009A61084B064ADA6180BD00BF000800404B
:1050480028600008D8030020E14E0008A14F00089E
:10505800911D0008EC02002080B500AF0720FDF785
:1050680003F80648FCF75CFE0720FDF775FA00F028
:1050780029F8034B034A1A6080BD00BF002C014089
:105088000C030020194C000880B500AF0820FCF77D
:10509800EBFF0948FCF744FE0820FDF75DFA0920FC
:1050A800FCF7E2FF0448FCF73BFE0920FDF754FA41
:1050B800024B034A1A6080BD00040040D40200205D
:1050C800414D000880B500AF1E48FFF7D5FA1D4BCB
:1050D8009B6B1C489FED1C0A98471A4BDB6B1948C1
:1050E800B0EE040A9847174B1B6C16489FED170A39
:1050F8009847144B164A5A62124B164A5A61114B7A
:10510800154ADA611548FFF7B7FA144B9B6B134839
:105118009FED130A9847114BDB6B10489FED110A5E
:1051280098470E4B1B6C0D489FED0F0A98470B4B89
:105138000E4A5A62094B0E4A5A61084B0C4ADA6108
:1051480080BD00BF60030020000020420000C8426C
:10515800000048440000C8410000964310030020A6
:10516800295C0F3D6C09793B52499D3A000070411A
:105178000000164380B582B000AF0023FB71012008
:1051880000F04EF80346FB71102000F00DF80346BE
:10519800FB71082000F026F80346FB71FB791846DE
:1051A8000837BD4680BD00BF80B584B000AF034658
:1051B800FB710023FB73FB7907EE103AF8EE477A90
:1051C800074BC3ED007AFB1DD0201B211A4600F0C7
:1051D80053FA0346FB73FB7B18461037BD4680BD68
:1051E800F803002080B584B000AF0346FB710023AC
:1051F800FB73FB7907EE103AF8EE477A074BC3EDDD
:10520800017AFB1DD0201C211A4600F035FA03460E
:10521800FB73FB7B18461037BD4680BDF8030020A2
:1052280080B584B000AF0346FB710023FB73FB1D00
:10523800D0206B211A4600F01FFA0346FB73FB7B54
:1052480018461037BD4680BD80B586B000AF78607F
:105258000023FB7507F11103D0203C211A460123D6
:1052680000F054F90346FB7507F11003D0203B21E9
:105278001A46012300F04AF90346FB7507F10F03AC
:10528800D02040211A46012300F040F90346FB755F
:1052980007F10E03D0203F211A46012300F036F90A
:1052A8000346FB753B7C1B029AB27B7C1343BB8293
:1052B800BB7B1B029AB2FB7B13437B82B7F912308C
:1052C80006EE903AB8EEE67AB7F9143006EE903A60
:1052D800F8EEE67AC7EE277AB0EE670A00F0B2FD7C
:1052E80010EE103A1846FBF7D7F802460B46104660
:1052F80019464FF00002344BFBF722F902460B46E1
:10530800104619462EA3D3E90023FBF743FA0246B9
:105318000B4610461946FBF725FB02462B4B1A6035
:10532800B7F91230002B07DA284BD3ED007AF5EEE7
:10533800C07AF1EE10FA0BD4B7F91230002B0CDD5D
:10534800224BD3ED007AF5EEC07AF1EE10FA04DDC7
:105358001E4B1A687B681A602CE0B7F91230002BD4
:1053680012DD1A4BD3ED007AF5EEC07AF1EE10FAA1
:105378000AD5164B93ED007ADFED157A77EE277A8A
:105388007B68C3ED007A15E0B7F91230002B11DA0B
:105398000E4BD3ED007AF5EEC07AF1EE10FA09DD86
:1053A8000A4B93ED007ADFED0A7A77EE677A7B682D
:1053B800C3ED007AFB7D18461837BD4680BD00BF97
:1053C800182D4454FB2109400080664090000020BD
:1053D80000003443AFF3008080B584B000AF78603C
:1053E8000023FB7307F10B03D02046211A46012343
:1053F80000F08CF80346FB7307F10A03D02045211F
:105408001A46012300F082F80346FB73BB7A1B029D
:105418009AB2FB7A1343BB81B7F90C3006EE903A87
:10542800B8EEE67A314B1B8806EE903AF8EEE67A4B
:1054380027EE277ADFED2E7AC7EE277A7B68C3ED51
:10544800007A7B6893ED007ADFED2A7AB4EEE77A8A
:10545800F1EE10FA09DD7B6893ED007ADFED267A2C
:10546800B4EEE77AF1EE10FA13D47B6893ED007A84
:10547800DFED227AB4EEE77AF1EE10FA26D57B68F2
:1054880093ED007ADFED1E7AB4EEE77AF1EE10FACA
:105498001CDD1C4B93ED007AF7EE007AB4EEE77A48
:1054A800F1EE10FA0ED5174B93ED007AFFEE007A65
:1054B800B4EEE77AF1EE10FA04DD124B1A687B6855
:1054C8001A6003E07B681A680E4B1A607B6893EDDC
:1054D800007ADFED0D7A77EE277A7B68C3ED007AE4
:1054E800FB7B18461037BD4680BD00BF3800002042
:1054F800000000473333F3400AD7FB403333F3C08F
:105508000AD7FBC09400002073F4F83D80B584B03E
:1055180002AF3A600246FA710A46BA71BB80544B30
:105528004FF420421A6008E0514B1B68591E504A3C
:105538001160002B01D1032396E04E484FF400413F
:10554800FEF7AAFB0346002BEED1FB799BB24FF482
:10555800005200924748194601220023FEF754FBE7
:10556800434B4FF420421A6008E0414B1B68591E18
:105578003F4A1160002B01D1032375E03D48022109
:10558800FEF78AFB0346002BEFD0BB88012B03D91B
:10559800BB7963F07F03BB71BB7936481946FEF7C8
:1055A8005FFB334B4FF420421A6008E0304B1B6816
:1055B800591E2F4A1160002B01D1012354E02D48B8
:1055C8004021FEF769FB0346002BEFD0FB799AB226
:1055D800BB88DBB24FF410510091264811461A4699
:1055E8004FF00073FEF710FB21E0214B4FF42042EF
:1055F8001A6008E01E4B1B68591E1D4A1160002BDB
:1056080001D1022330E01B480421FEF745FB034685
:10561800002BEFD01748FEF731FB03461A463B68CC
:105628001A703B6801333B60BB88013BBB80BB8879
:10563800002BDAD10E4B4FF420421A6008E00C4BD5
:105648001B68591E0A4A1160002B01D103230BE085
:1056580008482021FEF720FB0346002BEFD0054821
:105668002021FEF739FB002318460837BD4680BDC8
:10567800340000200078004080B584B002AF0B46AB
:105688003A600246FA71BB714A4B4FF420421A60E5
:1056980008E0484B1B68591E464A1160002B01D18F
:1056A800002382E044484FF40041FEF7F5FA034630
:1056B800002BEED1FB799BB24FF4005200923E488A
:1056C800194601224FF08073FEF79EFA394B4FF4CA
:1056D80020421A6008E0374B1B68591E354A116092
:1056E800002B01D1002360E033480221FEF7D4FAF1
:1056F8000346002BEFD0BB792F481946FEF7B0FAC6
:105708002C4B4FF420421A6008E02A4B1B68591EA4
:10571800284A1160002B01D1002346E02648802149
:10572800FEF7BAFA0346002BEFD0FB799BB20022B2
:1057380000922148194601224FF00073FEF764FADF
:105748001C4B4FF420421A6008E01A4B1B68591E84
:10575800184A1160002B01D1002326E016480221C7
:10576800FEF79AFA0346002BEFD03B681B781248E5
:105778001946FEF775FA0F4B4FF420421A6008E0FD
:105788000C4B1B68591E0B4A1160002B01D10023DA
:105798000BE009482021FEF77FFA0346002BEFD0E3
:1057A80005482021FEF798FA002318460837BD4619
:1057B80080BD00BF340000200078004080B500AFF5
:1057C80000F014F8084B93ED007A074BD3ED017AFB
:1057D800B0EE470AF0EE670AFEF7E4FFF0EE407A13
:1057E800014BC3ED027A80BDB003002080B500AF45
:1057F8000348FFF729FD0348FFF7EEFD80BD00BF12
:10580800B0030020B403002080B500AFFFF70EF905
:10581800F0EE407AB0EE670A80BD00BF80B500AFF9
:10582800FFF712F9F0EE407AB0EE670A80BD00BFCC
:1058380080B582B000AF87ED010A97ED010AFFF746
:10584800B9F80837BD4680BD80B582B000AF87ED96
:10585800010A97ED010AFFF7BDF80837BD4680BD7C
:1058680080B500AFFFF7D4F880BD00BF80B500AFAA
:10587800FFF7C0F880BD00BF80B582B000AF06203A
:10588800FCF7F2FBFCF786FC0620FCF765FEFFF749
:1058980071FC0346FB71FEF745FF0D4B0D4ADA60BC
:1058A8000B4B0D4A1A610A4B0C4A5A61084B0C4AB9
:1058B8009A61074B0B4ADA61054B0B4A1A62044B93
:1058C8000A4A5A62FB7918460837BD4680BD00BFB0
:1058D800B0030020C55700081158000825580008D3
:1058E80039580008695800085158000875580008C8
:1058F80080B500AF0020FCF7B7FB0020FCF72CFEBA
:1059080080BD00BF80B500AF0F4B0F4AD2F888208A
:1059180042F47002C3F888200120FDF745FC0020FE
:105928004FF48011FDF750FC0220FDF777FC0120B1
:10593800FDF764FC0020FDF78DFC0020FDF7A6FCB8
:105948000020FDF7BFFC80BD00ED00E080B582B00F
:1059580000AF78600F48FEF70FFD034607EE903A58
:10596800B8EEE77ADFED0C7A87EE277ADFED0B7A6F
:1059780027EE277AF4EE0C7AC7EE277AB0EE670A9C
:1059880000F03AF8F0EE407A7B68C3ED007A083709
:10599800BD4680BD0005005000F07F45A4704D4015
:1059A80080B483B000AF7860114B93ED007AF2EECB
:1059B800047AB4EEE77AF1EE10FA0FDD7B6893ED26
:1059C800007A0B4BD3ED007ADFED0A6AC6EEA77AB0
:1059D80067EE277A7B68C3ED007A03E07B684FF0B7
:1059E80000021A600C37BD465DF8047B704700BFA3
:1059F800D80200209A99494180B485B000AF87ED5C
:105A0800010A6223FB730DE0FB7B0133FA7B21491A
:105A180092000A4412681F499B000B441A60FB7BE2
:105A2800013BFB73FB7B002BEED11A4B1A68194B19
:105A38005A60184B7A681A604FF00003BB60632302
:105A4800FB730EE0FB7B134A9B001344D3ED007AF3
:105A580097ED027A77EE277AC7ED027AFB7B013B56
:105A6800FB73FB7B002BEDD10A4BD3ED007A97ED4E
:105A7800027A77EE277AC7ED027A97ED027ADFEDA0
:105A8800067AC7EE277AB0EE670A1437BD465DF886
:105A9800047B7047980000200000C84280B483B09F
:105AA80000AF0023FB7108E0FB79084A9B00134410
:105AB800074A1A60FB790133FB71FB79642BF3D930
:105AC8000C37BD465DF8047B704700BF9800002086
