:020000040800F2
:100000000000012045030008A1030008A103000827
:10001000A1030008A1030008A103000800000000DC
:10002000000000000000000000000000A103000824
:10003000A103000800000000A10300081D0600083D
:10004000A1030008A1030008A1030008A103000800
:10005000A1030008A1030008A1030008A1030008F0
:10006000A1030008A1030008A1030008A1030008E0
:10007000A1030008A1030008A1030008A1030008D0
:10008000A1030008A1030008A1030008A1030008C0
:10009000A1030008A1030008A1030008A1030008B0
:1000A000A1030008A1030008A1030008A1030008A0
:1000B000A1030008A1030008A1030008A103000890
:1000C000A1030008A1030008A1030008A103000880
:1000D000A103000899040008A9040008B904000855
:1000E000A1030008A1030008A1030008A103000860
:1000F000A1030008A1030008A1030008A103000850
:10010000A10300080000000000000000A103000897
:10011000A1030008A1030008A1030008A10300082F
:10012000A1030008A1030008A1030008A10300081F
:10013000A1030008A1030008000000000000000067
:10014000A1030008A1030008A103000800000000AB
:10015000000000000000000000000000000000009F
:10016000A1030008A1030008A1030008A1030008DF
:10017000A1030008A1030008A1030008A1030008CF
:10018000A1030008A1030008000000000000000017
:04019000A1030008BF
:1001940010B5054C237833B9044B13B10448AFF3BD
:1001A40000800123237010BD3800002000000000EF
:1001B4004C21000808B5034B1BB103480349AFF3B6
:1001C400008008BD000000004C2100083C00002015
:1001D40080B500AF1E4B1E4AD2F8882042F470024C
:1001E400C3F888201B4B1B4A126842F001021A60B4
:1001F400184A184B5968184B0B405360154A154B55
:100204001B6823F0847323F480331360114B114A69
:10021400126822F480221A600E4B0E4A526822F4AD
:10022400FE025A600B4B0B4AD26A22F00F02DA62CA
:10023400084A084B196B094B0B401363054B00220A
:100244009A6000F00DF8024B4FF000629A6080BD96
:1002540000ED00E0001002400CC07FF8CCFC00FF71
:1002640080B483B000AF00237B6000233B60324B3B
:10027400314A126842F480321A602F4B1B6803F42F
:1002840000333B607B6801337B603B68002B03D108
:100294007B68B3F5A04FF0D1274B1B6803F4003300
:1002A400002B02D001233B6001E000233B603B684C
:1002B400012B3CD1214B12221A601F4B1E4A52685B
:1002C4005A601D4B1C4A52685A601B4B1A4A5268AA
:1002D40042F480625A60184B174A526822F47C1226
:1002E4005A60154B144A526842F4E8125A60124B91
:1002F400114A126842F080721A6000BF0E4B1B68EC
:1003040003F00073002BF9D00B4B0B4A526822F018
:1003140003025A60084B084A526842F002025A60CB
:1003240000BF054B5B6803F00C03082BF9D10C37B5
:10033400BD465DF8047B7047001002400020024077
:10034400DFF840D0002100F004B80F4B5B58435055
:1003540004310E480E4B42189A42FFF4F6AF0D4A90
:1003640000F003B8002342F8043B0B4B9A42FFF41D
:10037400F9AFFFF72DFF01F0C1FE00F011F8FFF710
:10038400FEBF0000000001206C21000800000020D6
:10039400380000203800002064000020FFF7FEBF72
:1003A40080B500AF01F03AFE00F02AF900F08AF8B7
:1003B40001F02AFE01F056FE01F012FE03461A4631
:1003C400014B1A70FEE700BF5800002080B588B0CA
:1003D40000AF786007F10803184600F0D5FB7A688F
:1003E400234B9A421AD14FF4E133BB6007F108035F
:1003F4001F48194600F00EFB1D4B1D4A126842F0BF
:1004040001021A601A4B1A4A126842F008021A6072
:1004140017481849012200F001FC26E07A68164BBF
:100424009A420FD11448012100F0CAFB07F10803D6
:100434001148194600F0EEFA0F480E49012200F067
:10044400EDFB12E07A680D4B9A420ED10B48012164
:1004540000F0B6FB07F108030848194600F0DAFA81
:1004640006480449012200F0D9FB2037BD4680BD6F
:1004740000440040050105000038014000480040E8
:1004840080B483B000AF78600C37BD465DF8047B60
:10049400704700BF80B500AF0148FFF7F1FF80BD92
:1004A4000038014080B500AF0148FFF7E9FF80BD87
:1004B4000044004080B500AF0148FFF7E1FF80BD74
:1004C4000048004080B58AB000AF1323BB830023EB
:1004D400FB8340F2E7333B620023BB840023FB84AD
:1004E40007F11C031E48194600F0F4FB1C480121C7
:1004F40000F070FC07F1080300221A6004330022A4
:100504001A60043300221A60043300221A60043390
:1005140000221A6004336023BB6064233B6101231F
:10052400BB810023BB8207F108030D48194600F084
:1005340071FC0B48082100F0EDFC0A48012102225D
:1005440001F0E2FA02233B7103237B7102233B6037
:100554003B460448194601F007FA2837BD4680BDDA
:10056400002C01400008004880B483B000AF03466B
:100574003960FB7197F90730002B0BDA0D49FB79D1
:1005840003F00F03043B3A68D2B21201D2B20B4417
:100594001A7609E0084997F907303A68D2B212018D
:1005A400D2B20B4483F800230C37BD465DF8047BBC
:1005B400704700BF00ED00E000E100E080B582B0CC
:1005C40000AF78607B68013BB3F1807F01D30123E6
:1005D4000FE00A4B7A68013A5A604FF0FF300F215E
:1005E400FFF7C2FF054B00229A60044B07221A60F2
:1005F400002318460837BD4680BD00BF10E000E068
:1006040080B500AF0348FFF7D9FF6FF0040001F095
:1006140079F880BD4019010080B500AF2A4B1B88D2
:10062400013B9AB2284B1A80274B1A88274BA3FB0D
:10063400021359080B465B000B44D31A9BB2002BE0
:1006440039D14FF09040202101F026FA0346002BC7
:1006540005D04FF09040202101F048FA04E04FF01B
:100664009040202101F034FA194801F03BFB034685
:100674001A46184B1A70184801F00EFB03461A4626
:10068400144B1A70134B1B78002B01D101F020FD81
:100694004FF09040202101F0FFF90346002B05D0D4
:1006A4004FF09040202101F021FA04E04FF09040F7
:1006B400202101F00DFA044B1B88002B03D1024BBF
:1006C40040F2E9321A8080BD00000020ABAAAAAA39
:1006D40054000020580000205600002080B500AFD0
:1006E4004FF40030012100F0B3FF4FF4002001214A
:1006F40000F0AEFF4FF08040012100F0E5FF80BD27
:1007040080B500AF4FF40030012100F0A1FF80BD9F
:1007140080B500AF4FF40030012100F099FF4FF491
:100724008020012100F094FF80BD00BF80B500AFA0
:100734004FF40030012100F08BFF80BD80B500AF85
:100744004FF40030012100F083FF4FF40030012109
:1007540000F0BAFF80BD00BF80B500AF4FF40020A9
:10076400012100F075FF4FF48040012100F08EFF5D
:1007740080BD00BF80B500AF4FF40020012100F020
:1007840067FF4FF48020012100F09EFF80BD00BF71
:1007940080B582B000AF0346FB71FB79062B26D8E7
:1007A40001A252F823F000BFCF070008D5070008C4
:1007B400C9070008E1070008ED070008E70700087B
:1007C400DB070008FFF79CFF12E0FFF7A1FF0FE033
:1007D400FFF7ACFF0CE0FFF781FF09E0FFF7AEFF86
:1007E40006E0FFF7C7FF03E0FFF7B6FF00E000BF36
:1007F4000837BD4680BD00BF80B588B000AF002378
:100804003B610023BB600023FB600023BB6100232A
:10081400FB61094B7B603B1D0848194600F08EFFC5
:100824000648012100F0EEFF0448682101F006F8B3
:100834002037BD4680BD00BF2B1D2000007800403E
:1008440080B582B000AF01233B7102237B714FF46A
:1008540080533B603B461048194601F085F84FF43D
:1008640000533B603B460C48194601F07DF84FF4B9
:1008740080633B603B464FF09040194601F074F8AA
:100884004FF400633B603B464FF09040194601F043
:100894006BF80837BD4680BD0004004880B582B0BF
:1008A40000AF01233B7102237B714FF480533B6003
:1008B4003B464FF09040194601F056F80837BD46C4
:1008C40080BD00BF80B582B000AF01233B7102231D
:1008D4007B7120233B603B464FF09040194601F06A
:1008E40043F80837BD4680BD80B582B000AF4FF0F5
:1008F40090400321072201F007F94FF090400221B4
:10090400072201F001F902233B7103237B710023C9
:10091400BB710023FB7104233B603B464FF09040C6
:10092400194601F021F808233B603B464FF0904004
:10093400194601F019F80837BD4680BD80B400AFF0
:10094400BD465DF8047B704780B400AFBD465DF8DA
:10095400047B704780B582B000AF1348092103229D
:1009640001F0D2F84FF090400821032201F0CCF8B6
:1009740002233B710123BB710023FB7103237B71B1
:100984004FF400733B603B460748194600F0ECFF08
:100994004FF480733B603B464FF09040194600F0A3
:1009A400E3FF0837BD4680BD0008004880B582B02B
:1009B40000AF0346FB71FB79062B26D801A252F83F
:1009C40023F000BFE5090008EB090008F10900085D
:1009D400F7090008FD090008030A0008090A0008CD
:1009E400FFF72EFF12E0FFF759FF0FE0FFF76AFF52
:1009F4000CE0FFF779FF09E0FFF7A0FF06E0FFF73F
:100A0400A3FF03E0FFF7A6FF00E000BF0837BD46E1
:100A140080BD00BF80B59CB000AF78603960002312
:100A2400FB660023BB6600237B667B681B6823F0A0
:100A340001027B681A607B685B687B667B6E23F4CB
:100A440040537B663B689B687A6E13437B667B6886
:100A54007A6E5A607B681B687B667B6E23F4B053A6
:100A640023F00C037B663B685A683B68DB681A43D7
:100A74003B681B6913437A6E13437B667B687A6E0B
:100A84001A607B689B687B667B6E23F440737B668D
:100A94003B685B697A6E13437B667B687A6E9A6007
:100AA40007F10803184600F0FBFA7A68324B9A42C1
:100AB40002D13B6CBB6616E07A68304B9A4202D195
:100AC4007B6CBB660FE07A682D4B9A4202D1BB6CFB
:100AD400BB6608E07A682B4B9A4202D1FB6CBB667A
:100AE40001E03B6DBB667B681B6803F40043002B8D
:100AF40011D0BB6E5A003B681B68B2FBF3F3FB6674
:100B0400BB6E5B003A681268B3FBF2F102FB01F2C0
:100B14009B1A7B660EE03B681B68BA6EB2FBF3F36C
:100B2400FB663B681A68BB6EB3FBF2F102FB01F291
:100B34009B1A7B663B681B685A087B6E9A4202D8F4
:100B4400FB6E0133FB667B681B6803F40043002BD8
:100B54000BD0FB6E03F00F035B087B66FA6E4FF657
:100B6400F07313407A6E1343FB66FB6E9AB27B6894
:100B74009A817037BD4680BD003801400044004072
:100B840000480040004C004080B483B000AF78605F
:100B94007B684FF416521A607B6800225A607B68A7
:100BA40000229A607B680022DA607B680C221A615A
:100BB4007B6800225A610C37BD465DF8047B7047A0
:100BC40080B483B000AF78600B46FB70FB78002BD9
:100BD40006D07B681B6843F001027B681A6005E05D
:100BE4007B681B6823F001027B681A600C37BD46E2
:100BF4005DF8047B704700BF80B483B000AF7860B9
:100C04000B467B807B88C3F308039AB27B681A8502
:100C14000C37BD465DF8047B704700BF80B489B0D3
:100C240000AFF860B9601346FB710023BB61002379
:100C34007B6100233B610023FB61FB68FB61BB68B4
:100C44009BB21B0A9BB2BB61BB68DBB27B617B6955
:100C5400012202FA03F33B61BB69022B03D1FB6956
:100C64000433FB6105E0BB69032B02D1FB69083344
:100C7400FB61FB79002B06D0FB69FA6911683A69BC
:100C84000A431A6006E0FB69FA6911683A69D243BB
:100C94000A401A602437BD465DF8047B704700BFE4
:100CA40080B485B000AF786039600023FB737B6843
:100CB400DA693B681340002B02D00123FB7301E087
:100CC4000023FB73FB7B18461437BD465DF8047B99
:100CD400704700BF80B485B000AF786039600023EE
:100CE400FB817B681B88FB817A68304B9A4213D066
:100CF4007A682F4B9A420FD07B68B3F1804F0BD0A8
:100D04007A682C4B9A4207D07A682B4B9A4203D0CC
:100D14007A682A4B9A4208D1FB8923F07003FB813D
:100D24003B685A88FB891343FB817A68244B9A42B7
:100D34000CD07A68234B9A4208D0FB8923F4407381
:100D4400FB813B681A89FB891343FB817B68FA8921
:100D54001A803B685A687B68DA623B681A887B6849
:100D64001A857A68114B9A4213D07A68104B9A42CA
:100D74000FD07A68144B9A420BD07A68134B9A427C
:100D840007D07A68124B9A4203D07A680B4B9A4286
:100D940003D13B685A897B681A867B6801225A61B1
:100DA4001437BD465DF8047B704700BF002C01403A
:100DB400003401400004004000080040005001409D
:100DC4000010004000140040004001400044014075
:100DD4000048014080B483B000AF78600B46FB70DC
:100DE400FB78002B08D07B681B889BB243F001037F
:100DF4009AB27B681A8007E07B681B889BB223F059
:100E040001039AB27B681A800C37BD465DF8047BF7
:100E1400704700BF80B487B000AF786039600023AA
:100E2400FB6000237B6100233B617B681B6A23F02A
:100E340010027B681A627B681B6A7B617B685B6853
:100E44003B617B689B69FB60FB6823F0807323F440
:100E5400E043FB60FB6823F44073FB603B681B6862
:100E64001B02FA681343FB607B6923F020037B6158
:100E74003B689B891B017A6913437B613B689B88B0
:100E84001B017A6913437B617A68204B9A4203D031
:100E94007A681F4B9A4227D17B6923F080037B61D8
:100EA4003B68DB891B017A6913437B617B6923F00F
:100EB40040037B613B68DB881B017A6913437B61D8
:100EC4003B6923F480633B613B6923F400633B612A
:100ED4003B681B8A9B003A6913433B613B685B8A0E
:100EE4009B003A6913433B617B683A695A607B68AB
:100EF400FA689A613B689A687B689A637B687A6946
:100F04001A621C37BD465DF8047B7047002C014013
:100F14000034014080B485B000AF78600B467B801C
:100F24000023FB607B689B69FB60FB6823F4006320
:100F3400FB607B881B02FA681343FB607B68FA68DA
:100F44009A611437BD465DF8047B704780B483B062
:100F540000AF0346FB71044BFA791A600C37BD46A7
:100F64005DF8047B704700BF0000424280B483B048
:100F740000AF78603960094B084A526822F4741251
:100F84005A60064B054A516878683A6802430A4336
:100F94005A600C37BD465DF8047B70470010024070
:100FA40080B483B000AF0346FB71044BFA791A6036
:100FB4000C37BD465DF8047B704700BF60004242B9
:100FC40080B485B000AF78600023FB60094B5B6898
:100FD400FB60FB6823F00303FB60FA687B68134340
:100FE400FB60044BFA685A601437BD465DF8047B15
:100FF400704700BF0010024080B485B000AF786035
:101004000023FB60094B5B68FB60FB6823F0F00383
:10101400FB60FA687B681343FB60044BFA685A6010
:101024001437BD465DF8047B704700BF00100240D2
:1010340080B485B000AF78600023FB60094B5B6827
:10104400FB60FB6823F4E063FB60FA687B6813438E
:10105400FB60044BFA685A601437BD465DF8047BA4
:10106400704700BF0010024080B485B000AF7860C4
:101074000023FB60094B5B68FB60FB6823F460534F
:10108400FB607B68DB00FA681343FB60034BFA6880
:101094005A601437BD465DF8047B70470010024067
:1010A40080B48DB000AF78600023BB6200237B6204
:1010B40000233B620023FB610023BB610023FB622E
:1010C40000237B6100233B61904B5B6803F00C03BE
:1010D400BB62BB6A042B07D0082B09D0002B30D18C
:1010E4007B688B4A1A6030E07B68894A1A602CE07E
:1010F400864B5B6803F470137B62844B5B6803F478
:1011040080333B627B6A9B0C02337B623B6A002B1D
:1011140005D17B6A7F4A02FB03F3FB620DE07B4B44
:10112400DB6A03F00F030133FB61794AFB69B2FB0D
:10113400F3F37A6A02FB03F3FB627B68FA6A1A60D0
:1011440003E07B68724A1A6000BF704B5B6803F06F
:10115400F003BB62BB6A1B09BB626F4ABB6A1344E0
:101164001B78DBB23B617B681A683B69DA407B68B9
:101174005A60664B5B6803F4E063BB62BB6A1B0A9C
:10118400BB62654ABB6A13441B78DBB2BB617B68F4
:101194005A68BB69DA407B689A605C4B5B6803F40D
:1011A4006053BB62BB6ADB0ABB625B4ABB6A134423
:1011B4001B78DBB27B617B685A687B69DA407B68A9
:1011C400DA60524BDB6A03F4F873BB62BB6A1B0937
:1011D400BB62BB6A03F00F02504B33F812309BB270
:1011E400BB61BB6A03F01003002B09D0BB69002B61
:1011F40006D0FA6ABB69B2FBF3F27B681A6103E0BA
:101204007B681A687B681A61404BDB6A03F4785385
:10121400BB62BB6A5B0ABB62BB6A03F00F023F4B53
:1012240033F812309BB2BB61BB6A03F01003002B8E
:1012340009D0BB69002B06D0FA6ABB69B2FBF3F292
:101244007B685A6103E07B681A687B685A612F4B9C
:101254001B6B03F01003002B03D17B682C4A9A61AB
:1012640003E07B681A687B689A61284B1B6B03F068
:101274002003002B03D17B68254ADA6103E07B68F5
:101284001A687B68DA61214B1B6B03F04003002B67
:1012940003D17B681E4A1A6203E07B681A687B6884
:1012A4001A621A4B1B6B03F48073002B0DD07B68FE
:1012B4001A68FB6A9A4208D17A693B699A4204D156
:1012C400FB6A5A007B685A6203E07B68DA687B68D1
:1012D4005A620023FB60104ABB6A13441B78DBB2DA
:1012E400FB600A4B1B6B03F08073002B18D07B68E8
:1012F4001A68FB6A9A4213D1FA683B699A420FD181
:10130400FB6A5A007B681A630EE000BF00100240BB
:1013140000127A0000093D0004000020140000209F
:101324007B689A687B681A63904B1B6B03F00073AD
:10133400002B0DD07B681A68FB6A9A4208D1FA68C0
:101344003B699A4204D1FB6A5A007B685A6303E002
:101354007B689A687B685A63844B1B6B03F48053E5
:10136400002B0DD07B681A68FB6A9A4208D17A690F
:101374003B699A4204D1FB6A5A007B689A6203E093
:101384007B68DA687B689A62784B1B6B03F40073A2
:10139400002B0DD07B681A68FB6A9A4208D17A69DF
:1013A4003B699A4204D1FB6A5A007B68DA6203E023
:1013B4007B68DA687B68DA626C4B1B6B03F48063CE
:1013C400002B0DD07B681A68FB6A9A4208D17A69AF
:1013D4003B699A4204D1FB6A5A007B68DA6403E0F1
:1013E4007B68DA687B68DA64604B1B6B03F4006328
:1013F400002B0DD07B681A68FB6A9A4208D17A697F
:101404003B699A4204D1FB6A5A007B681A6503E07F
:101414007B68DA687B681A65544B1B6B03F40053D2
:10142400002B0DD07B681A68FB6A9A4208D17A694E
:101434003B699A4204D1FB6A5A007B685A6503E00F
:101444007B68DA687B681A65484B1B6B03F40043BE
:10145400002B0DD07B681A68FB6A9A4208D17A691E
:101464003B699A4204D1FB6A5A007B689A6503E09F
:101474007B68DA687B689A653C4B1B6B03F003035B
:10148400002B04D17B68DA687B689A631EE0374BD3
:101494001B6B03F00303012B04D17B681A687B6880
:1014A4009A6313E0314B1B6B03F00303022B04D14B
:1014B4007B684FF400429A6308E02C4B1B6B03F0EB
:1014C4000303032B02D17B68294A9A63274B1B6BC6
:1014D40003F44033002B04D17B689A687B68DA6399
:1014E40021E0224B1B6B03F44033B3F5803F04D15E
:1014F4007B681A687B68DA6315E01C4B1B6B03F48A
:101504004033B3F5003F04D17B684FF40042DA6303
:1015140009E0164B1B6B03F44033B3F5403F02D193
:101524007B68134ADA63114B1B6B03F44023002BD3
:1015340004D17B689A687B681A6425E00B4B1B6BAB
:1015440003F44023B3F5802F04D17B681A687B68C9
:101554001A6419E0054B1B6B03F44023B3F5002F09
:1015640008D17B684FF400421A640DE00010024079
:1015740000127A00344B1B6B03F44023B3F5402F65
:1015840002D17B68314A1A642F4B1B6B03F440135E
:10159400002B04D17B689A687B685A6421E02A4B4B
:1015A4001B6B03F44013B3F5801F04D17B681A68E6
:1015B4007B685A6415E0244B1B6B03F44013B3F5AA
:1015C400001F04D17B684FF400425A6409E01E4BAB
:1015D4001B6B03F44013B3F5401F02D17B681B4A15
:1015E4005A64194B1B6B03F44003002B04D17B6832
:1015F4009A687B689A6421E0134B1B6B03F44003E5
:10160400B3F5800F04D17B681A687B689A6415E08F
:101614000D4B1B6B03F44003B3F5000F04D17B683F
:101624004FF400429A6409E0074B1B6B03F4400338
:10163400B3F5400F02D17B68044A9A643437BD463F
:101644005DF8047B704700BF0010024000127A006E
:1016540080B483B000AF78600B46FB70FB78002B3E
:1016640006D0094B084A51697A680A435A6106E070
:10167400054B054A51697A68D2430A405A610C37CE
:10168400BD465DF8047B70470010024080B483B00F
:1016940000AF78600B46FB70FB78002B06D0094B3B
:1016A400084A91697A680A439A6106E0054B054A3B
:1016B40091697A68D2430A409A610C37BD465DF855
:1016C400047B70470010024080B483B000AF7860A0
:1016D4000B46FB70FB78002B06D0094B084AD169F6
:1016E4007A680A43DA6106E0054B054AD1697A68EB
:1016F400D2430A40DA610C37BD465DF8047B70477B
:101704000010024080B483B000AF78607B68042B83
:1017140006D1094B084A126842F004021A6005E037
:10172400054B054A126822F004021A600C37BD46C4
:101734005DF8047B704700BF10E000E080B485B022
:1017440000AF786039600023FB607B681B6823F07E
:1017540001027B681A607B681B68FB60FA68284B8F
:101764001340FB603B685A683B689B681B02134349
:10177400FA681343FB607B68FA681A603B681B686D
:1017840023F070627B681A617B681B6843F0010276
:101794007B681A600023FB607B68FA689A607B6848
:1017A400FA68DA603B689A693B681B691343FB601B
:1017B4007B68FA689A607B689B6843F400427B68A4
:1017C4009A603B68DB68FB607B681A68FB681A43B5
:1017D4007B681A607B685B68FB60FB6823F0784376
:1017E40023F40043FB603B685B69FA681343FB60C6
:1017F4007B68FA685A601437BD465DF8047B70470D
:10180400FFE0CF0080B483B000AF78600B46FB707C
:10181400FB78002B06D07B681B6843F001027B68D1
:101824001A6005E07B681B6823F001027B681A607C
:101834000C37BD465DF8047B704700BF80B485B0AB
:1018440000AF78600B467B800023FB607B685B689D
:10185400FB60FB6823F47F7323F00303FB607B8846
:10186400C3F30903FA681343FB607B68FA685A60A0
:101874001437BD465DF8047B704700BF80B487B061
:1018840000AFF8607B600B467B8113467B720023BC
:101894007B61FB685B687B617A690D4B13407B61FC
:1018A4007B89C3F309027B7A1B0403F47F031A4385
:1018B4007B681A433B6A13437A6913437B61FB6871
:1018C4007A695A601C37BD465DF8047B704700BFD7
:1018D400009800FC80B483B000AF78600B46FB70C6
:1018E400FA787B689A620C37BD465DF8047B7047D2
:1018F40080B483B000AF78607B685B6ADBB2184663
:101904000C37BD465DF8047B704700BF80B485B0DA
:1019140000AF786039600023BB600023FB737B68F1
:101924009B69BB60BA683B681340BB60BB68002B13
:1019340002D00123FB7301E00023FB73FB7B1846F9
:101944001437BD465DF8047B704700BF80B483B094
:1019540000AF786039607B683A68DA610C37BD465D
:101964005DF8047B704700BF80B487B000AF786037
:10197400396000237B6100233B610023FB6000236B
:10198400BB6000237B617EE07B69012202FA03F3E2
:101994003B613B681A683B691340FB60FA683B692A
:1019A4009A426DD13B681B79012B03D03B681B79AC
:1019B400022B34D17B689A687B695B00032101FAAE
:1019C40003F3DB431A407B689A607B689A683B6840
:1019D4005B7919467B695B0001FA03F31A437B6860
:1019E4009A607B689B889AB27B699BB2012101FA59
:1019F40003F39BB2DB439BB213409AB27B689A8099
:101A04007B689B889AB23B689B7919467B699BB239
:101A140001FA03F39BB213439AB27B689A807B6802
:101A24001A687B695B00032101FA03F3DB431A4064
:101A34007B681A607B681A683B681B7919467B6966
:101A44005B0001FA03F31A437B681A607B68DB6866
:101A5400BB607B699BB25B00032202FA03F3DB43A6
:101A6400BA681340BB603B68DB791A467B695B004C
:101A740002FA03F3BA681343BB607B68BA68DA609E
:101A84007B6901337B617B690F2B7FF67DAF1C374C
:101A9400BD465DF8047B704780B485B000AF7860C4
:101AA4000B467B800023FB737B689B8A9AB27B88FE
:101AB40013409BB2002B02D00123FB7301E00023EF
:101AC400FB73FB7B18461437BD465DF8047B7047F7
:101AD40080B483B000AF78600B467B807A887B68E3
:101AE4009A610C37BD465DF8047B704780B483B0BF
:101AF40000AF78600B467B807B687A881A850C3748
:101B0400BD465DF8047B704780B485B000AF786053
:101B140013460A467A807B700023FB600023BB6077
:101B24007A787B8803F007039B0002FA03F3FB60D7
:101B34007B88DB089BB21A467B88DB089BB219467C
:101B44007B68083153F821107B8803F007039B005E
:101B54000F2000FA03F3DB4319407B68083243F893
:101B640022107B88DB089BB21A467B68083253F844
:101B74002220FB681343BB607B88DB089BB21A46B8
:101B84007B680832B96843F822101437BD465DF803
:101B9400047B704780B582B000AF012000F064F888
:101BA4000346FB71FB79002B01D0FB7914E0102074
:101BB40000F016F80346FB71FB79002B01D0FB798A
:101BC4000AE0082000F02EF80346FB71FB79002B95
:101BD40001D0FB7900E0002318460837BD4680BDDC
:101BE40080B584B000AF0346FB71FB7907EE103A71
:101BF400F8EE477A0A4BC3ED007AFB1DD0201B2177
:101C04001A4600F04BF90346FB73FB7B002B01D013
:101C1400FB7B00E0002318461037BD4680BD00BFA3
:101C24005C00002080B584B000AF0346FB71FB79F3
:101C340007EE103AF8EE477A0A4BC3ED017AFB1D22
:101C4400D0201C211A4600F029F90346FB73FB7BC4
:101C5400002B01D0FB7B00E0002318461037BD4663
:101C640080BD00BF5C00002080B584B000AF034697
:101C7400FB71FB1DD0206B211A4600F00FF90346BF
:101C8400FB73FB7B002B01D0FB7B00E00023184699
:101C94001037BD4680BD00BF80B584B000AF78600A
:101CA40007F10E03D02044211A46012300F040F826
:101CB4000346FB7307F10D03D02043211A46012389
:101CC40000F036F80346FB737B7B1B029AB2BB7BA6
:101CD40013439AB27B681A80002318461037BD4616
:101CE40080BD00BF80B584B000AF786007F10E03FB
:101CF400D02040211A46012300F01AF80346FB7352
:101D040007F10D03D0203F211A46012300F010F8FB
:101D14000346FB737B7B1B029AB2BB7B13439AB2D1
:101D24007B681A80002318461037BD4680BD00BF6B
:101D340080B584B002AF3A600246FA710A46BA71BD
:101D4400BB80544B4FF420421A6008E0514B1B688F
:101D5400591E504A1160002B01D1032396E04E48CE
:101D64004FF40041FFF7D2FD0346002BEED1FB797F
:101D74009BB24FF4005200924748194601220023B7
:101D8400FFF77CFD434B4FF420421A6008E0414BBF
:101D94001B68591E3F4A1160002B01D1032375E0D3
:101DA4003D480221FFF7B2FD0346002BEFD0BB886C
:101DB400012B03D9BB7963F07F03BB71BB79364830
:101DC4001946FFF787FD334B4FF420421A6008E0B1
:101DD400304B1B68591E2F4A1160002B01D101237F
:101DE40054E02D484021FFF791FD0346002BEFD02E
:101DF400FB799AB2BB88DBB24FF4105100912648AC
:101E040011461A464FF00073FFF738FD21E0214BCD
:101E14004FF420421A6008E01E4B1B68591E1D4AED
:101E24001160002B01D1022330E01B480421FFF78D
:101E34006DFD0346002BEFD01748FFF759FD03460D
:101E44001A463B681A703B6801333B60BB88013B10
:101E5400BB80BB88002BDAD10E4B4FF420421A60B2
:101E640008E00C4B1B68591E0A4A1160002B01D173
:101E740003230BE008482021FFF748FD0346002B0D
:101E8400EFD005482021FFF761FD002318460837ED
:101E9400BD4680BD340000200078004080B584B089
:101EA40002AF0B463A600246FA71BB714A4B4FF4DB
:101EB40020421A6008E0484B1B68591E464A1160CC
:101EC400002B01D1032382E044484FF40041FFF783
:101ED4001DFD0346002BEED1FB799BB24FF400525B
:101EE40000923E48194601224FF08073FFF7C6FC6A
:101EF400394B4FF420421A6008E0374B1B68591ED7
:101F0400354A1160002B01D1032360E033480221DC
:101F1400FFF7FCFC0346002BEFD0BB792F48194692
:101F2400FFF7D8FC2C4B4FF420421A6008E02A4BF0
:101F34001B68591E284A1160002B01D1032346E077
:101F440026488021FFF7E2FC0346002BEFD0FB7903
:101F54009BB2002200922148194601224FF00073DF
:101F6400FFF78CFC1C4B4FF420421A6008E01A4B1C
:101F74001B68591E184A1160002B01D1032326E067
:101F840016480221FFF7C2FC0346002BEFD03B6842
:101F94001B7812481946FFF79DFC0F4B4FF4204263
:101FA4001A6008E00C4B1B68591E0B4A1160002B89
:101FB40001D103230BE009482021FFF7A7FC0346C6
:101FC400002BEFD005482021FFF7C0FC0023184662
:101FD4000837BD4680BD00BF3400002000780040B3
:101FE40080B582B000AF0620FEF7D2FBFEF704FCFA
:101FF4000620FEF7DBFCFFF7CDFD0346FB71FB7902
:1020040018460837BD4680BD80B500AF0220FEF7F4
:10201400BFFB0220FEF7CAFC80BD00BF80B500AF45
:102024000F4B0F4AD2F8882042F47002C3F888207C
:102034000120FEF78BFF00204FF48011FEF796FF7E
:102044000220FEF7BDFF0120FEF7AAFF0020FEF7E5
:10205400D3FF0020FEF7ECFF0020FFF705F880BD5A
:1020640000ED00E080B500AF0320FEF791FB0348CC
:10207400FEF7ACF90320FEF799FC80BD0044004054
:1020840080B582B000AF0346FB8000BF0F488021BB
:10209400FEF706FE0346002BF8D0FB881B0A9BB212
:1020A4000A481946FEF7A8FD00BF08488021FEF73C
:1020B400F7FD0346002BF8D0FB88DBB29BB2034844
:1020C4001946FEF799FD0837BD4680BD004400401F
:1020D40080B500AF4FF0FF30FFF7D2FF064B1B88EF
:1020E4001BB21846FFF7CCFF034B5B881BB21846A4
:1020F400FFF7C6FF80BD00BF5400002070B50E4B33
:102104000E4DED1AAD1000241E46AC4204D056F814
:10211400242090470134F8E700F016F8084D094BE5
:10212400ED1AAD1000241E46AC4204D056F824200B
:1021340090470134F8E770BD642100086421000869
:102144006821000864210008F8B500BFF8BC08BC89
:102154009E467047F8B500BFF8BC08BC9E46704761
:04216400B9010008B5
:0421680095010008D5
:10216C00E803000000000000010203040102030464
:10217C0006070809010002000400060008000A0016
:10218C000C00100020004000800000010000000046
:08219C0000000000001000002B
:0400000508000345A7
:00000001FF
