:020000040800F2
:10000000000001207D0B0008D90B0008D90B000867
:10001000D90B0008D90B0008D90B0008000000001C
:10002000000000000000000000000000D90B0008E4
:10003000D90B000800000000D90B0008251E00089D
:10004000D90B0008D90B0008D90B0008D90B000800
:10005000D90B0008D90B0008D90B0008D90B0008F0
:10006000D90B0008D90B0008D90B0008D90B0008E0
:10007000D90B0008D90B0008D90B0008D90B0008D0
:10008000D90B0008D90B0008D90B0008D90B0008C0
:10009000D90B0008D90B0008D90B0008D90B0008B0
:1000A000D90B0008D90B0008D90B0008D90B0008A0
:1000B000D90B0008D90B0008491D0008D90B00080E
:1000C000D90B0008D90B0008D90B0008D90B000880
:1000D000D90B0008751A0008811A0008B91A00081F
:1000E000D90B0008D90B0008D90B0008D90B000860
:1000F000D90B0008D90B0008D90B0008D90B000850
:10010000D90B00080000000000000000D90B000817
:10011000D90B0008D90B0008D90B0008D90B00082F
:10012000D90B0008D90B0008D90B0008D90B00081F
:10013000D90B0008D90B00080000000000000000E7
:10014000D90B0008D90B0008D90B000800000000EB
:10015000000000000000000000000000000000009F
:10016000D90B0008D90B0008D90B0008D90B0008DF
:10017000D90B0008D90B0008D90B0008D90B0008CF
:10018000D90B0008D90B0008000000000000000097
:04019000D90B00087F
:1001980010B5054C237833B9044B13B10448AFF3B9
:1001A80000800123237010BD7800002000000000AB
:1001B800B067000808B5034B1BB103480349AFF308
:1001C800008008BD00000000B06700087C00002027
:1001D80081F0004102E000BF83F0004330B54FEAF0
:1001E80041044FEA430594EA050F08BF90EA020F5D
:1001F8001FBF54EA000C55EA020C7FEA645C7FEAF0
:10020800655C00F0E2804FEA5454D4EB5555B8BF12
:100218006D420CDD2C4480EA020281EA030382EA83
:10022800000083EA010180EA020281EA0303362D15
:1002380088BF30BD11F0004F4FEA01314FF4801CE8
:100248004CEA113102D0404261EB410113F0004FFA
:100258004FEA03334CEA133302D0524263EB4303B1
:1002680094EA050F00F0A780A4F10104D5F1200E4F
:100278000DDB02FA0EFC22FA05F2801841F10001AA
:1002880003FA0EF2801843FA05F359410EE0A5F17E
:1002980020050EF1200E012A03FA0EFC28BF4CF0AF
:1002A800020C43FA05F3C01851EBE37101F0004565
:1002B80007D54FF0000EDCF1000C7EEB00006EEB72
:1002C8000101B1F5801F1BD3B1F5001F0CD34908FC
:1002D8005FEA30004FEA3C0C04F101044FEA445253
:1002E80012F5800F80F09A80BCF1004F08BF5FEADA
:1002F800500C50F1000041EB045141EA050130BDBA
:100308005FEA4C0C404141EB010111F4801FA4F15C
:100318000104E9D191F0000F04BF01460020B1FAB1
:1003280081F308BF2033A3F10B03B3F120020CDAE9
:100338000C3208DD02F1140CC2F10C0201FA0CF0C7
:1003480021FA02F10CE002F11402D8BFC2F1200C2C
:1003580001FA02F120FA0CFCDCBF41EA0C019040E2
:10036800E41AA2BF01EB0451294330BD6FEA04042B
:100378001F3C1CDA0C340EDC04F11404C4F1200216
:1003880020FA04F001FA02F340EA030021FA04F328
:1003980045EA030130BDC4F10C04C4F1200220FA7F
:1003A80002F001FA04F340EA0300294630BD21FABD
:1003B80004F0294630BD94F0000F83F4801306BF83
:1003C80081F480110134013D4EE77FEA645C18BF77
:1003D8007FEA655C29D094EA050F08BF90EA020F0E
:1003E80005D054EA000C04BF1946104630BD91EA06
:1003F800030F1EBF0021002030BD5FEA545C05D109
:100408004000494128BF41F0004130BD14F5800447
:100418003CBF01F5801130BD01F0004545F0FE41BB
:1004280041F470014FF0000030BD7FEA645C1ABFF0
:10043800194610467FEA655C1CBF0B46024650EA27
:10044800013406BF52EA033591EA030F41F4002153
:1004580030BD00BF90F0000F04BF0021704730B5D9
:100468004FF4806404F132044FF000054FF00001AE
:1004780050E700BF90F0000F04BF0021704730B56F
:100488004FF4806404F1320410F0004548BF404244
:100498004FF000013EE700BF42004FEAE2014FEA99
:1004A80031014FEA02701FBF12F07F4393F07F4F74
:1004B80081F06051704792F0000F14BF93F07F4FA6
:1004C800704730B54FF4607401F0004521F00041E9
:1004D80020E700BF50EA010208BF704730B54FF06F
:1004E80000050AE050EA010208BF704730B511F074
:1004F800004502D5404261EB41014FF4806404F1AC
:1005080032045FEA915C3FF4DCAE4FF003025FEA2D
:10051800DC0C18BF03325FEADC0C18BF033202EBB5
:10052800DC02C2F1200300FA03FC20FA02F001FA0F
:1005380003FE40EA0E0021FA02F11444C1E600BFAE
:1005480070B54FF0FF0C4CF4E06C1CEA11541DBF61
:100558001CEA135594EA0C0F95EA0C0F00F0DEF82C
:100568002C4481EA030621EA4C5123EA4C5350EA11
:10057800013518BF52EA033541F4801143F4801362
:1005880038D0A0FB02CE4FF00005E1FB02E506F0F3
:100598000042E0FB03E54FF00006E1FB03569CF048
:1005A800000F18BF4EF0010EA4F1FF04B6F5007F4E
:1005B80064F5407404D25FEA4E0E6D4146EB0606C0
:1005C80042EAC62141EA55514FEAC52040EA5E5049
:1005D8004FEACE2EB4F1FD0C88BFBCF5E06F1ED8F3
:1005E800BEF1004F08BF5FEA500E50F1000041EB2A
:1005F800045170BD06F0004646EA010140EA0200D7
:1006080081EA0301B4EB5C04C2BFD4EB0C0541EAF8
:10061800045170BD41F480114FF0000E013C00F30D
:10062800AB8014F1360FDEBF002001F0004170BD31
:10063800C4F10004203C35DA0C341BDC04F114044A
:10064800C4F1200500FA05F320FA04F001FA05F2D6
:1006580040EA020001F0004221F0004110EBD370A3
:1006680021FA04F642EB06015EEA430E08BF20EACF
:10067800D37070BDC4F10C04C4F1200500FA04F372
:1006880020FA05F001FA04F240EA020001F0004104
:1006980010EBD37041F100015EEA430E08BF20EA77
:1006A800D37070BDC4F1200500FA05F24EEA020EBF
:1006B80020FA04F301FA05F243EA020321FA04F0EE
:1006C80001F0004121FA04F220EA020000EBD370A5
:1006D8005EEA430E08BF20EAD37070BD94F0000FA5
:1006E8000FD101F00046400041EB010111F4801FD9
:1006F80008BF013CF7D041EA060195F0000F18BF8A
:10070800704703F00046520043EB030313F4801FC5
:1007180008BF013DF7D043EA0603704794EA0C0F7F
:100728000CEA135518BF95EA0C0F0CD050EA410695
:1007380018BF52EA4306D1D181EA030101F0004112
:100748004FF0000070BD50EA410606BF104619463A
:1007580052EA430619D094EA0C0F02D150EA013646
:1007680013D195EA0C0F05D152EA03361CBF104687
:1007780019460AD181EA030101F0004141F0FE4126
:1007880041F470014FF0000070BD41F0FE4141F4AA
:10079800780170BD70B54FF0FF0C4CF4E06C1CEAAA
:1007A80011541DBF1CEA135594EA0C0F95EA0C0F5F
:1007B80000F0A7F8A4EB050481EA030E52EA03351A
:1007C8004FEA013100F088804FEA03334FF080553B
:1007D80045EA131343EA12634FEA022245EA111568
:1007E80045EA10654FEA00260EF000419D4208BF19
:1007F800964244F1FD0404F5407402D25B084FEAC6
:100808003202B61A65EB03055B084FEA32024FF471
:1008180080104FF4002CB6EB020E75EB030E22BFCE
:10082800B61A754640EA0C005B084FEA3202B6EB8E
:10083800020E75EB030E22BFB61A754640EA5C003D
:100848005B084FEA3202B6EB020E75EB030E22BFCD
:10085800B61A754640EA9C005B084FEA3202B6EBCE
:10086800020E75EB030E22BFB61A754640EADC008D
:1008780055EA060E18D04FEA051545EA16754FEAEF
:1008880006164FEAC30343EA52734FEAC2025FEA0D
:100898001C1CC0D111F4801F0BD141EA00014FF09C
:1008A80000004FF0004CB6E711F4801F04BF01436D
:1008B8000020B4F1FD0C88BFBCF5E06F3FF6AFAE89
:1008C800B5EB030C04BFB6EB020C5FEA500C50F119
:1008D800000041EB045170BD0EF0004E4EEA11319C
:1008E80014EB5C04C2BFD4EB0C0541EA045170BDA3
:1008F80041F480114FF0000E013C90E645EA060EE7
:100908008DE60CEA135594EA0C0F08BF95EA0C0F14
:100918003FF43BAF94EA0C0F0AD150EA01347FF45C
:1009280034AF95EA0C0F7FF425AF104619462CE733
:1009380095EA0C0F06D152EA03353FF4FDAE104696
:10094800194622E750EA410618BF52EA43067FF4E7
:10095800C5AE50EA41047FF40DAF52EA43057FF477
:10096800EBAE12E74FEA4102B2F1E04324BFB3F520
:10097800001CDCF1FE5C0DD901F0004C4FEAC0020E
:100988004CEA5070B2F1004F40EB830008BF20F0F2
:100998000100704711F0804F21D113F13872BCBFAC
:1009A80001F00040704741F480114FEA5252C2F101
:1009B8001802C2F1200C10FA0CF320FA02F018BF4A
:1009C80040F001004FEAC1234FEAD32303FA0CFC9D
:1009D80040EA0C0023FA02F34FEA4303CCE77FEA2C
:1009E800625307D150EA01331EBF4FF0FE4040F476
:1009F8004000704701F0004040F0FE4040F4000025
:100A0800704700BF80B500AF1E4B1E4AD2F8882041
:100A180042F47002C3F888201B4B1B4A126842F04C
:100A280001021A60184A184B5968184B0B4053605A
:100A3800154A154B1B6823F0847323F48033136025
:100A4800114B114A126822F480221A600E4B0E4A8A
:100A5800526822F4FE025A600B4B0B4AD26A22F00B
:100A68000F02DA62084A084B196B094B0B401363F3
:100A7800054B00229A6000F00DF8024B4FF000621F
:100A88009A6080BD00ED00E0001002400CC07FF8C5
:100A9800CCFC00FF80B483B000AF00237B60002350
:100AA8003B60324B314A126842F480321A602F4B55
:100AB8001B6803F400333B607B6801337B603B6851
:100AC800002B03D17B68B3F5A04FF0D1274B1B68EF
:100AD80003F40033002B02D001233B6001E0002324
:100AE8003B603B68012B3CD1214B12221A601F4B03
:100AF8001E4A52685A601D4B1C4A52685A601B4B6A
:100B08001A4A526842F480625A60184B174A52686F
:100B180022F47C125A60154B144A526842F4E812C7
:100B28005A60124B114A126842F080721A6000BF74
:100B38000E4B1B6803F00073002BF9D00B4B0B4ACC
:100B4800526822F003025A60084B084A526842F081
:100B580002025A6000BF054B5B6803F00C03082BC8
:100B6800F9D10C37BD465DF8047B70470010024090
:100B780000200240DFF840D0002100F004B80F4BFD
:100B88005B58435004310E480E4B42189A42FFF40A
:100B9800F6AF0D4A00F003B8002342F8043B0B4BB4
:100BA8009A42FFF4F9AFFFF72DFF05F0F7FC00F0CC
:100BB80011F8FFF7FEBF000000000120F8670008E9
:100BC8000000002078000020780000201405002094
:100BD800FFF7FEBF80B582B000AF0023FB8003E0C3
:100BE80000BFFB880133FB80FB88B3F57A4FF7D34E
:100BF80005F042FA01F000F904F074FD05F04CFB31
:100C080004F01AFA04F040FD04F092FD05F020FA11
:100C180005F028FA05F06AFC05F0DEF90F4B1B6BAE
:100C28009FED0F0A98470D4B5B6B9FED0D0A984798
:100C38000C4B1B689FED0A0A98470A4B5B689FEDAF
:100C4800080A9847074BDB689FED050A9847054B4C
:100C58009B68BAEE0E0A9847FEE700BFF400002032
:100C680000000000FC04002080B582B000AF8C4B6F
:100C78001B78002B40F011818A4BDB689847894B21
:100C880093ED027ADFED887AB4EEE77AF1EE10FAA6
:100C98000BDD844B93ED027ADFED847AB4EEE77ACC
:100CA800F1EE10FA01D5012300E00023DAB27C4B03
:100CB8005A707C4B93ED027AFBEE047AB4EEE77A35
:100CC800F1EE10FA0BDD774B93ED027AF3EE0E7A24
:100CD800B4EEE77AF1EE10FA01D5012300E0002323
:100CE800DAB26F4BDA70724B5B6B71489847F0EE73
:100CF800407AF5EE407AF1EE10FA0AD16D4B5B6B53
:100D08006C489847F0EE407AF5EE407AF1EE10FA2A
:100D180001D0012300E00023DAB2614B1A71604B65
:100D28001B79012B06D14FF090404FF4805103F00E
:100D380085F805E04FF090404FF4805103F08CF8AF
:100D4800574B5B78002B00F095805B4BDB6A554A6C
:100D5800D2ED027A5848B0EE670A9847574BDB6ADB
:100D6800504AD2ED027A5548B0EE670A98474C4B84
:100D78001B79002B03D1504B1B6A7B6002E04F4B61
:100D88001B6A7B604E4B9B683A1D10469847D7ED0F
:100D9800017AF5EEC07AF1EE10FA19DD97ED017AD5
:100DA800DFED487AB4EEE77AF1EE10FA10D597ED58
:100DB800017AF2EE047A87EE277AD7ED016AF2EE2D
:100DC800047AC6EEA77A67EE277AC7ED017A21E0A2
:100DD800D7ED017AF5EEC07AF1EE10FA1AD597ED53
:100DE800017ADFED397AB4EEE77AF1EE10FA11DD27
:100DF80097ED017AF2EE047AC7EE277AB1EE677AB8
:100E0800D7ED016AF2EE047AC6EEA77A67EE277A82
:100E1800C7ED017A97ED017ADFED2C7AB4EEE77A27
:100E2800F1EE10FA02DD2A4B7B600AE097ED017AB9
:100E3800DFED287AB4EEE77AF1EE10FA01D5264B09
:100E48007B60264B1B6B1B4A92ED087AD7ED017A23
:100E580077EE277AB0EE670A9847204B5B6B97EDE1
:100E6800017A144AD2ED087A77EE677AB0EE670A0B
:100E7800984709E0194B1B6B9FED190A9847174BC8
:100E88005B6B9FED170A9847054BDB78002B04D165
:100E9800144BDB689FED120A98470837BD4680BDA2
:100EA80000000020D0040020000034C200003442BA
:100EB800300400207C03002080040020E003002090
:100EC800CC0300200000C8420000C8C200007A44D9
:100ED80000007A4400007AC400007AC4F4000020BC
:100EE80000000000FC04002080B400AFBD465DF89F
:100EF800047B704780B52DED028B82B000AF30487F
:100F08004FF4805102F07EFF0346002B05D02C4899
:100F18004FF4805102F0A0FF04E029484FF48051BB
:100F280002F08CFF274BDB699847264B9B6A984752
:100F3800B0EE408A234BDB6A9847F0EE407A38EEF1
:100F4800277AF0EE007AC7EE277AC7ED017A1D4BB3
:100F58009B6A9847B0EE408A1A4BDB6A9847F0EED6
:100F6800407A78EE677AC7ED007A174BDB6A164845
:100F780097ED010A9847154BDB6A144897ED000A6C
:100F88009847134B1B6B104A92ED087ADFED117AE4
:100F980077EE677A0E48B0EE670A98470E4B1B6BE0
:100FA800094A92ED087ADFED0B7A77EE677A0A48FC
:100FB800B0EE670A98470837BD46BDEC028B80BD86
:100FC800000400483C000020300400207C0300207E
:100FD800800400206666663FE003002080B500AF0D
:100FE80020484FF4005102F00DFF0346002B05D0B6
:100FF8001C484FF4005102F02FFF04E019484FF449
:10100800005102F01BFF184BDB689847174B9B6891
:101018009847154B1B69984703461A46144B1A7094
:1010280000F0BEFA03461A46114B9A70104B9B7893
:10103800002B15D04FF090404FF4006102F0E2FE13
:101048000346002B06D04FF090404FF4006102F0A9
:1010580003FF05E04FF090404FF4006102F0EEFE10
:1010680080BD00BF00040048CC03002070030020AE
:101078000000002080B400AF01231846BD465DF88B
:10108800047B704780B485B000AF78607B681B68CC
:10109800FB6007F10C031B6807EE903AB0EE670A95
:1010A8001437BD465DF8047B704700BF80B500AFBC
:1010B800054B1B699847F0EE407AB0EE670A0020AE
:1010C80000F02EFA80BD00BFD004002080B500AF2C
:1010D800054B5B699847F0EE407AB0EE670A01204D
:1010E80000F01EFA80BD00BFD004002080B500AF1C
:1010F800044BD3ED027AB0EE670A022000F010FA32
:1011080080BD00BFD004002080B500AF044BD3EDF4
:10111800007AB0EE670A032000F002FA80BD00BF33
:10112800D004002080B500AF054B9B6A9847F0EECD
:10113800407AB0EE670A042000F0F2F980BD00BFE3
:101148003C00002080B500AF054BDB6A9847F0EE05
:10115800407AB0EE670A052000F0E2F980BD00BFD2
:101168003C00002080B500AF054B5B6C04489847F5
:10117800F0EE407AB0EE670A062000F0D1F980BDA3
:101188008004002080B500AF054B9B6C044898474D
:10119800F0EE407AB0EE670A072000F0C1F980BD92
:1011A8008004002080B500AF054BDB6C04489847ED
:1011B800F0EE407AB0EE670A082000F0B1F980BD81
:1011C8008004002080B500AF054B5B6C044898474D
:1011D800F0EE407AB0EE670A092000F0A1F980BD70
:1011E8003004002080B500AF054B9B6C044898473D
:1011F800F0EE407AB0EE670A122000F091F980BD57
:101208003004002080B500AF054BDB6C04489847DC
:10121800F0EE407AB0EE670A0B2000F081F980BD4D
:101228003004002080B500AF054B5B6B044898473D
:10123800F0EE407AB0EE670A0C2000F071F980BD3C
:101248003004002090B583B000AF7860064B9C69ED
:101258007868FFF717FFF0EE407AB0EE670AA0470C
:101268000C37BD4690BD00BFD004002080B500AF4C
:10127800014BDB69984780BDD004002090B583B04E
:1012880000AF7860064B1C6A7868FFF7FBFEF0EE4B
:10129800407AB0EE670AA0470C37BD4690BD00BF44
:1012A800D004002080B500AF014B5B6A984780BD31
:1012B800D004002090B583B000AF7860064B9C6BDB
:1012C8007868FFF7DFFEF0EE407A0348B0EE670A71
:1012D800A0470C37BD4690BD8004002090B583B070
:1012E80000AF7860064BDC6B7868FFF7CBFEF0EE5A
:1012F800407A0348B0EE670AA0470C37BD4690BD58
:101308008004002090B583B000AF7860064B1C6C59
:101318007868FFF7B7FEF0EE407A0348B0EE670A48
:10132800A0470C37BD4690BD8004002090B583B01F
:1013380000AF7860064B9C6B7868FFF7A3FEF0EE71
:10134800407A0348B0EE670AA0470C37BD4690BD07
:101358003004002090B583B000AF7860064BDC6B9A
:101368007868FFF78FFEF0EE407A0348B0EE670A20
:10137800A0470C37BD4690BD3004002090B583B01F
:1013880000AF7860064B1C6C7868FFF77BFEF0EEC8
:10139800407A0348B0EE670AA0470C37BD4690BDB7
:1013A8003004002090B583B000AF7860064B9C6B8A
:1013B8007868FFF767FEF0EE407A0348B0EE670AF8
:1013C800A0470C37BD4690BD7C03002090B583B084
:1013D80000AF7860064BDC6B7868FFF753FEF0EEE1
:1013E800407A0348B0EE670AA0470C37BD4690BD67
:1013F8007C03002090B583B000AF7860064B1C6C6E
:101408007868FFF73FFEF0EE407A0348B0EE670ACF
:10141800A0470C37BD4690BD7C030020B0B582B014
:1014280000AF78600A4B1C6B0A4BDD6A7868FFF7DF
:1014380029FEF0EE407AB0EE670AA847F0EE407A4F
:101448000348B0EE670AA0470837BD46B0BD00BFE5
:1014580030040020F4000020B0B582B000AF7860FE
:101468000A4B1C6B0A4B9D6A7868FFF70BFEF0EE7F
:10147800407AB0EE670AA847F0EE407A0348B0EE2B
:10148800670AA0470837BD46B0BD00BF7C030020EF
:10149800F400002090B583B000AF78600B4B1C6857
:1014A8007868FFF7EFFDF0EE407AB0EE670AA047E4
:1014B800064B5C687868FFF7E5FDF0EE407AB0EE21
:1014C800670AA0470C37BD4690BD00BFFC0400204A
:1014D80090B583B000AF7860064B9C687868FFF7DA
:1014E800D1FDF0EE407AB0EE670AA0470C37BD4652
:1014F80090BD00BFFC04002090B583B000AF7860B9
:10150800064BDC687868FFF7BDFDF0EE407AB0EE78
:10151800670AA0470C37BD4690BD00BFFC040020F9
:1015280080B586B000AF87ED010A0346FB70FF2344
:101538003B72FF237B72FB78BB720023FB72002394
:101548003B7300237B730023BB730123FB733B1D99
:101558001B683B6107F1080303333A691A600023EB
:10156800FB750EE00C4BD3F89820FB7D591CF975E0
:1015780007F108010B441B78DBB25BB20748194638
:101588009047FB7D072BEDD9034BD3F8A030984744
:101598001837BD4680BD00BFC402002004030020E8
:1015A80080B584B000AFD94BD84A126822F0200227
:1015B8001A600023FB73E6E100237B7300233B736F
:1015C800D34BD3F89C3007F10C02D2481146984708
:1015D80003467B733B7BFF2B02D07B7B062BEFD82C
:1015E8003B7BFF2B40F0CF8100233B73C84BD3F8E4
:1015F8009C3007F10C02C7481146984703467B7395
:101608003B7BFF2B40F0BF817B7B052B40F2BB81EE
:101618000023BB730BE0BE4BD3F89C30BA7B391D5B
:101628000A44BC4811469847BB7B0133BB73BB7B5C
:10163800052BF0D9FFF71EFD03461A467B7A9A421E
:1016480040F0A1810123FB734FF090404FF40061FB
:1016580002F0D8FB0346002B06D04FF090404FF421
:10166800006102F0F9FB05E04FF090404FF4006193
:1016780002F0E4FB3B79752B00F2848101A252F859
:1016880023F000BF651800086B18000871180008DF
:10169800771800087D1800088318000889180008C2
:1016A8008F180008951800089B1800088D19000865
:1016B800A7180008AD1800088D1900088D19000832
:1016C8008D1900088D1900088D190008A118000847
:1016D8008D1900088D1900088D1900088D1900084A
:1016E8008D1900088D1900088D1900088D1900083A
:1016F8008D1900088D1900088D1900088D1900082A
:101708008D1900088D1900088D1900088D19000819
:101718008D1900088D1900088D1900088D19000809
:101728008D1900088D1900088D1900088D190008F9
:101738008D1900088D1900088D1900088D190008E9
:101748008D1900088D1900088D1900088D190008D9
:101758008D1900088D1900088D1900088D190008C9
:101768008D1900088D1900088D1900088D190008B9
:101778008D1900088D1900088D1900088D190008A9
:101788008D1900088D1900088D1900088D19000899
:101798008D1900088D1900088D1900088D19000889
:1017A8008D1900088D1900088D1900088D19000879
:1017B8008D1900088D1900088D1900088D19000869
:1017C8008D1900088D1900088D1900088D19000859
:1017D8008D1900088D1900088D1900088D19000849
:1017E8008D1900088D1900088D1900088D19000839
:1017F8008D1900088D1900088D1900088D19000829
:101808008D1900088D1900088D1900088D19000818
:101818008D190008B3180008B9180008C518000881
:10182800CB180008D7180008E3180008EF180008BC
:10183800FB18000807190008211900082D190008CD
:101848003919000845190008511900085D190008E0
:10185800691900087519000881190008FFF726FCA6
:1018680091E0FFF733FC8EE0FFF740FC8BE0FFF7D9
:101878004BFC88E0FFF756FC85E0FFF763FC82E04D
:10188800FFF770FC7FE0FFF77DFC7CE0FFF78AFC48
:1018980079E0FFF797FC76E0FFF7A4FC73E0FFF729
:1018A800B1FC70E0FFF7BEFC6DE0FFF7DFFC6AE01B
:1018B8003B1D01331846FFF7C5FC64E0FFF7F2FC57
:1018C80061E03B1D01331846FFF7D8FC5BE03B1D88
:1018D80001331846FFF7EEFC55E03B1D013318466F
:1018E800FFF7FCFC4FE03B1D01331846FFF70AFDEC
:1018F80049E03B1D01331846FFF718FD43E03B1D47
:1019080001331846FFF726FD3DE000BF00440040C4
:10191800C4020020500300203B1D01331846FFF786
:101928002DFD30E03B1D01331846FFF73BFD2AE053
:101938003B1D01331846FFF749FD24E03B1D0133E9
:101948001846FFF757FD1EE03B1D01331846FFF709
:1019580065FD18E03B1D01331846FFF77DFD12E0D9
:101968003B1D01331846FFF795FD0CE03B1D013385
:101978001846FFF7ADFD06E03B1D01331846FFF79B
:10198800BBFD00E000BF0A4BD3F8A43009489847D4
:101998000346002B7FF410AE074B074A126842F04B
:1019A80020021A60FB7B18461037BD4680BD00BF79
:1019B800C4020020500300200044004080B588B0D5
:1019C80000AF786007F10803184600F03BFF7A681B
:1019D800224B9A4218D14FF41643BB6007F1080313
:1019E8001E48194600F074FE1C481D49012200F0EB
:1019F80073FF1A4B194A926842F480529A6017484A
:101A0800012100F03BFF26E07A68164B9A420FD17D
:101A18001448012100F032FF07F108031148194664
:101A280000F056FE0F480E49012200F055FF12E063
:101A38007A680D4B9A420ED10B48012100F01EFF27
:101A480007F108030848194600F042FE0648044911
:101A5800012200F041FF2037BD4680BD0044004010
:101A680005010500003801400048004080B400AF7F
:101A7800BD465DF8047B704780B500AF0A480B4946
:101A880000F086FF0346002B0DD0074B064A12686C
:101A980022F004021A6004F06DFD034B024A12683A
:101AA80042F004021A6080BD0044004005010500B0
:101AB80080B400AFBD465DF8047B704780B588B040
:101AC80000AF1323BB820023FB8240F2E733BB61E4
:101AD8000023BB830023FB8307F114031C4819462A
:101AE80000F0A6FF3B4600221A60043300221A6069
:101AF800043300221A60043300221A6004330022DF
:101B08001A60043360233B604FF46163BB600123B8
:101B1800BB800023BB813B460D48194601F03CF8C9
:101B28000B48082101F022FA3B460948194601F002
:101B3800BFF80748082101F035FA0548012101F0EE
:101B48000BF80348012101F081FA2037BD4680BD1A
:101B5800002C014080B588B000AFC723BB820023AA
:101B6800FB8241F61F43BB610023BB830023FB8339
:101B780007F114032548194600F05AFF3B46002296
:101B88001A60043300221A60043300221A600433F6
:101B980000221A60043300221A60043360233B6079
:101BA8000023BB600123BB800023BB813B46174851
:101BB800194600F0F1FF1548082101F0D7F93B4616
:101BC8001248194601F074F81048082101F0EAF9A2
:101BD8003B460E48194601F0EBF80C48082101F085
:101BE800FDF93B460948194601F060F90748082104
:101BF80001F010FA0548012100F0AEFF0348012169
:101C080001F024FA2037BD4680BD00BF0004004023
:101C180080B584B000AF0023FB810023FB8140F630
:101C2800B8337B6000233B8000233B8100237B800B
:101C38003B460B48194600F0FBFEFB89084819464D
:101C4800012200F075FF064803210022022301F05B
:101C580055FA0348012100F07FFF1037BD4680BDCB
:101C68000008004080B584B000AF0023FB8100234A
:101C7800FB8140F6B8337B6000233B8000233B8127
:101C880000237B803B464FF08040194600F0D0FE91
:101C9800FB894FF080401946012200F049FF4FF0C0
:101CA800804003210022002301F028FA4FF08040F1
:101CB800012100F051FF1037BD4680BD80B582B0CC
:101CC80000AF78607A680E4B9A4202D1FFF7F6FEB1
:101CD80013E07A680B4B9A4202D1FFF73BFF0CE006
:101CE8007A68094B9A4202D1FFF792FF05E07B68B8
:101CF800B3F1804F01D1FFF7B5FF0837BD4680BD6E
:101D0800002C0140000400400008004080B483B06B
:101D180000AF78607B685B6A18460C37BD465DF893
:101D2800047B704780B483B000AF786039607B680B
:101D38003A685A620C37BD465DF8047B704700BFAD
:101D480080B500AF0548012101F09CF90346002B3E
:101D580003D00248012101F0BFF980BD000800400E
:101D680080B483B000AF03463960FB7197F9073040
:101D7800002B0BDA0D49FB7903F00F03043B3A689B
:101D8800D2B21201D2B20B441A7609E0084997F987
:101D980007303A68D2B21201D2B20B4483F800235A
:101DA8000C37BD465DF8047B704700BF00ED00E0CE
:101DB80000E100E080B582B000AF78607B68013B4D
:101DC800B3F1807F01D301230FE00A4B7A68013A0F
:101DD8005A604FF0FF300F21FFF7C2FF054B00227A
:101DE8009A60044B07221A60002318460837BD463C
:101DF80080BD00BF10E000E080B500AF0648FFF7E7
:101E0800D9FF6FF0040001F033FE4FF0FF300021DE
:101E1800FFF7A6FF80BD00BF4019010080B500AFE5
:101E2800154B1B88013B9AB2134B1A80FEF71CFF17
:101E3800114B1B8803F001039BB2002B01D1FFF764
:101E480053F80D4B1B8803F003039BB2002B01D101
:101E5800FFF750F8084B1B8803F00F039BB2002BC9
:101E680001D1FFF7BBF8044B1B88002B03D1024BB1
:101E78004FF4C0721A8080BD0800002080B500AF02
:101E88004FF40030012101F027FD4FF4002001211B
:101E980001F022FD4FF08040012101F059FD80BD85
:101EA80080B500AF4FF40030012101F015FD80BD71
:101EB80080B500AF4FF40030012101F00DFD4FF463
:101EC8008020012101F008FD80BD00BF80B500AF72
:101ED8004FF40030012101F0FFFC80BD80B500AF58
:101EE8004FF40030012101F0F7FC4FF400300121DC
:101EF80001F02EFD80BD00BF80B500AF4FF400207B
:101F0800012101F0E9FC4FF48040012101F002FDBC
:101F180080BD00BF80B500AF4FF40020012101F063
:101F2800DBFC4FF48020012101F012FD80BD00BFD1
:101F380080B500AF4FF40020012101F0CDFC4FF433
:101F48008020012101F0C8FC4FF40060012101F05C
:101F5800E1FC80BD80B500AF4FF40020012101F005
:101F6800BBFC0220012101F0F3FC80BD80B500AF6D
:101F78004FF48020012101F0AFFC4FF40020012133
:101F880001F0AAFC0220012101F0E2FC80BD00BFA3
:101F980080B500AF4FF48020012101F09DFC0420A2
:101FA800012101F0D5FC4FF40030012101F094FC2F
:101FB8000120012101F0CCFC80BD00BF80B500AF3D
:101FC800084801F063FC4FF48020012101F084FCF3
:101FD8004FF00050012101F07FFC0220012101F0A7
:101FE8007BFC80BD002A001080B582B000AF03469C
:101FF800FB71FB790C2B41D801A252F823F000BFEA
:1020080043200008492000083D200008552000080A
:10201800612000085B2000084F20000867200008A6
:102028006D20000873200008792000087F20000830
:102038007F200008FFF734FF21E0FFF739FF1EE09B
:10204800FFF744FF1BE0FFF719FF18E0FFF746FF13
:1020580015E0FFF75FFF12E0FFF74EFF0FE0FFF715
:1020680067FF0CE0FFF776FF09E0FFF77FFF06E068
:10207800FFF78EFF03E0FFF7A1FF00E000BF08377E
:10208800BD4680BD80B483B000AF0346FB71084BEA
:1020980097F907205209F97901F01F01012000FA88
:1020A80001F143F822100C37BD465DF8047B7047F8
:1020B80000E100E080B584B000AF0346FB71262341
:1020C8003B7300237B73FB79BB730123FB7307F11D
:1020D8000C03184601F06CFC2620FFF7D3FF1037DD
:1020E800BD4680BD80B582B000AF0346FB714FF49A
:1020F800E06001F04BFCFB79032B00D003E00120EA
:10210800FFF7D8FF00BF0837BD4680BD80B588B04F
:1021180000AF00233B610023BB600023FB6000236A
:10212800BB610023FB61094B7B603B1D08481946D6
:1021380001F0BAFC0648012101F01AFD04486821A3
:1021480001F032FD2037BD4680BD00BF2B1D2000A9
:102158000078004080B582B000AF01233B710223B4
:102168007B714FF480533B603B461048194601F0A1
:10217800B1FD4FF400533B603B460C48194601F053
:10218800A9FD4FF480633B603B464FF090401946F1
:1021980001F0A0FD4FF400633B603B464FF09040D8
:1021A800194601F097FD0837BD4680BD0004004878
:1021B80080B582B000AF01233B7102237B714FF4DD
:1021C80080533B603B464FF09040194601F082FD3A
:1021D8000837BD4680BD00BF80B582B000AF01237F
:1021E8003B7102237B7120233B603B464FF09040BC
:1021F800194601F06FFD0837BD4680BD80B582B035
:1022080000AF4FF090400321072201F033FE4FF05A
:1022180090400221072201F02DFE02233B71032387
:102228007B710023BB710123FB7104233B603B4698
:102238004FF09040194601F04DFD08233B603B46A6
:102248004FF09040194601F045FD0837BD4680BD66
:1022580080B400AFBD465DF8047B704780B400AF22
:10226800BD465DF8047B704780B582B000AF134867
:102278000921032201F0FEFD4FF0904008210322BE
:1022880001F0F8FD02233B710123BB710023FB71B0
:1022980003237B714FF400733B603B4607481946A4
:1022A80001F018FD4FF480733B603B464FF09040BF
:1022B800194601F00FFD0837BD4680BD00080048EB
:1022C80080B582B000AF23480021022201F0D2FD80
:1022D80020480121022201F0CDFD02233B71032396
:1022E8007B710023BB710123FB7101233B603B46DB
:1022F8001848194601F0EEFC02233B603B4615489E
:10230800194601F0E7FC01233B7102237B714FF46E
:1023180080533B603B460F48194601F0DBFC202305
:102328003B603B460C48194601F0D4FC4FF400735F
:102338003B603B460848194601F0CCFC4FF48073DB
:102348003B603B460448194601F0C4FC0837BD46CB
:1023580080BD00BF000800480004004880B582B076
:1023680000AF11480621022201F084FD0E48072122
:10237800022201F07FFD02233B7103237B710023BE
:10238800BB710123FB7140233B603B46064819465D
:1023980001F0A0FC80233B603B460348194601F04E
:1023A80099FC0837BD4680BD0008004880B582B05A
:1023B80000AF12480821022201F05CFD10480121FB
:1023C800022201F057FD02233B7103237B71002396
:1023D800BB710123FB7102233B603B460848194649
:1023E80001F078FC4FF480733B603B460348194684
:1023F80001F070FC0837BD4680BD00BF00080048EA
:102408000004004880B582B000AF1C4806210222B3
:1024180001F030FD19480721022201F02BFDC023ED
:102428003B6002233B7103237B710023BB710023B4
:10243800FB713B461148194601F04CFC4FF09040A7
:102448000021012201F016FD4FF0904001210122E8
:1024580001F010FD03233B6002233B7103237B71D2
:102468000023BB710023FB713B464FF09040194697
:1024780001F030FC0837BD4680BD00BF00040048AD
:1024880080B582B000AF4FF480433B6003233B71BB
:102498000023FB713B460348194601F01BFC083733
:1024A800BD4680BD0004004880B582B000AF4FF43F
:1024B80000433B6003233B710023FB713B46034809
:1024C800194601F007FC0837BD4680BD00040048E6
:1024D80080B582B000AF0346FB71FB790C2B44D862
:1024E80001A252F823F000BF252500082B2500087B
:1024F80031250008372500083D2500084325000838
:10250800492500084F250008552500085B250008C7
:1025180061250008672500086D250008FFF71AFEE9
:1025280024E0FFF745FE21E0FFF756FE1EE0FFF727
:1025380065FE1BE0FFF78CFE18E0FFF78FFE15E045
:10254800FFF792FE12E0FFF7BBFE0FE0FFF706FF72
:102558000CE0FFF72BFF09E0FFF754FF06E0FFF759
:102568008FFF03E0FFF7A0FF00E000BF0837BD467C
:1025780080BD00BF80B59CB000AF0346FB714F4BD8
:102588001B78002B40F097804C4B01221A704C4866
:1025980001F0B6FC4B4BFB620023FB634FF48073E6
:1025A8007B64494B3B6380233B644FF48063BB648B
:1025B80000237B6302233B872023FB644FF40053F3
:1025C8003B6500237B6507F12C033D48194601F064
:1025D80053FD3B48012101F08FFD07F10C0318461C
:1025E80001F0E6FD3948012101F0AAFE0023FB664F
:1025F80002E0FB6E0133FB66FB6EB3F5347FF8D364
:102608003248002101F070FE304801F05DFE00BF45
:102618002E4801F07FFE0346002BF9D10023BB654D
:102628000023FB654FF400433B6602237B660023CF
:1026380087F8683007F158032448194601F0DAFD95
:102648004FF40053FB6000233B6140237B61002370
:10265800BB610023FB6100233B6200237B620223F2
:1026680087F8283007F10C031848194601F060FD77
:10267800164804210122052301F084FE1348052190
:102688000222052301F07EFE1048012101F000FE20
:1026980000BF0E48012101F0A9FF0346002BF8D026
:1026A8000A48012101F070FF0848022101F088FF63
:1026B800064801F059FF7037BD4680BD94000020E0
:1026C8001C04024040050050F8040020000500509A
:1026D80080B59CB000AF786039600023FB660023AA
:1026E800BB6600237B667B681B6823F001027B685E
:1026F8001A607B685B687B667B6E23F440537B665D
:102708003B689B687A6E13437B667B687A6E5A6077
:102718007B681B687B667B6E23F4B05323F00C0345
:102728007B663B685A683B68DB681A433B681B69F1
:1027380013437A6E13437B667B687A6E1A607B68F4
:102748009B687B667B6E23F440737B663B685B69A2
:102758007A6E13437B667B687A6E9A6007F108038A
:10276800184600F0BBFD7A68324B9A4202D13B6CA6
:10277800BB6616E07A68304B9A4202D17B6CBB6626
:102788000FE07A682D4B9A4202D1BB6CBB6608E019
:102798007A682B4B9A4202D1FB6CBB6601E03B6D19
:1027A800BB667B681B6803F40043002B11D0BB6E2B
:1027B8005A003B681B68B2FBF3F3FB66BB6E5B0019
:1027C8003A681268B3FBF2F102FB01F29B1A7B66CE
:1027D8000EE03B681B68BA6EB2FBF3F3FB663B681E
:1027E8001A68BB6EB3FBF2F102FB01F29B1A7B661F
:1027F8003B681B685A087B6E9A4202D8FB6E01330D
:10280800FB667B681B6803F40043002B0BD0FB6E50
:1028180003F00F035B087B66FA6E4FF6F073134004
:102828007A6E1343FB66FB6E9AB27B689A817037A7
:10283800BD4680BD003801400044004000480040CB
:10284800004C004080B483B000AF78607B684FF4E0
:1028580016521A607B6800225A607B6800229A60D0
:102868007B680022DA607B680C221A617B68002290
:102878005A610C37BD465DF8047B704780B483B05D
:1028880000AF78600B46FB70FB78002B06D07B68A6
:102898001B6843F001027B681A6005E07B681B68CF
:1028A80023F001027B681A600C37BD465DF8047B93
:1028B800704700BF80B483B000AF78600B467B8060
:1028C8007B88C3F308039AB27B681A850C37BD4628
:1028D8005DF8047B704700BF80B489B000AFF86032
:1028E800B9601346FB710023BB6100237B610023A1
:1028F8003B610023FB61FB68FB61BB689BB21B0A61
:102908009BB2BB61BB68DBB27B617B69012202FAC7
:1029180003F33B61BB69022B03D1FB690433FB6101
:1029280005E0BB69032B02D1FB690833FB61FB7926
:10293800002B06D0FB69FA6911683A690A431A60E4
:1029480006E0FB69FA6911683A69D2430A401A60DD
:102958002437BD465DF8047B704700BF80B485B05E
:1029680000AF786039600023FB737B68DA693B68E5
:102978001340002B02D00123FB7301E00023FB73FB
:10298800FB7B18461437BD465DF8047B704700BFD3
:1029980080B487B000AF786039600023FB60002303
:1029A8007B610023BB600023FB743B689BB21B0A5E
:1029B8009BB2BB603B68DBB27B617B69012202FA98
:1029C80003F37B61BB68012B05D17B681B687A69BF
:1029D80013407B610DE0BB68022B05D17B685B6807
:1029E8007A6913407B6104E07B689B687A691340CD
:1029F8007B613B681B0CFB60FB68012202FA03F356
:102A0800FB607B68DB69FA681340FB607B69002B1D
:102A180005D0FB68002B02D00123FB7401E00023E2
:102A2800FB74FB7C18461C37BD465DF8047B704779
:102A380080B485B000AF786039600023FB817B6883
:102A48001B88FB817A68304B9A4213D07A682F4BE7
:102A58009A420FD07B68B3F1804F0BD07A682C4B29
:102A68009A4207D07A682B4B9A4203D07A682A4B4D
:102A78009A4208D1FB8923F07003FB813B685A888E
:102A8800FB891343FB817A68244B9A420CD07A68FD
:102A9800234B9A4208D0FB8923F44073FB813B689F
:102AA8001A89FB891343FB817B68FA891A803B6882
:102AB8005A687B68DA623B681A887B681A857A6884
:102AC800114B9A4213D07A68104B9A420FD07A6809
:102AD800144B9A420BD07A68134B9A4207D07A6803
:102AE800124B9A4203D07A680B4B9A4203D13B6847
:102AF8005A897B681A867B6801225A611437BD4659
:102B08005DF8047B704700BF002C01400034014091
:102B18000004004000080040005001400010004040
:102B280000140040004001400044014000480140BA
:102B380080B483B000AF786013460A467A803B8041
:102B48007B687A881A853A887B685A610C37BD4653
:102B58005DF8047B704700BF80B483B000AF786035
:102B68000B46FB70FB78002B08D07B681B889BB258
:102B780043F001039AB27B681A8007E07B681B88E0
:102B88009BB223F001039AB27B681A800C37BD46CA
:102B98005DF8047B704700BF80B487B000AF7860F1
:102BA80039600023FB6000237B6100233B617B6865
:102BB8001B6A23F001027B681A627B681B6A7B61CF
:102BC8007B685B683B617B689B69FB60FB6823F4FF
:102BD800803323F07003FB60FB6823F00303FB6082
:102BE8003B681B68FA681343FB607B6923F00203A8
:102BF8007B613B689B897A6913437B613B689B884F
:102C08007A6913437B617A68244B9A420FD07A68B9
:102C1800234B9A420BD07A68224B9A4207D07A68A3
:102C2800214B9A4203D07A68204B9A4223D17B6980
:102C380023F008037B613B68DB897A6913437B6176
:102C48007B6923F004037B613B68DB887A69134363
:102C58007B613B6923F480733B613B6923F4007318
:102C68003B613B681B8A3A6913433B613B685B8A5B
:102C78003A6913433B617B683A695A607B68FA6832
:102C88009A613B689A687B685A637B687A691A62BA
:102C98001C37BD465DF8047B704700BF002C01401F
:102CA8000034014000400140004401400048014018
:102CB80080B487B000AF786039600023FB600023E0
:102CC8007B6100233B617B681B6A23F010027B68F1
:102CD8001A627B681B6A7B617B685B683B617B6807
:102CE8009B69FB60FB6823F0807323F4E043FB607F
:102CF800FB6823F44073FB603B681B681B02FA689F
:102D08001343FB607B6923F020037B613B689B894D
:102D18001B017A6913437B613B689B881B017A69B5
:102D280013437B617A68204B9A4203D07A681F4B21
:102D38009A4227D17B6923F080037B613B68DB895A
:102D48001B017A6913437B617B6923F040037B6134
:102D58003B68DB881B017A6913437B613B6923F479
:102D680080633B613B6923F400633B613B681B8ADA
:102D78009B003A6913433B613B685B8A9B003A6955
:102D880013433B617B683A695A607B68FA689A61C9
:102D98003B689A687B689A637B687A691A621C3711
:102DA800BD465DF8047B7047002C014000340140AB
:102DB80080B487B000AF786039600023FB600023DF
:102DC8007B6100233B617B681B6A23F480727B680C
:102DD8001A627B681B6A7B617B685B683B617B6806
:102DE800DB69FB60FB6823F07003FB60FB6823F082
:102DF8000303FB603B681B68FA681343FB607B694D
:102E080023F400737B613B689B891B027A69134337
:102E18007B613B689B881B027A6913437B617A68F4
:102E2800204B9A4203D07A681F4B9A4227D17B697C
:102E380023F400637B613B68DB891B027A691343D7
:102E48007B617B6923F480637B613B68DB881B02C1
:102E58007A6913437B613B6923F480533B613B6987
:102E680023F400533B613B681B8A1B013A691343F7
:102E78003B613B685B8A1B013A6913433B617B6892
:102E88003A695A607B68FA68DA613B689A687B68D5
:102E9800DA637B687A691A621C37BD465DF8047B81
:102EA800704700BF002C01400034014080B487B057
:102EB80000AF7860396000233B610023FB6000238A
:102EC8007B617B681B6A23F480527B681A627B688B
:102ED8001B6AFB607B685B687B617B68DB693B61C5
:102EE8003B6923F4E0433B613B6923F440733B6156
:102EF8003B681B681B023A6913433B61FB6823F478
:102F08000053FB603B689B891B03FA681343FB6013
:102F18003B689B881B03FA681343FB607A68114B74
:102F28009A4203D07A68104B9A4209D17B6923F4FC
:102F380080437B613B681B8A9B017A6913437B61F1
:102F48007B687A695A607B683A69DA613B689A6893
:102F58007B681A647B68FA681A621C37BD465DF89C
:102F6800047B7047002C01400034014080B485B0D8
:102F780000AF78600B467B800023FB607B689B6911
:102F8800FB60FB6823F00803FB607B88FA68134347
:102F9800FB607B68FA689A611437BD465DF8047B6C
:102FA800704700BF80B485B000AF78600B467B8067
:102FB8000023FB607B689B69FB60FB6823F400636C
:102FC800FB607B881B02FA681343FB607B68FA6826
:102FD8009A611437BD465DF8047B704780B485B0AC
:102FE80000AF78600B467B800023FB607B68DB6961
:102FF800FB60FB6823F00803FB607B88FA681343D7
:10300800FB607B68FA68DA611437BD465DF8047BBB
:10301800704700BF80B485B000AF78600B467B80F6
:103028000023FB607B68DB69FB60FB6823F40063BB
:10303800FB607B881B02FA681343FB607B68FA68B5
:10304800DA611437BD465DF8047B704780B483B0FD
:1030580000AF78600B46FB70FB78002B06D07B68CE
:103068005B6C43F400427B685A6405E07B685B6CE8
:10307800C3F30E027B685A640C37BD465DF8047BC7
:10308800704700BF80B485B000AF78600B467B8086
:103098000023FB730023BB8100237B817B681B69B2
:1030A8009AB27B881340BB817B68DB689AB27B88C5
:1030B80013407B81BB89002B05D07B89002B02D074
:1030C8000123FB7301E00023FB73FB7B18461437D5
:1030D800BD465DF8047B704780B483B000AF78606C
:1030E8000B467B807B88DB439BB21A467B681A6160
:1030F8000C37BD465DF8047B704700BF80B487B0CD
:1031080000AFF86079813A81FB800023FB820023BD
:10311800BB8200237B82FB689B68FB82FB689B6900
:10312800BB82FB681B6A7B82FB8A23F00703FB8256
:10313800FA8A7B891343FB82BB8A23F4407323F00A
:103148000303BB82BB8A43F4807343F00103BB8251
:103158007B8A23F022037B82FB881B019AB23B897E
:1031680013439AB27B8A13437B82FA8AFB689A607C
:10317800BA8AFB689A617A8AFB681A621C37BD466C
:103188005DF8047B704700BF80B483B000AF03468E
:10319800FB71044BFA791A600C37BD465DF8047B65
:1031A800704700BF0000424280B483B000AF78602F
:1031B8003960094B084A526822F474125A60064B67
:1031C800054A516878683A6802430A435A600C37DE
:1031D800BD465DF8047B70470010024080B483B0A0
:1031E80000AF0346FB71044BFA791A600C37BD46F1
:1031F8005DF8047B704700BF6000424280B485B030
:1032080000AF78600023FB60094B5B68FB60FB68DC
:1032180023F00303FB60FA687B681343FB60044BED
:10322800FA685A601437BD465DF8047B704700BFE2
:103238000010024080B485B000AF78600023FB60C6
:10324800094B5B68FB60FB6823F0F003FB60FA68DE
:103258007B681343FB60044BFA685A601437BD4619
:103268005DF8047B704700BF0010024080B485B051
:1032780000AF78600023FB60094B5B68FB60FB686C
:1032880023F4E063FB60FA687B681343FB60044B3C
:10329800FA685A601437BD465DF8047B704700BF72
:1032A8000010024080B485B000AF78600023FB6056
:1032B800094B5B68FB60FB6823F46053FB607B6829
:1032C800DB00FA681343FB60034BFA685A60143753
:1032D800BD465DF8047B70470010024080B48DB095
:1032E80000AF78600023BB6200237B6200233B624F
:1032F8000023FB610023BB610023FB6200237B6189
:1033080000233B61904B5B6803F00C03BB62BB6A14
:10331800042B07D0082B09D0002B30D17B688B4AAF
:103328001A6030E07B68894A1A602CE0864B5B683B
:1033380003F470137B62844B5B6803F480333B6255
:103348007B6A9B0C02337B623B6A002B05D17B6A4C
:103358007F4A02FB03F3FB620DE07B4BDB6A03F061
:103368000F030133FB61794AFB69B2FBF3F37A6A15
:1033780002FB03F3FB627B68FA6A1A6003E07B686E
:10338800724A1A6000BF704B5B6803F0F003BB62BF
:10339800BB6A1B09BB626F4ABB6A13441B78DBB26A
:1033A8003B617B681A683B69DA407B685A60664B08
:1033B8005B6803F4E063BB62BB6A1B0ABB62654AD5
:1033C800BB6A13441B78DBB2BB617B685A68BB6974
:1033D800DA407B689A605C4B5B6803F46053BB62BD
:1033E800BB6ADB0ABB625B4ABB6A13441B78DBB26D
:1033F8007B617B685A687B69DA407B68DA60524B8C
:10340800DB6A03F4F873BB62BB6A1B09BB62BB6A65
:1034180003F00F02504B33F812309BB2BB61BB6A0A
:1034280003F01003002B09D0BB69002B06D0FA6A01
:10343800BB69B2FBF3F27B681A6103E07B681A6828
:103448007B681A61404BDB6A03F47853BB62BB6A42
:103458005B0ABB62BB6A03F00F023F4B33F81230C2
:103468009BB2BB61BB6A03F01003002B09D0BB6998
:10347800002B06D0FA6ABB69B2FBF3F27B685A618B
:1034880003E07B681A687B685A612F4B1B6B03F05B
:103498001003002B03D17B682C4A9A6103E07B68F8
:1034A8001A687B689A61284B1B6B03F02003002B7A
:1034B80003D17B68254ADA6103E07B681A687B6878
:1034C800DA61214B1B6B03F04003002B03D17B68AF
:1034D8001E4A1A6203E07B681A687B681A621A4BF4
:1034E8001B6B03F48073002B0DD07B681A68FB6A92
:1034F8009A4208D17A693B699A4204D1FB6A5A0018
:103508007B685A6203E07B68DA687B685A6200234A
:10351800FB60104ABB6A13441B78DBB2FB600A4BA2
:103528001B6B03F08073002B18D07B681A68FB6A4A
:103538009A4213D1FA683B699A420FD1FB6A5A0042
:103548007B681A630EE000BF0010024000127A0088
:1035580000093D000C0000201C0000207B689A68D0
:103568007B681A63904B1B6B03F00073002B0DD024
:103578007B681A68FB6A9A4208D1FA683B699A42E2
:1035880004D1FB6A5A007B685A6303E07B689A6837
:103598007B685A63844B1B6B03F48053002B0DD05C
:1035A8007B681A68FB6A9A4208D17A693B699A4231
:1035B80004D1FB6A5A007B689A6203E07B68DA6888
:1035C8007B689A62784B1B6B03F40073002B0DD059
:1035D8007B681A68FB6A9A4208D17A693B699A4201
:1035E80004D1FB6A5A007B68DA6203E07B68DA6818
:1035F8007B68DA626C4B1B6B03F48063002B0DD085
:103608007B681A68FB6A9A4208D17A693B699A42D0
:1036180004D1FB6A5A007B68DA6403E07B68DA68E5
:103628007B68DA64604B1B6B03F40063002B0DD0DE
:103638007B681A68FB6A9A4208D17A693B699A42A0
:1036480004D1FB6A5A007B681A6503E07B68DA6874
:103658007B681A65544B1B6B03F40053002B0DD089
:103668007B681A68FB6A9A4208D17A693B699A4270
:1036780004D1FB6A5A007B685A6503E07B68DA6804
:103688007B681A65484B1B6B03F40043002B0DD075
:103698007B681A68FB6A9A4208D17A693B699A4240
:1036A80004D1FB6A5A007B689A6503E07B68DA6894
:1036B8007B689A653C4B1B6B03F00303002B04D11A
:1036C8007B68DA687B689A631EE0374B1B6B03F0F4
:1036D8000303012B04D17B681A687B689A6313E0A3
:1036E800314B1B6B03F00303022B04D17B684FF4AF
:1036F80000429A6308E02C4B1B6B03F00303032B77
:1037080002D17B68294A9A63274B1B6B03F4403329
:10371800002B04D17B689A687B68DA6321E0224B2E
:103728001B6B03F44033B3F5803F04D17B681A6800
:103738007B68DA6315E01C4B1B6B03F44033B3F56D
:10374800003F04D17B684FF40042DA6309E0164B6E
:103758001B6B03F44033B3F5403F02D17B68134A37
:10376800DA63114B1B6B03F44023002B04D17B68F5
:103778009A687B681A6425E00B4B1B6B03F44023A3
:10378800B3F5802F04D17B681A687B681A6419E046
:10379800054B1B6B03F44023B3F5002F08D17B685E
:1037A8004FF400421A640DE00010024000127A0043
:1037B800344B1B6B03F44023B3F5402F02D17B68D5
:1037C800314A1A642F4B1B6B03F44013002B04D1AE
:1037D8007B689A687B685A6421E02A4B1B6B03F468
:1037E8004013B3F5801F04D17B681A687B685A645C
:1037F80015E0244B1B6B03F44013B3F5001F04D1F1
:103808007B684FF400425A6409E01E4B1B6B03F4BB
:103818004013B3F5401F02D17B681B4A5A64194B09
:103828001B6B03F44003002B04D17B689A687B6808
:103838009A6421E0134B1B6B03F44003B3F5800F2C
:1038480004D17B681A687B689A6415E00D4B1B6B82
:1038580003F44003B3F5000F04D17B684FF4004232
:103868009A6409E0074B1B6B03F44003B3F5400F60
:1038780002D17B68044A9A643437BD465DF8047BFC
:10388800704700BF0010024000127A0080B485B073
:1038980000AF78600023FB607B681B0FFB60FB6850
:1038A800002B06D00B4B0B4AD26A22F47852DA620C
:1038B80005E0084B074AD26A22F4F872DA62054B2F
:1038C800044AD16A7A680A43DA621437BD465DF859
:1038D800047B70470010024080B483B000AF78606A
:1038E8000B46FB70FB78002B06D0094B084A516940
:1038F8007A680A435A6106E0054B054A51697A68B5
:10390800D2430A405A610C37BD465DF8047B7047C4
:103918000010024080B483B000AF78600B46FB70A3
:10392800FB78002B06D0094B084A91697A680A434C
:103938009A6106E0054B054A91697A68D2430A40C4
:103948009A610C37BD465DF8047B70470010024051
:1039580080B483B000AF78600B46FB70FB78002B17
:1039680006D0094B084AD1697A680A43DA6106E049
:10397800054B054AD1697A68D2430A40DA610C37A7
:10398800BD465DF8047B70470010024080B483B0E8
:1039980000AF7860054A7B6843F0BF6343F40033A7
:1039A800D3600C37BD465DF8047B704700ED00E03E
:1039B80080B487B000AF786000237B6100233B614F
:1039C8000F23FB607B68DB78002B38D0264BDB6845
:1039D800DB4303F4E0631B0A7B617B69C3F10403E7
:1039E8003B617B69FA6822FA03F3FB607B685B78CA
:1039F8001A463B6902FA03F37B617B689B781A4697
:103A0800FB6813407A6913437B617B691B017B6107
:103A180016497B681B787A69D2B20B4483F8002375
:103A2800124B7A6812785209D2B27968097801F093
:103A38001F01012000FA01F143F822100EE00B4BA0
:103A48007A6812785209D2B27968097801F01F01B0
:103A5800012000FA01F1203243F822101C37BD463C
:103A68005DF8047B704700BF00ED00E000E100E076
:103A780080B483B000AF78607B68042B06D1094B13
:103A8800084A126842F004021A6005E0054B054A2C
:103A9800126822F004021A600C37BD465DF8047BF8
:103AA800704700BF10E000E080B485B000AF7860D8
:103AB80039600023FB607B681B6823F001027B6888
:103AC8001A607B681B68FB60FA68284B1340FB6030
:103AD8003B685A683B689B681B021343FA681343A8
:103AE800FB607B68FA681A603B681B6823F07062A9
:103AF8007B681A617B681B6843F001027B681A6067
:103B08000023FB607B68FA689A607B68FA68DA6071
:103B18003B689A693B681B691343FB607B68FA68DA
:103B28009A607B689B6843F400427B689A603B68B4
:103B3800DB68FB607B681A68FB681A437B681A605D
:103B48007B685B68FB60FB6823F0784323F40043E1
:103B5800FB603B685B69FA681343FB607B68FA6843
:103B68005A601437BD465DF8047B7047FFE0CF000C
:103B780080B483B000AF78600B46FB70FB78002BF5
:103B880006D07B681B6843F001027B681A6005E079
:103B98007B681B6823F001027B681A600C37BD46FE
:103BA8005DF8047B704700BF80B485B000AF7860D3
:103BB8000B467B800023FB607B685B68FB60FB68CF
:103BC80023F47F7323F00303FB607B88C3F30903AB
:103BD800FA681343FB607B68FA685A601437BD467D
:103BE8005DF8047B704700BF80B487B000AFF86011
:103BF8007B600B467B8113467B7200237B61FB68ED
:103C08005B687B617A690D4B13407B617B89C3F3E9
:103C180009027B7A1B0403F47F031A437B681A4367
:103C28003B6A13437A6913437B61FB687A695A607C
:103C38001C37BD465DF8047B704700BF009800FC48
:103C480080B483B000AF78600B46FB70FA787B686D
:103C58009A620C37BD465DF8047B704780B483B028
:103C680000AF78607B685B6ADBB218460C37BD46EC
:103C78005DF8047B704700BF80B485B000AF786002
:103C880039600023BB600023FB737B689B69BB60C2
:103C9800BA683B681340BB60BB68002B02D00123A5
:103CA800FB7301E00023FB73FB7B18461437BD460A
:103CB8005DF8047B704700BF80B483B000AF7860C4
:103CC80039607B683A68DA610C37BD465DF8047B79
:103CD800704700BF80B487B000AF786039600023B8
:103CE8007B6100233B610023FB600023BB60002352
:103CF8007B617EE07B69012202FA03F33B613B684A
:103D08001A683B691340FB60FA683B699A426DD1B7
:103D18003B681B79012B03D03B681B79022B34D1FC
:103D28007B689A687B695B00032101FA03F3DB4334
:103D38001A407B689A607B689A683B685B79194689
:103D48007B695B0001FA03F31A437B689A607B681E
:103D58009B889AB27B699BB2012101FA03F39BB25B
:103D6800DB439BB213409AB27B689A807B689B883E
:103D78009AB23B689B7919467B699BB201FA03F3B7
:103D88009BB213439AB27B689A807B681A687B69F6
:103D98005B00032101FA03F3DB431A407B681A60D6
:103DA8007B681A683B681B7919467B695B0001FAD6
:103DB80003F31A437B681A607B68DB68BB607B6926
:103DC8009BB25B00032202FA03F3DB43BA68134099
:103DD800BB603B68DB791A467B695B0002FA03F338
:103DE800BA681343BB607B68BA68DA607B690133E1
:103DF8007B617B690F2B7FF67DAF1C37BD465DF875
:103E0800047B704780B485B000AF78600B467B8038
:103E18000023FB737B689B8A9AB27B8813409BB212
:103E2800002B02D00123FB7301E00023FB73FB7B13
:103E380018461437BD465DF8047B704780B483B0DC
:103E480000AF78600B467B807A887B689A610C3774
:103E5800BD465DF8047B704780B483B000AF7860DE
:103E68000B467B807B687A881A850C37BD465DF8DF
:103E7800047B704780B485B000AF786013460A466B
:103E88007A807B700023FB600023BB607A787B8894
:103E980003F007039B0002FA03F3FB607B88DB084F
:103EA8009BB21A467B88DB089BB219467B680831AF
:103EB80053F821107B8803F007039B000F2000FABA
:103EC80003F3DB4319407B68083243F822107B88F0
:103ED800DB089BB21A467B68083253F82220FB683D
:103EE8001343BB607B88DB089BB21A467B680832A9
:103EF800B96843F822101437BD465DF8047B704753
:103F080080B483B000AF78607B681A684FF6FE73A0
:103F180013407A6813607B6800221A607B6800226D
:103F28005A607B6800229A607B680022DA607A68AF
:103F3800434B9A4206D1434B424A526842F00F0221
:103F48005A6077E07A68404B9A4206D13D4B3D4A29
:103F5800526842F0F0025A606CE07A683B4B9A4231
:103F680006D1384B374A526842F470625A6061E0B1
:103F78007A68374B9A4206D1324B324A526842F439
:103F880070425A6056E07A68324B9A4206D12D4BFD
:103F98002C4A526842F470225A604BE07A682E4BE1
:103FA8009A4206D1274B274A526842F470025A6057
:103FB80040E07A68294B9A4206D1224B214A52683E
:103FC80042F070625A6035E07A68254B9A4206D111
:103FD800244B244A526842F00F025A602AE07A6859
:103FE800214B9A4206D11F4B1E4A526842F0F002FA
:103FF8005A601FE07A681D4B9A4206D1194B194A3C
:10400800526842F470625A6014E07A68184B9A4217
:1040180006D1144B134A526842F470425A6009E0C0
:104028007A68144B9A4205D10E4B0E4A526842F4F4
:1040380070225A600C37BD465DF8047B704700BF9C
:1040480008000240000002401C000240300002400C
:1040580044000240580002406C00024080000240C8
:1040680008040240000402401C04024030040240DC
:10407800440402405804024080B485B000AF786020
:1040880039600023FB607B681B68FB60FB6823F4D6
:10409800FF4323F07003FB603B689A683B681B6A28
:1040A8001A433B681B691A433B685B691A433B68C0
:1040B8009B691A433B68DB691A433B685B6A1A438E
:1040C8003B689B6A1343FA681343FB607B68FA6892
:1040D8001A603B689B891A467B685A603B681A6875
:1040E8007B689A603B685A687B68DA601437BD461B
:1040F8005DF8047B704700BF80B483B000AF786080
:104108000B46FB70FB78002B06D07B681B6843F0DE
:1041180001027B681A6006E07B681A684FF6FE7336
:1041280013407A6813600C37BD465DF8047B70470E
:1041380080B485B000AF786039600023FB607B688D
:10414800DB68FB60FA68194B1340FB603B681A6830
:104158003B685B681A433B689B681A433B68DB68AB
:104168001A433B681B691A433B685B691A433B68FF
:104178009B691343FA681343FB607B68FA68DA604B
:104188007B681B6BFB60FB6823F00F03FB603B68DD
:104198001B7F013BFA681343FB607B68FA681A636C
:1041A8001437BD465DF8047B704700BF07C0FFFDAC
:1041B80080B483B000AF78607B6800221A607B68A7
:1041C80000225A607B6800229A607B680022DA60CD
:1041D8007B6800221A617B6800225A617B68002292
:1041E8009A617B6801221A770C37BD465DF8047B1B
:1041F800704700BF80B485B000AF78603960002395
:10420800FB607B68B3F1A04F03D07A681C4B9A42DD
:1042180007D11C4B9B68FB60FA681B4B1340FB6083
:1042280006E01A4B9B68FB60FA68174B1340FB606B
:104238003B681A683B685B681A433B689B681A438B
:104248003B68DB681B031A433B681B7C1B02134358
:10425800FA681343FB607B68B3F1A04F03D07A6818
:10426800074B9A4203D1074BFA689A6002E0074B62
:10427800FA689A601437BD465DF8047B704700BF42
:104288000001005000030050E010FCFF0007005040
:1042980080B483B000AF78600B46FB70FB78002BCE
:1042A80006D07B689B6843F001027B689A6005E052
:1042B8007B689B6843F002027B689A600C37BD46B6
:1042C8005DF8047B704700BF80B483B000AF7860AE
:1042D8007B689B6843F000427B689A600C37BD4658
:1042E8005DF8047B704700BF80B483B000AF78608E
:1042F80039607B689B6823F080427B689A607B68A2
:104308009A683B681A437B689A600C37BD465DF82B
:10431800047B704780B485B000AF78600023FB73DE
:104328007B689B68002B02DA0123FB7301E0002302
:10433800FB73FB7B18461437BD465DF8047B70475A
:1043480080B483B000AF78600B46FB707B689B68D5
:1043580023F040527B689A60FB78002B06D07B687C
:104368009B6843F080527B689A6005E07B689B6895
:1043780043F000527B689A600C37BD465DF8047BB9
:10438800704700BF80B485B000AF7860F970BA702C
:104398007B700023FB600023BB60BB78042B21D813
:1043A8007B681B6BFB60BA7813465B0013445B00A9
:1043B8001F2202FA03F3BB60BB68DB43FA681340B1
:1043C800FB60F978BA7813465B0013445B0001FA86
:1043D80003F3BB60FA68BB681343FB607B68FA6849
:1043E8001A6374E0BB78092B23D87B685B6BFB608E
:1043F800BB785A1F13465B0013445B001F2202FA66
:1044080003F3BB60BB68DB43FA681340FB60F978D1
:10441800BB785A1F13465B0013445B0001FA03F391
:10442800BB60FA68BB681343FB607B68FA685A6331
:104438004DE0BB780E2B25D87B689B6BFB60BB7867
:10444800A3F10A0213465B0013445B001F2202FA21
:1044580003F3BB60BB68DB43FA681340FB60F97881
:10446800BB78A3F10A0213465B0013445B0001FA10
:1044780003F3BB60FA68BB681343FB607B68FA68A8
:104488009A6324E07B68DB6BFB60BB78A3F10F02C7
:1044980013465B0013445B001F2202FA03F3BB6060
:1044A800BB68DB43FA681340FB60F978BB78A3F17B
:1044B8000F0213465B0013445B0001FA03F3BB6071
:1044C800FA68BB681343FB607B68FA68DA63FB78B9
:1044D800092B23D97B689B69FB60FB78A3F10A024F
:1044E80013465B001344072202FA03F3BB607B68A0
:1044F8009A69BB68DB431A407B689A617B68996953
:104508007878FB78A3F10A0213465B00134400FA9B
:1045180003F341EA03027B689A611FE07B685B69E9
:10452800FB60FB785A1E13465B001344382202FADC
:1045380003F3BB607B685A69BB68DB431A407B683E
:104548005A617B6859697878FA7813465B00134496
:1045580000FA03F341EA03027B685A611437BD4647
:104568005DF8047B704700BF80B483B000AF78600B
:104578007B689B6843F004027B689A600C37BD46F1
:104588005DF8047B704700BF80B483B000AF7860EB
:104598000B46FB70FB78002B06D07B68DB6843F08A
:1045A80001027B68DA6005E07B68DB6823F00102C2
:1045B8007B68DA600C37BD465DF8047B704700BF46
:1045C80080B483B000AF786039607B68DB6823F023
:1045D80002027B68DA607B68DA683B681A437B68AA
:1045E800DA600C37BD465DF8047B704780B485B04F
:1045F80000AF786039600023FB737B681A683B68FA
:104608001340002B02D00123FB7301E00023FB734E
:10461800FB7B18461437BD465DF8047B704700BF26
:1046280080B485B000AF786087ED000A7B6893EDB1
:104638000A7AD7ED007A77EE677A7B68C3ED037A5A
:104648007B6893ED047A7B68D3ED037A77EE277A5B
:104658007B68C3ED047A7B6893ED047A7B68D3EDBD
:10466800057AB4EEE77AF1EE10FA04DD7B685A6950
:104678007B681A6114E07B6893ED047A7B68D3ED5C
:10468800057AF1EE677AB4EEE77AF1EE10FA07D51B
:104698007B68D3ED057AF1EE677A7B68C3ED047A1F
:1046A8007B684FF000021A627B68D3ED007AF5EE62
:1046B800407AF1EE10FA0AD07B6893ED007A7B68B5
:1046C800D3ED037A67EE277A7B68C3ED087A7B68B7
:1046D800D3ED017AF5EE407AF1EE10FA0FD07B684F
:1046E80093ED087A7B68D3ED016A7B68D3ED047A91
:1046F80066EEA77A77EE277A7B68C3ED087A7B683F
:10470800D3ED027AF5EE407AF1EE10FA39D07B68F3
:1047180093ED037A7B68D3ED067A77EE677AC7ED77
:10472800037A7B6893ED077AD7ED037AB4EEE77ADC
:10473800F1EE10FA03D57B68DB69FB6012E07B6859
:10474800D3ED077AB1EE677AD7ED037AB4EEE77A5C
:10475800F1EE10FA06DD7B68D3ED077AF1EE677AA1
:10476800C7ED037A7B6893ED087A7B68D3ED026A1C
:10477800D7ED037A66EEA77A77EE277A7B68C3EDE2
:10478800087A7B6893ED087A7B68D3ED097AB4EEF2
:10479800E77AF1EE10FA04DD7B685A6A7B681A62E0
:1047A80014E07B6893ED087A7B68D3ED097AF1EE23
:1047B800677AB4EEE77AF1EE10FA07D57B68D3EDA5
:1047C800097AF1EE677A7B68C3ED087A7B68DA6864
:1047D8007B689A611437BD465DF8047B704700BF5B
:1047E80080B483B000AF786087ED000A7B683A68D0
:1047F8009A620C37BD465DF8047B704780B483B07D
:1048080000AF78607B689B6A07EE903AB0EE670A63
:104818000C37BD465DF8047B704700BF80B483B099
:1048280000AF786087ED000A7B683A681A600C3739
:10483800BD465DF8047B704780B483B000AF7860F4
:1048480087ED000A7B683A685A600C37BD465DF808
:10485800047B704780B483B000AF786087ED000AAE
:104868007B683A689A600C37BD465DF8047B7047F0
:1048780080B483B000AF78607B681B6807EE903A1D
:10488800B0EE670A0C37BD465DF8047B704700BF81
:1048980080B483B000AF78607B685B6807EE903ABD
:1048A800B0EE670A0C37BD465DF8047B704700BF61
:1048B80080B483B000AF78607B689B6807EE903A5D
:1048C800B0EE670A0C37BD465DF8047B704700BF41
:1048D80080B483B000AF78607B684FF07E521A6076
:1048E8007B684FF000025A607B684FF000029A60C4
:1048F8007B684FF00002DA607B684FF000021A61B3
:104908007B684FF000029A617B684FF000021A62E0
:104918007B684FF000029A627B680F4ADA627B6814
:104928000E4A1A637B680E4A5A637B680D4A5A64BA
:104938007B680D4A9A647B680C4ADA647B680C4A87
:104948009A637B680B4ADA637B680B4A1A640C37F4
:10495800BD465DF8047B704729460008E947000812
:10496800054800087948000899480008B94800082F
:1049780025480008414800085D48000880B400AF99
:10498800194B4FF000021A60174B4FF000025A60A3
:10499800164B1A68144B9A60134B154ADA61124B7E
:1049A800144A1A62104B4FF00002DA600E4B4FF0B7
:1049B80000021A610C4B4FF000025A610A4B4FF08B
:1049C80000029A61084B0C4A5A62074B4FF00002EA
:1049D8009A62054B4FF00002DA62034B064A1A63EB
:1049E800BD465DF8047B704798000020C867000842
:1049F80038BEF63BADA3DA3E0000204180B483B058
:104A080000AF87ED010AC7ED000A7F4B93ED007AEE
:104A18007D4BD3ED026A7C4BD3ED017A97ED006AAA
:104A280076EE677A66EEA77A77EE277A764BC3ED4D
:104A3800007A754B93ED097A734BD3ED026A724B8A
:104A480093ED026A704BD3ED0C7A26EE276A6E4B13
:104A5800D3ED0A7A36EE676A6B4BD3ED0B7A36EEF6
:104A6800676A694BD3ED077A76EE277A66EEA77AFE
:104A780077EE277A644BC3ED097A634B93ED0A7A94
:104A8800614BD3ED026A604BD3ED0C7A66EEA77AE0
:104A980077EE677A5C4BC3ED0A7A5B4B93ED0B7A42
:104AA800594BD3ED026A584BD3ED0C7A66EEA77AD0
:104AB80077EE677A544BC3ED0B7A534B93ED0C7A30
:104AC800514BD3ED026A504BD3ED077A66EEA77AC5
:104AD80077EE277A4C4BC3ED0C7A4B4BD3ED007A2B
:104AE80097ED017A77EE677A474BC3ED037A464B29
:104AF80093ED097A444BD3ED087A77EE277A424B47
:104B0800C3ED047A404B93ED097A3F4BD3ED047A19
:104B1800C7EE277A3C4BC3ED057A3B4B93ED0B7AF6
:104B2800394BD3ED047AC7EE277A374BC3ED067AB3
:104B3800354B93ED007A344BD3ED056A324BD3ED08
:104B4800037A66EEA77A77EE277A2F4BC3ED007AC1
:104B58002D4B93ED017A2C4BD3ED066A2A4BD3EDFE
:104B6800037A66EEA77A77EE277A274BC3ED017AA8
:104B7800254B93ED0C7A244BD3ED066A224BD3EDEB
:104B88000A7A66EEA77A77EE677A1F4BC3ED0C7A3E
:104B98001D4B93ED0B7A1C4BD3ED066A1A4BD3EDE4
:104BA800097A66EEA77A77EE677A174BC3ED0B7A28
:104BB800154B93ED0A7A144BD3ED056A124BD3EDDE
:104BC8000A7A66EEA77A77EE677A0F4BC3ED0A7A10
:104BD8000D4B93ED097A0C4BD3ED056A0A4BD3EDD7
:104BE800097A66EEA77A77EE677A074BC3ED097AFA
:104BF800054B1B6807EE903AB0EE670A0C37BD46C6
:104C08005DF8047B704700BF9800002080B483B033
:104C180000AF87ED010A044B7A68DA610C37BD46AC
:104C28005DF8047B704700BF9800002080B483B013
:104C380000AF87ED010A044B7A681A620C37BD464B
:104C48005DF8047B704700BF9800002080B400AF77
:104C5800034B044A1A62BD465DF8047B704700BFE7
:104C680098000020ADA3DA3E80B400AF034B044A9D
:104C7800DA61BD465DF8047B704700BF98000020EC
:104C880038BEF63B80B400AF044BDB6907EE903AC0
:104C9800B0EE670ABD465DF8047B704798000020B7
:104CA80080B400AF044B1B6A07EE903AB0EE670A77
:104CB800BD465DF8047B70479800002080B485B03D
:104CC80000AFF860B960FA71BB80FB68BA681A6017
:104CD800FB68FA791A71FB680022DA80FB68002207
:104CE8001A81FB68BA885A811437BD465DF8047B7F
:104CF800704700BF80B584B000AF7860396000238A
:104D0800FB8146E07B68DB881A467B681B89134475
:104D1800BB607B685B891A46BB689A4209D97B6885
:104D28001A68BB681344FA8939680A4412781A70F9
:104D380010E07B6819687B685B891A46BB68B3FB1F
:104D4800F2F002FB00F29B1A0B44FA8939680A4414
:104D580012781A70786800F073F80346002B06D1B1
:104D68007B681B8901339AB27B681A810EE07B68E5
:104D7800DB8801339AB27B68DA807B68DA887B68E3
:104D88005B899A4202D37B680022DA80FB8901336F
:104D9800FB817B681B79FA899A42B3D31037BD46E9
:104DA80080BD00BF80B584B000AF78603960786896
:104DB80000F034F80346002B29D10023FB8121E0C1
:104DC800FB893A6813447A6811687A68D2880A4479
:104DD80012781A707B681B89013B9AB27B681A812A
:104DE8007B68DB8801339AB27B68DA807B68DA8873
:104DF8007B685B899A4202D37B680022DA80FB8950
:104E08000133FB817B681B79FA899A42D8D37B6886
:104E18001B8918461037BD4680BD00BF80B483B0DB
:104E280000AF78607B681B89002B14BF0023012327
:104E3800DBB218460C37BD465DF8047B704700BFEF
:104E480080B483B000AF78607B681A897B685B891F
:104E58009A4234BF00230123DBB218460C37BD4603
:104E68005DF8047B704700BF80B500AF334B5B88AB
:104E780007EE903AB8EEE77ADFED317AB4EEE77AEA
:104E8800F1EE10FA1BDD2D4B5B8807EE903AB8EE79
:104E9800E77ADFED2C7AB4EEE77AF1EE10FA0ED568
:104EA800264B5B8807EE903AB8EEE77ADFED267A74
:104EB80077EE677A9FED257AC7EE277A01E0DFED76
:104EC800247AB0EE670A00F04BF8F0EE407A214BF6
:104ED800C3ED007A1F4BD3ED007AF5EEC07AF1EE00
:104EE80010FA0DDD1B4B93ED007AF2EE047AB4EE66
:104EF800E77AF1EE10FA03D5164B174A5A601BE011
:104F0800144B93ED007AF2EE0E7AB4EEE77AF1EEF6
:104F180010FA0DDD0F4B93ED007AF3EE0E7AB4EE36
:104F2800E77AF1EE10FA03D50A4B0C4A5A6003E00F
:104F3800084B4FF000025A6080BD00BFF804002003
:104F4800E323FF43C42A7745422084439A35C04669
:104F58000000000070030020000048C20000484222
:104F680080B485B000AF87ED010A0823FB730DE01C
:104F7800FB7B0133FA7B214992000A4412681F49DE
:104F88009B000B441A60FB7B013BFB73FB7B002BF4
:104F9800EED11A4B1A68194B5A60184B7A681A6086
:104FA8004FF00003BB600923FB730EE0FB7B134A41
:104FB8009B001344D3ED007A97ED027A77EE277AB7
:104FC800C7ED027AFB7B013BFB73FB7B002BEDD12A
:104FD8000A4BD3ED007A97ED027A77EE277AC7ED80
:104FE800027A97ED027AF2EE047AC7EE277AB0EEEB
:104FF800670A1437BD465DF8047B7047CC00002073
:1050080080B483B000AF0023FB7108E0FB79084A45
:105018009B001344074A1A60FB790133FB71FB7943
:105028000A2BF3D90C37BD465DF8047B704700BFE7
:10503800CC0000200000584180B500AF0C20FCF7E0
:10504800D3FF0C20FDF744FA0C20FDF793FAFFF785
:10505800D7FF024B024A9A6080BD00BF7003002050
:10506800714E000880B485B000AF87ED010A0323B4
:10507800FB730DE0FB7B0133FA7B214992000A4464
:1050880012681F499B000B441A60FB7B013BFB73B2
:10509800FB7B002BEED11A4B1A68194B5A60184B40
:1050A8007A681A604FF00003BB600423FB730EE0BC
:1050B800FB7B134A9B001344D3ED007A97ED027AE9
:1050C80077EE277AC7ED027AFB7B013BFB73FB7B0C
:1050D800002BEDD10A4BD3ED007A97ED027A77EEEB
:1050E800277AC7ED027A97ED027AF1EE047AC7EED5
:1050F800277AB0EE670A1437BD465DF8047B70471F
:10510800F400002080B485B000AF87ED010A0323C6
:10511800FB730FE0FB7B0133FA7B234904329200D7
:105128000A445268204904339B000B445A60FB7BB5
:10513800013BFB73FB7B002BECD11B4B5A691A4BD1
:105148009A61194B7A685A614FF00003BB600423D7
:10515800FB730FE0FB7B144A04339B001344D3ED2D
:10516800017A97ED027A77EE277AC7ED027AFB7B10
:10517800013BFB73FB7B002BECD10B4BD3ED057A8A
:1051880097ED027A77EE277AC7ED027A97ED027AE1
:10519800F1EE047AC7EE277AB0EE670A1437BD46F7
:1051A8005DF8047B704700BFF400002080B584B030
:1051B80000AF87ED010A97ED017ADFED257AB4EEAD
:1051C800E77AF1EE10FA3FD897ED017ADFED217A10
:1051D800B4EEE77AF1EE10FA36DBD7ED017AF5EEA8
:1051E800C07AF1EE10FAD4BF00230123DBB2FB73BF
:1051F800FB7B002B09D118484FF48051FEF71EFEA7
:1052080016482021FEF728FE08E013484FF4805185
:10521800FEF722FE11482021FEF710FE104AFB7B04
:10522800002B07D0D7ED017AFCEEE77A17EE903A1B
:105238009BB208E0D7ED017AF1EE677AFCEEE77AE7
:1052480017EE903A9BB293631037BD4680BD00BFFE
:1052580000007A4400007AC40008004800040048AE
:10526800002C014080B584B000AF87ED010A97EDAE
:10527800017ADFED267AB4EEE77AF1EE10FA41D83A
:1052880097ED017ADFED227AB4EEE77AF1EE10FAC3
:1052980038DBD7ED017AF5EEC07AF1EE10FAD4BF1B
:1052A80000230123DBB2FB73FB7B002B0AD11948D7
:1052B8004FF40071FEF7D0FD16484FF48071FEF7E9
:1052C800BDFD09E013484FF40071FEF7B7FD114822
:1052D8004FF48071FEF7C0FD0F4AFB7B002B07D00F
:1052E800D7ED017AFCEEE77A17EE903A9BB208E028
:1052F800D7ED017AF1EE677AFCEEE77A17EE903A8D
:105308009BB253631037BD4680BD00BF00007A448E
:1053180000007AC400040048002C014080B483B027
:1053280000AF87ED010A97ED017ADFED137AB4EE4D
:10533800E77AF1EE10FA01D5104B7B6097ED017A10
:10534800DFED0F7AB4EEE77AF1EE10FA01DD0D4BDE
:105358007B600D4BD7ED017A37EEA77ADFED0B7A3C
:1053680077EE277AFCEEE77A17EE902A5A630C3725
:10537800BD465DF8047B7047000034C3000034C3A9
:105388000000344300003443000400400000074498
:1053980080B483B000AF87ED010A97ED017ADFEDA5
:1053A800147AB4EEE77AF1EE10FA01D5114B7B606E
:1053B80097ED017ADFED107AB4EEE77AF1EE10FAA4
:1053C80001DD0E4B7B600E4BD7ED017AF1EE677A6B
:1053D80037EEA77ADFED0B7A77EE277AFCEEE77ADD
:1053E80017EE902A9A630C37BD465DF8047B704728
:1053F800000034C3000034C30000344300003443C9
:10540800000400400000074480B483B000AF87ED7B
:10541800010A97ED017ADFED167AB4EEE77AF1EE3C
:1054280010FA01D5134B7B6097ED017ADFED127A04
:10543800B4EEE77AF1EE10FA01DD104B7B60104B09
:1054480097ED017AF2EE047A37EE277AF1EE007AD8
:1054580027EE277ADFED0B7A77EE277AFCEEE77AEC
:1054680017EE902ADA630C37BD465DF8047B704767
:10547800000034C3000034C3000034430000344348
:10548800000400400000074480B483B000AF87EDFB
:10549800010A97ED017ADFED177AB4EEE77AF1EEBB
:1054A80010FA01D5144B7B6097ED017ADFED137A82
:1054B800B4EEE77AF1EE10FA01DD114B7B60114B87
:1054C800D7ED017AB1EE677AF1EE007A27EE277A06
:1054D800DFED0D7A37EE277AF3EE0E7A77EE277A3C
:1054E800FCEEE77A17EE902A1A640C37BD465DF891
:1054F800047B7047000034C3000034C30000344309
:10550800000034430004004000000744000000008D
:10551800B0B582B000AF4C4B5B691846FCF7F6FBA0
:1055280003469BB2A3F2DC539BB2FB80B7F906306B
:1055380007EE903AB8EEE77ADFED447A27EE277A5D
:10554800414BD3ED007AC7EE277A3F4BC3ED017A82
:105558003D4BDB681846FAF79FFF04460D46B7F93E
:1055680006301846FAF786FF02460B4610461946DB
:1055780033A3D3E90023FAF7E3FF02460B4620469C
:105588002946FAF72BFE02460B4610461946FBF74A
:10559800E9F902462C4BDA602B4B5B69184640F25E
:1055A800DC51FCF7BFFB284B9B691846FCF7AEFBA8
:1055B80003469BB2A3F2DC539BB2FB80B7F90630DB
:1055C80007EE903AB8EEE77ADFED207A27EE277AF1
:1055D8001D4BD3ED007AC7EE277A1B4BC3ED027A39
:1055E800194B1B691846FAF757FF04460D46B7F9D9
:1055F80006301846FAF73EFF02460B461046194693
:105608000FA3D3E90023FAF79BFF02460B46204677
:105618002946FAF7E3FD02460B4610461946FBF702
:10562800A1F90246084B1A61074B9B69184640F2DC
:10563800DC51FCF777FB0837BD46B0BDAFF30080FF
:1056480014B77AB85472953F3C000020CDCC4C3D3D
:1056580080B400AF044B5B6807EE903AB0EE670A7F
:10566800BD465DF8047B70473C00002080B400AF65
:10567800044B9B6807EE903AB0EE670ABD465DF8AA
:10568800047B70473C00002080B500AF0A20FCF77F
:10569800ABFC0D48FCF712FB4FF08040FCF70EFB0B
:1056A8000A20FCF715FF094B1A68094B1A60084BCA
:1056B800084ADA61064B084A9A62054B074ADA62D9
:1056C800034B074A1A6380BD00080040CC670008F6
:1056D8003C00002019550008595600087556000866
:1056E8002D1D000880B500AF0720FCF77DFC0A4897
:1056F800FCF7E4FA0720FCF7EBFE00F047F8074B4D
:10570800074A9A62054B074ADA62044B064A1A634B
:10571800024B064A5A6380BD002C0140F400002069
:105728000D5100086D500008B55100086D52000871
:1057380080B500AF0820FCF757FC0E48FCF7BEFA0E
:105748000820FCF7C5FE0920FCF74EFC0948FCF7C9
:10575800B5FA0920FCF7BCFE074B084A1A60064B4D
:10576800074A5A60044B074A9A60034B064ADA60B4
:1057780080BD00BF00040040FC0400202553000841
:1057880099530008115400089154000880B500AFDF
:105798003C48FFF79DF83B4B9B6B3A489FED3A0A14
:1057A8009847384BDB6B3748B1EE020A9847354BC0
:1057B8001B6C34489FED350A9847324B344A5A627D
:1057C800304B344A5A612F4B334ADA613348FFF77A
:1057D8007FF8324B9B6B31489FED2B0A98472F4B34
:1057E800DB6B2E48B0EE040A98472C4B1B6C2B48F9
:1057F8009FED260A9847294B254A5A62274B254A86
:105808005A61264B244ADA612548FFF761F8244B90
:105818009B6B23489FED230A9847214BDB6B20485D
:105828009FED210A98471E4B1B6C1D489FED1F0AD0
:1058380098471B4B1E4A5A62194B1E4A5A61184B0D
:105848001D4ADA611D48FFF743F81C4B9B6B1B4848
:105858009FED1B0A9847194BDB6B18489FED180AF8
:105868009847164B1B6C15489FED160A9847134B23
:10587800154A5A62114B154A5A61104B0E4ADA61A1
:1058880080BD00BF800400200000184200007A4359
:10589800000048440000C84100009643E00300208F
:1058A80030040020E3A51B3D8FC2753CBC74933CBB
:1058B8000000704100007A43000016437C0300207A
:1058C800CDCC4C3E000000000000C8430000FA4365
:1058D80080B582B000AF0023FB71012000F04EF8C4
:1058E8000346FB71102000F00DF80346FB710820F9
:1058F80000F026F80346FB71FB7918460837BD46C9
:1059080080BD00BF80B584B000AF0346FB710023A3
:10591800FB73FB7907EE103AF8EE477A074BC3EDB5
:10592800007AFB1DD0201B211A4600F055FA0346C9
:10593800FB73FB7B18461037BD4680BD0C05002065
:1059480080B584B000AF0346FB710023FB73FB797D
:1059580007EE103AF8EE477A074BC3ED017AFB1DC4
:10596800D0201C211A4600F037FA0346FB73FB7B54
:1059780018461037BD4680BD0C05002080B584B0A0
:1059880000AF0346FB710023FB73FB1DD0206B2186
:105998001A4600F021FA0346FB73FB7B18461037C2
:1059A800BD4680BD0000000080B586B000AF7860BD
:1059B8000023FB7507F11103D0203C211A4601236F
:1059C80000F054F90346FB7507F11003D0203B2182
:1059D8001A46012300F04AF90346FB7507F10F0345
:1059E800D02040211A46012300F040F90346FB75F8
:1059F80007F10E03D0203F211A46012300F036F9A3
:105A08000346FB753B7C1B029AB27B7C1343BB822B
:105A1800BB7B1B029AB2FB7B13437B82B7F9123024
:105A280006EE903AB8EEE67AB7F9143006EE903AF8
:105A3800F8EEE67AC7EE277AB0EE670A00F0D4FDF2
:105A480010EE103A1846FAF727FD02460B461046A4
:105A580019464FF00002344BFAF772FD02460B4626
:105A6800104619462EA3D3E90023FAF793FE0246FF
:105A78000B4610461946FAF775FF02462B4B1A607B
:105A8800B7F91230002B07DA284BD3ED007AF5EE80
:105A9800C07AF1EE10FA0BD4B7F91230002B0CDDF6
:105AA800224BD3ED007AF5EEC07AF1EE10FA04DD60
:105AB8001E4B1A687B681A602CE0B7F91230002B6D
:105AC80012DD1A4BD3ED007AF5EEC07AF1EE10FA3A
